{
  "_format": "hh-sol-artifact-1",
  "contractName": "TradingManager",
  "sourceName": "contracts/TradingManager.sol",
  "abi": [
    {
      "anonymous": false,
      "inputs": [
        {
          "indexed": true,
          "internalType": "address",
          "name": "account",
          "type": "address"
        },
        {
          "indexed": false,
          "internalType": "bool",
          "name": "status",
          "type": "bool"
        },
        {
          "indexed": false,
          "internalType": "uint40",
          "name": "updateTime",
          "type": "uint40"
        }
      ],
      "name": "AddressBlacklisted",
      "type": "event"
    },
    {
      "anonymous": false,
      "inputs": [
        {
          "indexed": false,
          "internalType": "address",
          "name": "previousAdmin",
          "type": "address"
        },
        {
          "indexed": false,
          "internalType": "address",
          "name": "newAdmin",
          "type": "address"
        }
      ],
      "name": "AdminChanged",
      "type": "event"
    },
    {
      "anonymous": false,
      "inputs": [
        {
          "indexed": true,
          "internalType": "address",
          "name": "beacon",
          "type": "address"
        }
      ],
      "name": "BeaconUpgraded",
      "type": "event"
    },
    {
      "anonymous": false,
      "inputs": [
        {
          "indexed": false,
          "internalType": "uint256",
          "name": "oldPeriod",
          "type": "uint256"
        },
        {
          "indexed": false,
          "internalType": "uint256",
          "name": "newPeriod",
          "type": "uint256"
        },
        {
          "indexed": false,
          "internalType": "uint40",
          "name": "updateTime",
          "type": "uint40"
        }
      ],
      "name": "CooldownPeriodUpdated",
      "type": "event"
    },
    {
      "anonymous": false,
      "inputs": [
        {
          "indexed": false,
          "internalType": "uint256",
          "name": "orderId",
          "type": "uint256"
        }
      ],
      "name": "CreateBuyOrderCreated",
      "type": "event"
    },
    {
      "anonymous": false,
      "inputs": [
        {
          "indexed": false,
          "internalType": "string",
          "name": "message",
          "type": "string"
        },
        {
          "indexed": false,
          "internalType": "uint256",
          "name": "step",
          "type": "uint256"
        }
      ],
      "name": "CreateBuyOrderStep",
      "type": "event"
    },
    {
      "anonymous": false,
      "inputs": [
        {
          "indexed": false,
          "internalType": "bool",
          "name": "success",
          "type": "bool"
        }
      ],
      "name": "CreateBuyOrderTransferComplete",
      "type": "event"
    },
    {
      "anonymous": false,
      "inputs": [
        {
          "indexed": false,
          "internalType": "address",
          "name": "buyer",
          "type": "address"
        },
        {
          "indexed": false,
          "internalType": "uint256",
          "name": "amount",
          "type": "uint256"
        }
      ],
      "name": "CreateBuyOrderTransferStart",
      "type": "event"
    },
    {
      "anonymous": false,
      "inputs": [
        {
          "indexed": false,
          "internalType": "uint256",
          "name": "totalValue",
          "type": "uint256"
        }
      ],
      "name": "CreateBuyOrderValueCalculated",
      "type": "event"
    },
    {
      "anonymous": false,
      "inputs": [
        {
          "indexed": true,
          "internalType": "address",
          "name": "recipient",
          "type": "address"
        },
        {
          "indexed": false,
          "internalType": "uint256",
          "name": "amount",
          "type": "uint256"
        },
        {
          "indexed": false,
          "internalType": "uint40",
          "name": "executeTime",
          "type": "uint40"
        }
      ],
      "name": "EmergencyWithdrawalExecuted",
      "type": "event"
    },
    {
      "anonymous": false,
      "inputs": [
        {
          "indexed": false,
          "internalType": "uint256",
          "name": "oldRate",
          "type": "uint256"
        },
        {
          "indexed": false,
          "internalType": "uint256",
          "name": "newRate",
          "type": "uint256"
        },
        {
          "indexed": false,
          "internalType": "uint40",
          "name": "updateTime",
          "type": "uint40"
        }
      ],
      "name": "FeeRateUpdated",
      "type": "event"
    },
    {
      "anonymous": false,
      "inputs": [
        {
          "indexed": false,
          "internalType": "address",
          "name": "oldReceiver",
          "type": "address"
        },
        {
          "indexed": false,
          "internalType": "address",
          "name": "newReceiver",
          "type": "address"
        },
        {
          "indexed": false,
          "internalType": "uint40",
          "name": "updateTime",
          "type": "uint40"
        }
      ],
      "name": "FeeReceiverUpdated",
      "type": "event"
    },
    {
      "anonymous": false,
      "inputs": [
        {
          "indexed": false,
          "internalType": "uint8",
          "name": "version",
          "type": "uint8"
        }
      ],
      "name": "Initialized",
      "type": "event"
    },
    {
      "anonymous": false,
      "inputs": [
        {
          "indexed": false,
          "internalType": "uint256",
          "name": "oldAmount",
          "type": "uint256"
        },
        {
          "indexed": false,
          "internalType": "uint256",
          "name": "newAmount",
          "type": "uint256"
        },
        {
          "indexed": false,
          "internalType": "uint40",
          "name": "updateTime",
          "type": "uint40"
        }
      ],
      "name": "MaxTradeAmountUpdated",
      "type": "event"
    },
    {
      "anonymous": false,
      "inputs": [
        {
          "indexed": false,
          "internalType": "uint256",
          "name": "oldAmount",
          "type": "uint256"
        },
        {
          "indexed": false,
          "internalType": "uint256",
          "name": "newAmount",
          "type": "uint256"
        },
        {
          "indexed": false,
          "internalType": "uint40",
          "name": "updateTime",
          "type": "uint40"
        }
      ],
      "name": "MinTradeAmountUpdated",
      "type": "event"
    },
    {
      "anonymous": false,
      "inputs": [
        {
          "indexed": true,
          "internalType": "uint256",
          "name": "orderId",
          "type": "uint256"
        },
        {
          "indexed": true,
          "internalType": "address",
          "name": "seller",
          "type": "address"
        },
        {
          "indexed": false,
          "internalType": "uint40",
          "name": "cancelTime",
          "type": "uint40"
        }
      ],
      "name": "OrderCancelled",
      "type": "event"
    },
    {
      "anonymous": false,
      "inputs": [
        {
          "indexed": true,
          "internalType": "uint256",
          "name": "orderId",
          "type": "uint256"
        },
        {
          "indexed": true,
          "internalType": "address",
          "name": "seller",
          "type": "address"
        },
        {
          "indexed": true,
          "internalType": "address",
          "name": "token",
          "type": "address"
        },
        {
          "indexed": false,
          "internalType": "uint256",
          "name": "amount",
          "type": "uint256"
        },
        {
          "indexed": false,
          "internalType": "uint256",
          "name": "price",
          "type": "uint256"
        },
        {
          "indexed": false,
          "internalType": "bool",
          "name": "isSellOrder",
          "type": "bool"
        },
        {
          "indexed": false,
          "internalType": "uint40",
          "name": "createTime",
          "type": "uint40"
        }
      ],
      "name": "OrderCreated",
      "type": "event"
    },
    {
      "anonymous": false,
      "inputs": [
        {
          "indexed": true,
          "internalType": "uint256",
          "name": "orderId",
          "type": "uint256"
        },
        {
          "indexed": true,
          "internalType": "address",
          "name": "buyer",
          "type": "address"
        },
        {
          "indexed": true,
          "internalType": "address",
          "name": "seller",
          "type": "address"
        },
        {
          "indexed": false,
          "internalType": "address",
          "name": "token",
          "type": "address"
        },
        {
          "indexed": false,
          "internalType": "uint256",
          "name": "amount",
          "type": "uint256"
        },
        {
          "indexed": false,
          "internalType": "uint256",
          "name": "price",
          "type": "uint256"
        },
        {
          "indexed": false,
          "internalType": "uint256",
          "name": "tradeId",
          "type": "uint256"
        },
        {
          "indexed": false,
          "internalType": "bool",
          "name": "isSellOrder",
          "type": "bool"
        },
        {
          "indexed": false,
          "internalType": "uint40",
          "name": "executeTime",
          "type": "uint40"
        }
      ],
      "name": "OrderExecuted",
      "type": "event"
    },
    {
      "anonymous": false,
      "inputs": [
        {
          "indexed": false,
          "internalType": "address",
          "name": "account",
          "type": "address"
        }
      ],
      "name": "Paused",
      "type": "event"
    },
    {
      "anonymous": false,
      "inputs": [
        {
          "indexed": true,
          "internalType": "bytes32",
          "name": "role",
          "type": "bytes32"
        },
        {
          "indexed": true,
          "internalType": "bytes32",
          "name": "previousAdminRole",
          "type": "bytes32"
        },
        {
          "indexed": true,
          "internalType": "bytes32",
          "name": "newAdminRole",
          "type": "bytes32"
        }
      ],
      "name": "RoleAdminChanged",
      "type": "event"
    },
    {
      "anonymous": false,
      "inputs": [
        {
          "indexed": true,
          "internalType": "bytes32",
          "name": "role",
          "type": "bytes32"
        },
        {
          "indexed": true,
          "internalType": "address",
          "name": "account",
          "type": "address"
        },
        {
          "indexed": true,
          "internalType": "address",
          "name": "sender",
          "type": "address"
        }
      ],
      "name": "RoleGranted",
      "type": "event"
    },
    {
      "anonymous": false,
      "inputs": [
        {
          "indexed": true,
          "internalType": "bytes32",
          "name": "role",
          "type": "bytes32"
        },
        {
          "indexed": true,
          "internalType": "address",
          "name": "account",
          "type": "address"
        },
        {
          "indexed": true,
          "internalType": "address",
          "name": "sender",
          "type": "address"
        }
      ],
      "name": "RoleRevoked",
      "type": "event"
    },
    {
      "anonymous": false,
      "inputs": [
        {
          "indexed": false,
          "internalType": "bool",
          "name": "paused",
          "type": "bool"
        },
        {
          "indexed": false,
          "internalType": "uint40",
          "name": "updateTime",
          "type": "uint40"
        }
      ],
      "name": "TradingStatusUpdated",
      "type": "event"
    },
    {
      "anonymous": false,
      "inputs": [
        {
          "indexed": false,
          "internalType": "address",
          "name": "account",
          "type": "address"
        }
      ],
      "name": "Unpaused",
      "type": "event"
    },
    {
      "anonymous": false,
      "inputs": [
        {
          "indexed": true,
          "internalType": "address",
          "name": "implementation",
          "type": "address"
        }
      ],
      "name": "Upgraded",
      "type": "event"
    },
    {
      "inputs": [],
      "name": "DEFAULT_ADMIN_ROLE",
      "outputs": [
        {
          "internalType": "bytes32",
          "name": "",
          "type": "bytes32"
        }
      ],
      "stateMutability": "view",
      "type": "function"
    },
    {
      "inputs": [],
      "name": "approveEmergencyWithdrawal",
      "outputs": [],
      "stateMutability": "nonpayable",
      "type": "function"
    },
    {
      "inputs": [
        {
          "internalType": "address",
          "name": "",
          "type": "address"
        }
      ],
      "name": "blacklist",
      "outputs": [
        {
          "internalType": "bool",
          "name": "",
          "type": "bool"
        }
      ],
      "stateMutability": "view",
      "type": "function"
    },
    {
      "inputs": [
        {
          "internalType": "uint256",
          "name": "orderId",
          "type": "uint256"
        }
      ],
      "name": "cancelOrder",
      "outputs": [],
      "stateMutability": "nonpayable",
      "type": "function"
    },
    {
      "inputs": [],
      "name": "cooldownPeriod",
      "outputs": [
        {
          "internalType": "uint256",
          "name": "",
          "type": "uint256"
        }
      ],
      "stateMutability": "view",
      "type": "function"
    },
    {
      "inputs": [
        {
          "internalType": "address",
          "name": "token",
          "type": "address"
        },
        {
          "internalType": "address",
          "name": "buyer",
          "type": "address"
        },
        {
          "internalType": "uint256",
          "name": "amount",
          "type": "uint256"
        },
        {
          "internalType": "uint256",
          "name": "price",
          "type": "uint256"
        }
      ],
      "name": "createBuyOrder",
      "outputs": [
        {
          "internalType": "uint256",
          "name": "",
          "type": "uint256"
        }
      ],
      "stateMutability": "nonpayable",
      "type": "function"
    },
    {
      "inputs": [
        {
          "internalType": "address",
          "name": "token",
          "type": "address"
        },
        {
          "internalType": "address",
          "name": "seller",
          "type": "address"
        },
        {
          "internalType": "uint256",
          "name": "amount",
          "type": "uint256"
        },
        {
          "internalType": "uint256",
          "name": "price",
          "type": "uint256"
        }
      ],
      "name": "createSellOrder",
      "outputs": [
        {
          "internalType": "uint256",
          "name": "",
          "type": "uint256"
        }
      ],
      "stateMutability": "nonpayable",
      "type": "function"
    },
    {
      "inputs": [],
      "name": "emergencyTimelock",
      "outputs": [
        {
          "internalType": "uint256",
          "name": "",
          "type": "uint256"
        }
      ],
      "stateMutability": "view",
      "type": "function"
    },
    {
      "inputs": [
        {
          "internalType": "address payable",
          "name": "recipient",
          "type": "address"
        }
      ],
      "name": "executeEmergencyWithdrawal",
      "outputs": [],
      "stateMutability": "nonpayable",
      "type": "function"
    },
    {
      "inputs": [
        {
          "internalType": "uint256",
          "name": "orderId",
          "type": "uint256"
        }
      ],
      "name": "executeOrder",
      "outputs": [],
      "stateMutability": "nonpayable",
      "type": "function"
    },
    {
      "inputs": [],
      "name": "feeRate",
      "outputs": [
        {
          "internalType": "uint256",
          "name": "",
          "type": "uint256"
        }
      ],
      "stateMutability": "view",
      "type": "function"
    },
    {
      "inputs": [],
      "name": "feeReceiver",
      "outputs": [
        {
          "internalType": "address",
          "name": "",
          "type": "address"
        }
      ],
      "stateMutability": "view",
      "type": "function"
    },
    {
      "inputs": [],
      "name": "getCooldownPeriod",
      "outputs": [
        {
          "internalType": "uint256",
          "name": "",
          "type": "uint256"
        }
      ],
      "stateMutability": "view",
      "type": "function"
    },
    {
      "inputs": [],
      "name": "getMaxTradeAmount",
      "outputs": [
        {
          "internalType": "uint256",
          "name": "",
          "type": "uint256"
        }
      ],
      "stateMutability": "view",
      "type": "function"
    },
    {
      "inputs": [],
      "name": "getMinTradeAmount",
      "outputs": [
        {
          "internalType": "uint256",
          "name": "",
          "type": "uint256"
        }
      ],
      "stateMutability": "view",
      "type": "function"
    },
    {
      "inputs": [
        {
          "internalType": "uint256",
          "name": "orderId",
          "type": "uint256"
        }
      ],
      "name": "getOrder",
      "outputs": [
        {
          "internalType": "uint256",
          "name": "id",
          "type": "uint256"
        },
        {
          "internalType": "address",
          "name": "seller",
          "type": "address"
        },
        {
          "internalType": "address",
          "name": "token",
          "type": "address"
        },
        {
          "internalType": "uint256",
          "name": "amount",
          "type": "uint256"
        },
        {
          "internalType": "uint256",
          "name": "price",
          "type": "uint256"
        },
        {
          "internalType": "uint256",
          "name": "timestamp",
          "type": "uint256"
        },
        {
          "internalType": "bool",
          "name": "active",
          "type": "bool"
        },
        {
          "internalType": "bool",
          "name": "isSellOrder",
          "type": "bool"
        }
      ],
      "stateMutability": "view",
      "type": "function"
    },
    {
      "inputs": [
        {
          "internalType": "bytes32",
          "name": "role",
          "type": "bytes32"
        }
      ],
      "name": "getRoleAdmin",
      "outputs": [
        {
          "internalType": "bytes32",
          "name": "",
          "type": "bytes32"
        }
      ],
      "stateMutability": "view",
      "type": "function"
    },
    {
      "inputs": [
        {
          "internalType": "address",
          "name": "token",
          "type": "address"
        }
      ],
      "name": "getTokenPrice",
      "outputs": [
        {
          "internalType": "uint256",
          "name": "",
          "type": "uint256"
        }
      ],
      "stateMutability": "view",
      "type": "function"
    },
    {
      "inputs": [
        {
          "internalType": "address",
          "name": "token",
          "type": "address"
        }
      ],
      "name": "getTokenTrades",
      "outputs": [
        {
          "internalType": "uint256[]",
          "name": "",
          "type": "uint256[]"
        }
      ],
      "stateMutability": "view",
      "type": "function"
    },
    {
      "inputs": [
        {
          "internalType": "uint256",
          "name": "tradeId",
          "type": "uint256"
        }
      ],
      "name": "getTrade",
      "outputs": [
        {
          "internalType": "uint256",
          "name": "id",
          "type": "uint256"
        },
        {
          "internalType": "uint256",
          "name": "orderId",
          "type": "uint256"
        },
        {
          "internalType": "address",
          "name": "buyer",
          "type": "address"
        },
        {
          "internalType": "address",
          "name": "seller",
          "type": "address"
        },
        {
          "internalType": "address",
          "name": "token",
          "type": "address"
        },
        {
          "internalType": "uint256",
          "name": "amount",
          "type": "uint256"
        },
        {
          "internalType": "uint256",
          "name": "price",
          "type": "uint256"
        },
        {
          "internalType": "uint256",
          "name": "timestamp",
          "type": "uint256"
        },
        {
          "internalType": "bool",
          "name": "isSellOrder",
          "type": "bool"
        }
      ],
      "stateMutability": "view",
      "type": "function"
    },
    {
      "inputs": [
        {
          "internalType": "address",
          "name": "user",
          "type": "address"
        }
      ],
      "name": "getUserOrders",
      "outputs": [
        {
          "internalType": "uint256[]",
          "name": "",
          "type": "uint256[]"
        }
      ],
      "stateMutability": "view",
      "type": "function"
    },
    {
      "inputs": [
        {
          "internalType": "address",
          "name": "user",
          "type": "address"
        }
      ],
      "name": "getUserTrades",
      "outputs": [
        {
          "internalType": "uint256[]",
          "name": "",
          "type": "uint256[]"
        }
      ],
      "stateMutability": "view",
      "type": "function"
    },
    {
      "inputs": [],
      "name": "getVersion",
      "outputs": [
        {
          "internalType": "uint8",
          "name": "",
          "type": "uint8"
        }
      ],
      "stateMutability": "pure",
      "type": "function"
    },
    {
      "inputs": [
        {
          "internalType": "bytes32",
          "name": "role",
          "type": "bytes32"
        },
        {
          "internalType": "address",
          "name": "account",
          "type": "address"
        }
      ],
      "name": "grantRole",
      "outputs": [],
      "stateMutability": "nonpayable",
      "type": "function"
    },
    {
      "inputs": [
        {
          "internalType": "bytes32",
          "name": "role",
          "type": "bytes32"
        },
        {
          "internalType": "address",
          "name": "account",
          "type": "address"
        }
      ],
      "name": "hasRole",
      "outputs": [
        {
          "internalType": "bool",
          "name": "",
          "type": "bool"
        }
      ],
      "stateMutability": "view",
      "type": "function"
    },
    {
      "inputs": [
        {
          "internalType": "address",
          "name": "_systemAddress",
          "type": "address"
        }
      ],
      "name": "initialize",
      "outputs": [],
      "stateMutability": "nonpayable",
      "type": "function"
    },
    {
      "inputs": [],
      "name": "initiateEmergencyWithdrawal",
      "outputs": [],
      "stateMutability": "nonpayable",
      "type": "function"
    },
    {
      "inputs": [],
      "name": "maxTradeAmount",
      "outputs": [
        {
          "internalType": "uint256",
          "name": "",
          "type": "uint256"
        }
      ],
      "stateMutability": "view",
      "type": "function"
    },
    {
      "inputs": [],
      "name": "minTradeAmount",
      "outputs": [
        {
          "internalType": "uint256",
          "name": "",
          "type": "uint256"
        }
      ],
      "stateMutability": "view",
      "type": "function"
    },
    {
      "inputs": [],
      "name": "pause",
      "outputs": [],
      "stateMutability": "nonpayable",
      "type": "function"
    },
    {
      "inputs": [],
      "name": "paused",
      "outputs": [
        {
          "internalType": "bool",
          "name": "",
          "type": "bool"
        }
      ],
      "stateMutability": "view",
      "type": "function"
    },
    {
      "inputs": [],
      "name": "proxiableUUID",
      "outputs": [
        {
          "internalType": "bytes32",
          "name": "",
          "type": "bytes32"
        }
      ],
      "stateMutability": "view",
      "type": "function"
    },
    {
      "inputs": [
        {
          "internalType": "bytes32",
          "name": "role",
          "type": "bytes32"
        },
        {
          "internalType": "address",
          "name": "account",
          "type": "address"
        }
      ],
      "name": "renounceRole",
      "outputs": [],
      "stateMutability": "nonpayable",
      "type": "function"
    },
    {
      "inputs": [],
      "name": "requiredApprovals",
      "outputs": [
        {
          "internalType": "uint256",
          "name": "",
          "type": "uint256"
        }
      ],
      "stateMutability": "view",
      "type": "function"
    },
    {
      "inputs": [
        {
          "internalType": "bytes32",
          "name": "role",
          "type": "bytes32"
        },
        {
          "internalType": "address",
          "name": "account",
          "type": "address"
        }
      ],
      "name": "revokeRole",
      "outputs": [],
      "stateMutability": "nonpayable",
      "type": "function"
    },
    {
      "inputs": [
        {
          "internalType": "address",
          "name": "account",
          "type": "address"
        },
        {
          "internalType": "bool",
          "name": "status",
          "type": "bool"
        }
      ],
      "name": "setBlacklistStatus",
      "outputs": [],
      "stateMutability": "nonpayable",
      "type": "function"
    },
    {
      "inputs": [
        {
          "internalType": "uint256",
          "name": "_cooldownPeriod",
          "type": "uint256"
        }
      ],
      "name": "setCooldownPeriod",
      "outputs": [],
      "stateMutability": "nonpayable",
      "type": "function"
    },
    {
      "inputs": [
        {
          "internalType": "uint256",
          "name": "_timelock",
          "type": "uint256"
        }
      ],
      "name": "setEmergencyTimelock",
      "outputs": [],
      "stateMutability": "nonpayable",
      "type": "function"
    },
    {
      "inputs": [
        {
          "internalType": "uint256",
          "name": "_feeRate",
          "type": "uint256"
        }
      ],
      "name": "setFeeRate",
      "outputs": [],
      "stateMutability": "nonpayable",
      "type": "function"
    },
    {
      "inputs": [
        {
          "internalType": "address",
          "name": "_feeReceiver",
          "type": "address"
        }
      ],
      "name": "setFeeReceiver",
      "outputs": [],
      "stateMutability": "nonpayable",
      "type": "function"
    },
    {
      "inputs": [
        {
          "internalType": "uint256",
          "name": "_maxTradeAmount",
          "type": "uint256"
        }
      ],
      "name": "setMaxTradeAmount",
      "outputs": [],
      "stateMutability": "nonpayable",
      "type": "function"
    },
    {
      "inputs": [
        {
          "internalType": "uint256",
          "name": "_minTradeAmount",
          "type": "uint256"
        }
      ],
      "name": "setMinTradeAmount",
      "outputs": [],
      "stateMutability": "nonpayable",
      "type": "function"
    },
    {
      "inputs": [
        {
          "internalType": "uint256",
          "name": "_required",
          "type": "uint256"
        }
      ],
      "name": "setRequiredApprovals",
      "outputs": [],
      "stateMutability": "nonpayable",
      "type": "function"
    },
    {
      "inputs": [
        {
          "internalType": "address",
          "name": "_systemAddress",
          "type": "address"
        }
      ],
      "name": "setSystem",
      "outputs": [],
      "stateMutability": "nonpayable",
      "type": "function"
    },
    {
      "inputs": [
        {
          "internalType": "address",
          "name": "token",
          "type": "address"
        },
        {
          "internalType": "uint256",
          "name": "price",
          "type": "uint256"
        }
      ],
      "name": "setTokenPrice",
      "outputs": [],
      "stateMutability": "nonpayable",
      "type": "function"
    },
    {
      "inputs": [
        {
          "internalType": "bytes4",
          "name": "interfaceId",
          "type": "bytes4"
        }
      ],
      "name": "supportsInterface",
      "outputs": [
        {
          "internalType": "bool",
          "name": "",
          "type": "bool"
        }
      ],
      "stateMutability": "view",
      "type": "function"
    },
    {
      "inputs": [],
      "name": "system",
      "outputs": [
        {
          "internalType": "contract RealEstateSystem",
          "name": "",
          "type": "address"
        }
      ],
      "stateMutability": "view",
      "type": "function"
    },
    {
      "inputs": [],
      "name": "unpause",
      "outputs": [],
      "stateMutability": "nonpayable",
      "type": "function"
    },
    {
      "inputs": [
        {
          "internalType": "address",
          "name": "newImplementation",
          "type": "address"
        }
      ],
      "name": "upgradeTo",
      "outputs": [],
      "stateMutability": "nonpayable",
      "type": "function"
    },
    {
      "inputs": [
        {
          "internalType": "address",
          "name": "newImplementation",
          "type": "address"
        },
        {
          "internalType": "bytes",
          "name": "data",
          "type": "bytes"
        }
      ],
      "name": "upgradeToAndCall",
      "outputs": [],
      "stateMutability": "payable",
      "type": "function"
    },
    {
      "stateMutability": "payable",
      "type": "receive"
    }
  ],
  "bytecode": "0x60a080604052346100315730608052613bc290816100378239608051818181611dd701528181611f2a01526125ca0152f35b600080fdfe608080604052600436101561001d575b50361561001b57600080fd5b005b600090813560e01c90816301ffc9a714612d6f5750806303d29d2814612c4f57806304646a4914611b805780630537eae014612b39578063067542bf14612b5857806309aea85f14612b395780630d8e6e2c14612b1d578063222a242e14612ab8578063248a9ca314612a8b5780632db25e05146129af5780632f2ff15d146128fc57806336568abe146128695780633659cfe6146125a55780633dda3b95146125405780633f4ba83a14612422578063431f63c91461233a57806345596e2e146122455780634f1ef28614611ead578063514fcac714611e8357806352d1902d14611dc45780635583775714611d2a5780635c975abb14611d0657806363c69f0814611c925780637ab7a6ca14611b9f5780637defd5b014611b8057806380ea3de114611a885780638456cb59146119a457806391d1485414611958578063927c7742146118e457806394f611341461134c57806395bf75fd14611322578063978bbdb91461130357806399c1aadc146112e45780639a90a8e1146111e7578063a217fddf146111cb578063a8808d08146111ac578063ab59a11e14610ff6578063afa832dd14610dcd578063b3f0067414610da3578063bb786802146104c8578063c4d66de814610ba8578063c5a5123f1461067d578063cb62a022146105f9578063d02641a0146105bf578063d09ef24114610528578063d547741f146104e7578063dda9046f146104c8578063e76a0279146103bc578063efdcd9741461028e5763f9f92be40361000f573461028b57602036600319011261028b5760209060ff906040906001600160a01b03610276612dc4565b16815261016d84522054166040519015158152f35b80fd5b503461028b57602036600319011261028b576102a8612dc4565b61015f546001600160a01b039190821690813b156103b857838060405180946309afe56b60e31b825281806102e03360048301613a31565b03915afa9283156103ab57849361038e575b5050168015610352577f9f6cf1ecad53593bb85080e7d5da563eae225039a055f50f1eea3f6be39bd45391606091610168918254928260018060a01b0319851617905560405192168252602082015264ffffffffff42166040820152a180f35b60405162461bcd60e51b815260206004820152601460248201527324b73b30b634b2103332b2903932b1b2b4bb32b960611b6044820152606490fd5b61039a91929350612df5565b6103a757819083386102f2565b8280fd5b50604051903d90823e3d90fd5b8380fd5b503461028b57602036600319011261028b5761015f546004359082906001600160a01b0316803b156104b9578160405180926309afe56b60e31b825281806104073360048301613a31565b03915afa80156104bd576104a5575b505061016a54811161046b577f7d3e18ecb12dab8b951d8e8a06b15e593a88da86c325bba6b236077a156ed7059061016990808254925561046560405192839264ffffffffff42169184613a99565b0390a180f35b60405162461bcd60e51b8152602060048201526012602482015271125b9d985b1a59081b5a5b88185b5bdd5b9d60721b6044820152606490fd5b6104ae90612df5565b6104b9578138610416565b5080fd5b6040513d84823e3d90fd5b503461028b578060031936011261028b57602061016954604051908152f35b503461028b57604036600319011261028b57610525600435610507612ddf565b9080845260656020526105206001604086200154613120565b613279565b80f35b503461028b57602036600319011261028b576101009060ff6040600435928381526101606020522061055d81549384146139b4565b60018060a01b0390816001820154169160028201541660038201546004830154916006600585015494015494604051978852602088015260408701526060860152608085015260a0840152818116151560c084015260081c16151560e0820152f35b503461028b57602036600319011261028b576020906040906001600160a01b036105e7612dc4565b16815261016c83522054604051908152f35b503461028b576020806003193601126104b9576001600160a01b0361061c612dc4565b168252610164815260408220916040518092808554928381520194835280832092905b828210610666576106628561065681890382612e5a565b60405191829182612e96565b0390f35b83548652948501946001938401939091019061063f565b503461028b5761068c36612ed1565b92936106966138d6565b61069e61391b565b600080516020613b96833981519152608060405160408152600c60408201526b396f203969e2f9a269fa286360a21b606082015260016020820152a16106ee6001600160a01b0386161515613717565b600080516020613b968339815191526080604051604081526017604082015276e6a380e69fa5746f6b656ee59cb0e59d80e68890e58a9f60481b606082015260026020820152a16001600160a01b03831615610b6b577f6919aed5984228a6dbdaa050893353838ee0246330e0d9a83716f43ad07efabb6080602096604096600080516020613b968339815191528389518a815260178b82015276e6a380e69fa56275796572e59cb0e59d80e68890e58a9f60481b606082015260038c820152a16107ba86151561375b565b600080516020613b968339815191528389518a815260128b82015271e6a380e69fa5616d6f756e74e68890e58a9f60701b606082015260048c820152a1610802811515613798565b600080516020613b968339815191528389518a815260118b82015270e6a380e69fa57072696365e68890e58a9f60781b606082015260058c820152a16001600160a01b038716855261016d8952878520546108609060ff1615613971565b600080516020613b968339815191528389518a815260158b82015274e6a380e69fa5e9bb91e5908de58d95e68890e58a9f60581b606082015260088c820152a17f5fe2a8e199baca488f13e965dc50ab17eb8ffd772124d95d040cf327ccebd9f789895160018152a187516001600160a01b038816815260018a8201527ffdca89bf1958f57e46cef126fbc75f92120b2ed6b73b4c43d38feb9869571416908990a1610aa861016554809981976109168361389e565b61016555610a01825161092881612e08565b84815260018060a01b038d168f82015260018060a01b038816848201528b606082015286898201524260a0820152600160c082015260e081018381528584528f61016090526109ea60c06006878720855181556001810160018060a01b036020880151169060018060a01b03199182825416179055600282019060018060a01b038b8901511690825416179055606086015160038201558d860151600482015560a08601516005820155019301511515839060ff801983541691151516179055565b51815461ff00191690151560081b61ff0016179055565b7fac961b107a3800e49bd739fb5cdd5c3ff4b5de479a53e92a9362a235ef64a2fa8d8351858152a16001600160a01b038b1681526101628d52818120610a489084906138ad565b600080516020613b96833981519152878351848152601e858201527fe69bb4e696b0e794a8e688b7e8aea2e58d95e58897e8a1a8e68890e58a9f000060608201528f600b90820152a16001600160a01b03861681526101648d52206138ad565b600080516020613b968339815191528360405160408152601e60408201527fe69bb4e696b0e4bba3e5b881e4baa4e69893e58897e8a1a8e68890e58a9f00006060820152600c8c820152a160408051968752898701919091526000908601524264ffffffffff1660608601526001600160a01b03908116951693a4600080516020613b96833981519152608060405160408152600c60408201526b0e689a7e8a18ce5ae8ce688960a41b6060820152600d85820152a16001609755604051908152f35b60405162461bcd60e51b8152602060048201526015602482015274496e76616c6964206275796572206164647265737360581b6044820152606490fd5b503461028b57602036600319011261028b57610bc2612dc4565b81549060ff8260081c161590818092610d96575b8015610d7f575b15610d2357839060ff1993836001868316178455610d12575b506001600160a01b0316610c0b811515613604565b61015f80546001600160a01b031981168317909155821617803b156104b9578160405180926309afe56b60e31b82528180610c493360048301613650565b03915afa80156104bd57610cfe575b50610ca790549260ff8460081c1690610c70826136b7565b610c79826136b7565b610c82826136b7565b6001609755610c90826136b7565b610c99826136b7565b61012d9081541690556136b7565b6001610165556001610166556201518061016e55600261016f55610cc9575080f35b61ff00191681557f7f26b83ff96e1f2b6a682f133852f6798a09c465da95921460cefb3847402498602060405160018152a180f35b610d0790612df5565b6103a7578238610c58565b61ffff191661010117825538610bf6565b60405162461bcd60e51b815260206004820152602e60248201527f496e697469616c697a61626c653a20636f6e747261637420697320616c72656160448201526d191e481a5b9a5d1a585b1a5e995960921b6064820152608490fd5b50303b158015610bdd5750600160ff841614610bdd565b50600160ff841610610bd6565b503461028b578060031936011261028b57610168546040516001600160a01b039091168152602090f35b503461028b57610ddc36612ed1565b9392610de66138d6565b610dee61391b565b6001600160a01b03908116928190610e07851515613717565b16918215610fb857610e1a81151561375b565b610e25861515613798565b61016954811015610e35906137d4565b61016a54811115610e4590613817565b82855260209561016d8752604086205460ff1615610e629061385a565b61016580549687948592610e758461389e565b905589604051610e8481612e08565b848152818101898152604082018b815260608301898152608084019189835260a085019342855260c08601976001895260e0870197600189528b8b52610160905260408a2096518755806001880192511691600160a01b60019003199283825416179055600287019251169082541617905551600384015551600483015551600582015560060191511515610f2590839060ff801983541691151516179055565b51815461ff00191690151560081b61ff00161790558581526101628952816040822090610f51916138ad565b86815261016489526040902090610f67916138ad565b6040519182528682015260408101600190524264ffffffffff16606082015260807f6919aed5984228a6dbdaa050893353838ee0246330e0d9a83716f43ad07efabb91a46001609755604051908152f35b60405162461bcd60e51b8152602060048201526016602482015275496e76616c69642073656c6c6572206164647265737360501b6044820152606490fd5b503461028b576020806003193601126104b9576004356001600160a01b0381811692918390036103b85761015f54168160405180926312d9a6ad60e01b825281806110443360048301613ab8565b03915afa80156111a15761105f918591611174575b50613af1565b6101739061107060ff835416613b29565b61017190815461016f541161113957610172611091815461016e54906134d2565b42106110fd57859081808080478a8282156110f4575bf1156103ab57816040947f4b830510a7a1bbfae422c8220d86b1ad83b31ea792a9fc10394810f09c214f709660ff19815416905555554790825191825264ffffffffff421690820152a280f35b506108fc6110a7565b60405162461bcd60e51b8152600481018390526014602482015273151a5b595b1bd8dac81b9bdd08195e1c1a5c995960621b6044820152606490fd5b6064906040519062461bcd60e51b8252600482015260146024820152734e6f7420656e6f75676820617070726f76616c7360601b6044820152fd5b6111949150833d851161119a575b61118c8183612e5a565b8101906139f7565b38611059565b503d611182565b6040513d86823e3d90fd5b503461028b578060031936011261028b57602061016e54604051908152f35b503461028b578060031936011261028b57602090604051908152f35b503461028b578060031936011261028b5761015f546040516312d9a6ad60e01b81529060209082906001600160a01b031681806112273360048301613ab8565b03915afa80156104bd576112419183916112cc5750613af1565b61017360ff81541661127b5733825261017060205260016040832060ff199082828254161790558161017155426101725582541617905580f35b60405162461bcd60e51b815260206004820152602360248201527f456d657267656e6379207769746864726177616c20616c72656164792061637460448201526269766560e81b6064820152608490fd5b611194915060203d811161119a5761118c8183612e5a565b503461028b578060031936011261028b57602061016f54604051908152f35b503461028b578060031936011261028b57602061016754604051908152f35b503461028b578060031936011261028b5761015f546040516001600160a01b039091168152602090f35b503461028b57602036600319011261028b576113666138d6565b61136e61391b565b61015f5481906001600160a01b0316803b156118e1578160a491604051928380926309afe56b60e31b82527f97667070c54ef182b0f5858b034beac1b6f3089aa2d3188bb1e8929f4fa9b929600483015233602483015260606044830152601960648301527821b0b63632b91034b9903737ba1030b71037b832b930ba37b960391b60848301525afa80156104bd576118cd575b505060043581526101606020526040812061141f815415156139b4565b600160ff600683015416151503611892576003810154611444610169548210156137d4565b61145361016a54821115613817565b60028201546001600160a01b031680845261016c602052604084205461016b5461147c916134d2565b42106118585760018060a01b036001840154169081855261016d806020526114ab60ff6040882054161561385a565b8286526020526114c260ff60408720541615613971565b61016754928381029381850414811517156118425780612710850481031161182e579160209161151293876040518096819582946323b872dd60e01b84526127108b049003908060048501613a0f565b03925af180156111a15761180f575b50612710810461178b575b5060068101805460ff1916905560028101546001600160a01b0316825261016c602052604082204290556101668054906115658261389e565b90556001820154600283015460038401546004850154604051909390926001600160a01b0390811691166001600160401b03610120850190811190851117611775576116859460089389936101208701604052888752602087019360043585526040880190808252606089019081526080890192835260a0890193845260c0890194855260e089019542875260406101008b019860018a528d81526101616020522099518a555160018a0155600289019160018060a01b039051169160018060a01b03199283825416179055600389019060018060a01b0390511682825416179055600488019160018060a01b039051169082541617905551600586015551600685015551600784015551151591019060ff801983541691151516179055565b60018201546001600160a01b031683526101636020819052604084206116ac9083906138ad565b60018301546001600160a01b03168452602052604083206116ce9082906138ad565b60028201546001600160a01b03168352610164602052604083206116f39082906138ad565b60018060a01b0360018301541691829160018060a01b036002830154169160046003820154910154906040519384526020840152604083015260608201526001608082015264ffffffffff421660a08201527f75ffcdea2ea86587eaeb3fcb424d7e712fdd525df421505b1e4f1952f27d3d4760c060043592a4600160975580f35b634e487b7160e01b600052604160045260246000fd5b60028201546001830154610168546040516323b872dd60e01b81529360209385936001600160a01b039182169385938a9385936117d693612710909304928216911660048501613a0f565b03925af18015611804571561152c576117fd9060203d60201161119a5761118c8183612e5a565b503861152c565b6040513d85823e3d90fd5b6118279060203d60201161119a5761118c8183612e5a565b5038611521565b634e487b7160e01b86526011600452602486fd5b634e487b7160e01b600052601160045260246000fd5b60405162461bcd60e51b8152602060048201526012602482015271125b8818dbdbdb191bdddb881c195c9a5bd960721b6044820152606490fd5b60405162461bcd60e51b81526020600482015260136024820152724f72646572206973206e6f742061637469766560681b6044820152606490fd5b6118d690612df5565b61028b578038611402565b50fd5b503461028b576020806003193601126104b9576001600160a01b03611907612dc4565b168252610163815260408220916040518092808554928381520194835280832092905b828210611941576106628561065681890382612e5a565b83548652948501946001938401939091019061192a565b503461028b57604036600319011261028b576040611974612ddf565b9160043581526065602052209060018060a01b0316600052602052602060ff604060002054166040519015158152f35b503461028b578060031936011261028b5761015f5481906001600160a01b0316803b156118e1578160405180926309afe56b60e31b825281806119ea3360048301613650565b03915afa80156104bd57611a74575b50611a026138d6565b61012d600160ff198254161790557f62e78cea01bee320cd4e420270b5ea74000d11b0c9f74754ebdbfc544b05a2586020604051338152a17f64918290faab0af231fe43e4de506757ee4f9df614d996527ba53cad035f9831604080516001815264ffffffffff42166020820152a180f35b611a7d90612df5565b61028b5780386119f9565b503461028b57602036600319011261028b5761015f546004359082906001600160a01b0316803b156104b9578160405180926309afe56b60e31b82528180611ad33360048301613a31565b03915afa80156104bd57611b6c575b50508015611b2d577fb7168d2bc949e3c14d6e504f56a21f1efc4abaebf02396f7bb2ab255f8c8a2529061016b90808254925561046560405192839264ffffffffff42169184613a99565b60405162461bcd60e51b8152602060048201526017602482015276125b9d985b1a590818dbdbdb191bdddb881c195c9a5bd9604a1b6044820152606490fd5b611b7590612df5565b6104b9578138611ae2565b503461028b578060031936011261028b57602061016b54604051908152f35b503461028b578060031936011261028b5761015f546040516312d9a6ad60e01b8152602091829082906001600160a01b03168180611be03360048301613ab8565b03915afa801561180457611bfa9184916111745750613af1565b611c0960ff6101735416613b29565b3382526101709081815260ff604084205416611c5b573383525260408120600160ff1982541617905561017180549060018201809211611c47575580f35b634e487b7160e01b83526011600452602483fd5b6064906040519062461bcd60e51b82526004820152601060248201526f105b1c9958591e48185c1c1c9bdd995960821b6044820152fd5b503461028b576020806003193601126104b9576001600160a01b03611cb5612dc4565b168252610162815260408220916040518092808554928381520194835280832092905b828210611cef576106628561065681890382612e5a565b835486529485019460019384019390910190611cd8565b503461028b578060031936011261028b57602060ff61012d54166040519015158152f35b503461028b57602036600319011261028b57611d44612dc4565b61015f805490916001600160a01b039084828416803b156104b9578160405180926309afe56b60e31b82528180611d7e3360048301613650565b03915afa80156104bd57611dac575b50501690611d9c821515613604565b6001600160a01b03191617905580f35b611db590612df5565b611dc0578438611d8d565b8480fd5b503461028b578060031936011261028b577f00000000000000000000000000000000000000000000000000000000000000006001600160a01b03163003611e1d576020604051600080516020613b768339815191528152f35b60405162461bcd60e51b815260206004820152603860248201527f555550535570677261646561626c653a206d757374206e6f742062652063616c6044820152771b1959081d1a1c9bdd59da0819195b1959d85d1958d85b1b60421b6064820152608490fd5b503461028b57602036600319011261028b57611e9d6138d6565b611ea561391b565b600160975580f35b50604036600319011261028b57611ec2612dc4565b906024918235926001600160401b0384116103a757366023850112156103a757836004013593611ef185612e7b565b611efe6040519182612e5a565b858152602095868201923685838301011161224157818792868a93018637830101526001600160a01b037f0000000000000000000000000000000000000000000000000000000000000000811690611f58308314156132ef565b611f75600080516020613b76833981519152928284541614613350565b611f7d612f0a565b6004888261015f54166040519283809262482fab60e51b82525afa908115612236578891612219575b506121dd577f4910fdfa16fed3260ed0e7147f7cc6da11a60208b5b9406d12a635614ffd91435460ff1615611fe55750505050506105259192506133b1565b85929394969516906040516352d1902d60e01b81528881600481865afa600091816121ae575b5061206b5760405162461bcd60e51b8152600481018a9052602e818a01527f45524331393637557067726164653a206e657720696d706c656d656e7461746960448201526d6f6e206973206e6f74205555505360901b6064820152608490fd5b9794969192939597036121595750612082826133b1565b7fbc7cd75a20ee27fd9adebab32041f755214dbc6bffa90cc0225b39da2e5c2d3b600080a2825115801590612151575b6120be575b5050505080f35b60008061213e95604051956120d287612e24565b602787527f416464726573733a206c6f772d6c6576656c2064656c65676174652063616c6c86880152660819985a5b195960ca1b60408801525190845af4903d15612148573d61212181612e7b565b9061212f6040519283612e5a565b8152600081943d92013e613441565b50388080806120b7565b60609250613441565b5060016120b2565b8360296084926040519262461bcd60e51b845260048401528201527f45524331393637557067726164653a20756e737570706f727465642070726f786044820152681a58589b195555525160ba1b6064820152fd5b90918a82813d83116121d6575b6121c58183612e5a565b8101031261028b575051903861200b565b503d6121bb565b60405162461bcd60e51b81526004810189905260158187015274456d657267656e6379206d6f64652061637469766560581b6044820152606490fd5b6122309150893d8b1161119a5761118c8183612e5a565b38611fa6565b6040513d8a823e3d90fd5b8680fd5b503461028b57602036600319011261028b5761015f546004359082906001600160a01b0316803b156104b9578160405180926309afe56b60e31b825281806122903360048301613a31565b03915afa80156104bd57612326575b505061271081116122ed577f615e650589740eedc4cfabac7dd38d608aa921082ce13660f4e95887013306479061016790808254925561046560405192839264ffffffffff42169184613a99565b60405162461bcd60e51b815260206004820152601160248201527008ccaca40e4c2e8ca40e8dede40d0d2ced607b1b6044820152606490fd5b61232f90612df5565b6104b957813861229f565b503461028b57604036600319011261028b57612354612dc4565b61015f546040516312d9a6ad60e01b81527f241ecf16d79d0f8dbfb92cbc07fe17840425976cf0667f022fe9877caa831b0860048201523360248201526001600160a01b0392916020908290604490829087165afa9081156111a1578491612404575b50156123d15716815261016c602052602435604082205580f35b60405162461bcd60e51b815260206004820152600b60248201526a2737ba1036b0b730b3b2b960a91b6044820152606490fd5b61241c915060203d811161119a5761118c8183612e5a565b386123b7565b503461028b578060031936011261028b5761015f5481906001600160a01b0316803b156118e1578160405180926309afe56b60e31b825281806124683360048301613650565b03915afa80156104bd5761252c575b505061012d805460ff8116156124f05760ff191690557f5db9ee0a495bf2e6ff9c91a7834c1ba4fdd244a5e8aa4e537bd38aeae4b073aa6020604051338152a17f64918290faab0af231fe43e4de506757ee4f9df614d996527ba53cad035f98316040805183815264ffffffffff42166020820152a180f35b60405162461bcd60e51b815260206004820152601460248201527314185d5cd8589b194e881b9bdd081c185d5cd95960621b6044820152606490fd5b61253590612df5565b61028b578038612477565b503461028b57602036600319011261028b5761015f546040516312d9a6ad60e01b81529060209082906001600160a01b031681806125813360048301613ab8565b03915afa80156104bd5761259b9183916112cc5750613af1565b60043561016e5580f35b503461028b576020806003193601126104b9576125c0612dc4565b6001600160a01b037f000000000000000000000000000000000000000000000000000000000000000081166125f7308214156132ef565b612614600080516020613b76833981519152918383541614613350565b61261c612f0a565b6004848361015f54166040519283809262482fab60e51b82525afa90811561285e578691612841575b506128045760405190848201928284106001600160401b03851117611775578360405286835260ff7f4910fdfa16fed3260ed0e7147f7cc6da11a60208b5b9406d12a635614ffd914354166000146126a5575050505061052591506133b1565b8492939416906040516352d1902d60e01b81528681600481865afa600091816127d5575b5061272a5760405162461bcd60e51b815260048101889052602e60248201527f45524331393637557067726164653a206e657720696d706c656d656e7461746960448201526d6f6e206973206e6f74205555505360901b6064820152608490fd5b959394950361277e5761273c826133b1565b7fbc7cd75a20ee27fd9adebab32041f755214dbc6bffa90cc0225b39da2e5c2d3b600080a2825115801590612776576120be575050505080f35b5060006120b2565b60405162461bcd60e51b815260048101849052602960248201527f45524331393637557067726164653a20756e737570706f727465642070726f786044820152681a58589b195555525160ba1b6064820152608490fd5b90918882813d83116127fd575b6127ec8183612e5a565b8101031261028b57505190386126c9565b503d6127e2565b60405162461bcd60e51b8152600481018590526015602482015274456d657267656e6379206d6f64652061637469766560581b6044820152606490fd5b6128589150853d871161119a5761118c8183612e5a565b38612645565b6040513d88823e3d90fd5b503461028b57604036600319011261028b57612883612ddf565b336001600160a01b0382160361289f5761052590600435613279565b60405162461bcd60e51b815260206004820152602f60248201527f416363657373436f6e74726f6c3a2063616e206f6e6c792072656e6f756e636560448201526e103937b632b9903337b91039b2b63360891b6064820152608490fd5b503461028b57604036600319011261028b57600435612919612ddf565b81835260656020526129316001604085200154613120565b8183526065602052604083209060018060a01b0316908160005260205260ff6040600020541615612960578280f35b818352606560205260408320816000526020526040600020600160ff1982541617905533917f2f8788117e7eff1d82e926ec794901d17c78024a50270940304540a733656f0d8480a438808280f35b503461028b57602036600319011261028b5760406004359182815261016160205220908154908103612a4f578160016101209301549060018060a01b038060028301541690806003840154169060048401541660058401549160068501549360ff600860078801549701541696604051988952602089015260408801526060870152608086015260a085015260c084015260e08301521515610100820152f35b60405162461bcd60e51b8152602060048201526014602482015273151c98591948191bd95cc81b9bdd08195e1a5cdd60621b6044820152606490fd5b503461028b57602036600319011261028b5760016040602092600435815260658452200154604051908152f35b503461028b57602036600319011261028b5761015f546040516312d9a6ad60e01b81529060209082906001600160a01b03168180612af93360048301613ab8565b03915afa80156104bd57612b139183916112cc5750613af1565b60043561016f5580f35b503461028b578060031936011261028b57602060405160018152f35b503461028b578060031936011261028b57602061016a54604051908152f35b503461028b57602036600319011261028b5761015f546004359082906001600160a01b0316803b156104b9578160405180926309afe56b60e31b82528180612ba33360048301613a31565b03915afa80156104bd57612c3b575b5050610169548110612c01577f86e7b4369c1caea3db4f0eda2cfdba1b32c1cbc5b3878f5ea21b8bebf48e8e939061016a90808254925561046560405192839264ffffffffff42169184613a99565b60405162461bcd60e51b8152602060048201526012602482015271125b9d985b1a59081b585e08185b5bdd5b9d60721b6044820152606490fd5b612c4490612df5565b6104b9578138612bb2565b503461028b57604036600319011261028b57612c69612dc4565b60243590811515908183036103b85761015f546001600160a01b0391908216803b15612d6b578560405180926309afe56b60e31b82528180612cae3360048301613a31565b03915afa801561285e57612d58575b5016918215612d21577f0f4fd121755f3964931c17a00e8bedb981af0385fdfd8bda280a57cc3ccc99ab91612d0b60409285875261016d6020528387209060ff801983541691151516179055565b815190815264ffffffffff42166020820152a280f35b60405162461bcd60e51b815260206004820152600f60248201526e125b9d985b1a59081858d8dbdd5b9d608a1b6044820152606490fd5b612d6490959195612df5565b9338612cbd565b8580fd5b9050346104b95760203660031901126104b95760043563ffffffff60e01b81168091036103a75760209250637965db0b60e01b8114908115612db3575b5015158152f35b6301ffc9a760e01b14905038612dac565b600435906001600160a01b0382168203612dda57565b600080fd5b602435906001600160a01b0382168203612dda57565b6001600160401b03811161177557604052565b61010081019081106001600160401b0382111761177557604052565b606081019081106001600160401b0382111761177557604052565b608081019081106001600160401b0382111761177557604052565b90601f801991011681019081106001600160401b0382111761177557604052565b6001600160401b03811161177557601f01601f191660200190565b6020908160408183019282815285518094520193019160005b828110612ebd575050505090565b835185529381019392810192600101612eaf565b6080906003190112612dda576001600160a01b03906004358281168103612dda57916024359081168103612dda57906044359060643590565b3360009081527f61c6261e6978331c793eee420d743e773864e0ec05cc862750e423d64f73e9f660209081526040808320549092907f189ab7a9244df0848122154315af71fe140f3db0fe014031783b0946b8c9d2e39060ff1615612f6f5750505050565b612f7833613506565b845191612f8483612e3f565b6042835284830193606036863783511561310c576030855383519060019182101561310c5790607860218601536041915b81831161309e5750505061305c5761300a938593613042936130336048946130589951988576020b1b1b2b9b9a1b7b73a3937b61d1030b1b1b7bab73a1604d1b8b97880152825192839160378901910161322a565b8401917001034b99036b4b9b9b4b733903937b6329607d1b60378401525180938684019061322a565b01036028810185520183612e5a565b5162461bcd60e51b81529182916004830161324d565b0390fd5b60648486519062461bcd60e51b825280600483015260248201527f537472696e67733a20686578206c656e67746820696e73756666696369656e746044820152fd5b909192600f811660108110156130f8576f181899199a1a9b1b9c1cb0b131b232b360811b901a6130ce85886134df565b5360041c9280156130e457600019019190612fb5565b634e487b7160e01b82526011600452602482fd5b634e487b7160e01b83526032600452602483fd5b634e487b7160e01b81526032600452602490fd5b600081815260209060658252604092838220338352835260ff8483205416156131495750505050565b61315233613506565b84519161315e83612e3f565b6042835284830193606036863783511561310c576030855383519060019182101561310c5790607860218601536041915b8183116131e45750505061305c5761300a938593613042936130336048946130589951988576020b1b1b2b9b9a1b7b73a3937b61d1030b1b1b7bab73a1604d1b8b97880152825192839160378901910161322a565b909192600f811660108110156130f8576f181899199a1a9b1b9c1cb0b131b232b360811b901a61321485886134df565b5360041c9280156130e45760001901919061318f565b60005b83811061323d5750506000910152565b818101518382015260200161322d565b6040916020825261326d815180928160208601526020868601910161322a565b601f01601f1916010190565b906000918083526065602052604083209160018060a01b03169182845260205260ff6040842054166132aa57505050565b8083526065602052604083208284526020526040832060ff1981541690557ff6391f5c32d9c69d2a47ea670b442974b53935d1edc7fd64eb21e047a839171b339380a4565b156132f657565b60405162461bcd60e51b815260206004820152602c60248201527f46756e6374696f6e206d7573742062652063616c6c6564207468726f7567682060448201526b19195b1959d85d1958d85b1b60a21b6064820152608490fd5b1561335757565b60405162461bcd60e51b815260206004820152602c60248201527f46756e6374696f6e206d7573742062652063616c6c6564207468726f7567682060448201526b6163746976652070726f787960a01b6064820152608490fd5b803b156133e657600080516020613b7683398151915280546001600160a01b0319166001600160a01b03909216919091179055565b60405162461bcd60e51b815260206004820152602d60248201527f455243313936373a206e657720696d706c656d656e746174696f6e206973206e60448201526c1bdd08184818dbdb9d1c9858dd609a1b6064820152608490fd5b919290156134a35750815115613455575090565b3b1561345e5790565b60405162461bcd60e51b815260206004820152601d60248201527f416464726573733a2063616c6c20746f206e6f6e2d636f6e74726163740000006044820152606490fd5b8251909150156134b65750805190602001fd5b60405162461bcd60e51b8152908190613058906004830161324d565b9190820180921161184257565b9081518110156134f0570160200190565b634e487b7160e01b600052603260045260246000fd5b6040519061351382612e24565b602a82526020820160403682378251156134f0576030905381516001908110156134f057607860218401536029905b8082116135965750506135525790565b606460405162461bcd60e51b815260206004820152602060248201527f537472696e67733a20686578206c656e67746820696e73756666696369656e746044820152fd5b9091600f811660108110156135ef576f181899199a1a9b1b9c1cb0b131b232b360811b901a6135c584866134df565b5360041c9180156135da576000190190613542565b60246000634e487b7160e01b81526011600452fd5b60246000634e487b7160e01b81526032600452fd5b1561360b57565b60405162461bcd60e51b815260206004820152601d60248201527f53797374656d20616464726573732063616e6e6f74206265207a65726f0000006044820152606490fd5b7fa49807205ce4d355092ef5a8a18f56e8913cf4a201fbe287825b095693c2177581526001600160a01b0390911660208201526060604082018190526016908201527521b0b63632b91034b9903737ba1030b71030b236b4b760511b608082015260a00190565b156136be57565b60405162461bcd60e51b815260206004820152602b60248201527f496e697469616c697a61626c653a20636f6e7472616374206973206e6f74206960448201526a6e697469616c697a696e6760a81b6064820152608490fd5b1561371e57565b60405162461bcd60e51b8152602060048201526015602482015274496e76616c696420746f6b656e206164647265737360581b6044820152606490fd5b1561376257565b60405162461bcd60e51b815260206004820152600e60248201526d125b9d985b1a5908185b5bdd5b9d60921b6044820152606490fd5b1561379f57565b60405162461bcd60e51b815260206004820152600d60248201526c496e76616c696420707269636560981b6044820152606490fd5b156137db57565b60405162461bcd60e51b8152602060048201526014602482015273416d6f756e742062656c6f77206d696e696d756d60601b6044820152606490fd5b1561381e57565b60405162461bcd60e51b8152602060048201526014602482015273416d6f756e742061626f7665206d6178696d756d60601b6044820152606490fd5b1561386157565b60405162461bcd60e51b815260206004820152601560248201527414d95b1b195c881a5cc8189b1858dadb1a5cdd1959605a1b6044820152606490fd5b60001981146118425760010190565b805490600160401b82101561177557600182018082558210156134f05760005260206000200155565b60ff61012d54166138e357565b60405162461bcd60e51b815260206004820152601060248201526f14185d5cd8589b194e881c185d5cd95960821b6044820152606490fd5b60026097541461392c576002609755565b60405162461bcd60e51b815260206004820152601f60248201527f5265656e7472616e637947756172643a207265656e7472616e742063616c6c006044820152606490fd5b1561397857565b60405162461bcd60e51b8152602060048201526014602482015273109d5e595c881a5cc8189b1858dadb1a5cdd195960621b6044820152606490fd5b156139bb57565b60405162461bcd60e51b815260206004820152601460248201527313dc99195c88191bd95cc81b9bdd08195e1a5cdd60621b6044820152606490fd5b90816020910312612dda57518015158103612dda5790565b6001600160a01b03918216815291166020820152604081019190915260600190565b7f241ecf16d79d0f8dbfb92cbc07fe17840425976cf0667f022fe9877caa831b0881526001600160a01b0390911660208201526060604082018190526017908201527621b0b63632b91034b9903737ba10309036b0b730b3b2b960491b608082015260a00190565b91604091949364ffffffffff9160608501968552602085015216910152565b7fa49807205ce4d355092ef5a8a18f56e8913cf4a201fbe287825b095693c2177581526001600160a01b03909116602082015260400190565b15613af857565b60405162461bcd60e51b81526020600482015260096024820152682737ba1030b236b4b760b91b6044820152606490fd5b15613b3057565b60405162461bcd60e51b815260206004820152601f60248201527f456d657267656e6379207769746864726177616c206e6f7420616374697665006044820152606490fdfe360894a13ba1a3210667c828492db98dca3e2076cc3735a920a3ca505d382bbcf5e43d7159d29e79a41ecc894c56f093495feb12c069aeb0640ac443f5283d58a164736f6c6343000814000a",
  "linkReferences": {},
  "deployedLinkReferences": {}
}