{
  "_format": "hh-sol-artifact-1",
  "contractName": "TradingManager",
  "sourceName": "contracts/TradingManager.sol",
  "abi": [
    {
      "anonymous": false,
      "inputs": [
        {
          "indexed": true,
          "internalType": "address",
          "name": "account",
          "type": "address"
        },
        {
          "indexed": false,
          "internalType": "bool",
          "name": "status",
          "type": "bool"
        },
        {
          "indexed": false,
          "internalType": "uint40",
          "name": "updateTime",
          "type": "uint40"
        }
      ],
      "name": "AddressBlacklisted",
      "type": "event"
    },
    {
      "anonymous": false,
      "inputs": [
        {
          "indexed": false,
          "internalType": "address",
          "name": "previousAdmin",
          "type": "address"
        },
        {
          "indexed": false,
          "internalType": "address",
          "name": "newAdmin",
          "type": "address"
        }
      ],
      "name": "AdminChanged",
      "type": "event"
    },
    {
      "anonymous": false,
      "inputs": [
        {
          "indexed": true,
          "internalType": "address",
          "name": "beacon",
          "type": "address"
        }
      ],
      "name": "BeaconUpgraded",
      "type": "event"
    },
    {
      "anonymous": false,
      "inputs": [
        {
          "indexed": false,
          "internalType": "uint256",
          "name": "oldPeriod",
          "type": "uint256"
        },
        {
          "indexed": false,
          "internalType": "uint256",
          "name": "newPeriod",
          "type": "uint256"
        },
        {
          "indexed": false,
          "internalType": "uint40",
          "name": "updateTime",
          "type": "uint40"
        }
      ],
      "name": "CooldownPeriodUpdated",
      "type": "event"
    },
    {
      "anonymous": false,
      "inputs": [
        {
          "indexed": true,
          "internalType": "address",
          "name": "recipient",
          "type": "address"
        },
        {
          "indexed": false,
          "internalType": "uint256",
          "name": "amount",
          "type": "uint256"
        },
        {
          "indexed": false,
          "internalType": "uint40",
          "name": "executeTime",
          "type": "uint40"
        }
      ],
      "name": "EmergencyWithdrawalExecuted",
      "type": "event"
    },
    {
      "anonymous": false,
      "inputs": [
        {
          "indexed": false,
          "internalType": "uint256",
          "name": "oldRate",
          "type": "uint256"
        },
        {
          "indexed": false,
          "internalType": "uint256",
          "name": "newRate",
          "type": "uint256"
        },
        {
          "indexed": false,
          "internalType": "uint40",
          "name": "updateTime",
          "type": "uint40"
        }
      ],
      "name": "FeeRateUpdated",
      "type": "event"
    },
    {
      "anonymous": false,
      "inputs": [
        {
          "indexed": false,
          "internalType": "address",
          "name": "oldReceiver",
          "type": "address"
        },
        {
          "indexed": false,
          "internalType": "address",
          "name": "newReceiver",
          "type": "address"
        },
        {
          "indexed": false,
          "internalType": "uint40",
          "name": "updateTime",
          "type": "uint40"
        }
      ],
      "name": "FeeReceiverUpdated",
      "type": "event"
    },
    {
      "anonymous": false,
      "inputs": [
        {
          "indexed": false,
          "internalType": "uint8",
          "name": "version",
          "type": "uint8"
        }
      ],
      "name": "Initialized",
      "type": "event"
    },
    {
      "anonymous": false,
      "inputs": [
        {
          "indexed": false,
          "internalType": "uint256",
          "name": "oldAmount",
          "type": "uint256"
        },
        {
          "indexed": false,
          "internalType": "uint256",
          "name": "newAmount",
          "type": "uint256"
        },
        {
          "indexed": false,
          "internalType": "uint40",
          "name": "updateTime",
          "type": "uint40"
        }
      ],
      "name": "MaxTradeAmountUpdated",
      "type": "event"
    },
    {
      "anonymous": false,
      "inputs": [
        {
          "indexed": false,
          "internalType": "uint256",
          "name": "oldAmount",
          "type": "uint256"
        },
        {
          "indexed": false,
          "internalType": "uint256",
          "name": "newAmount",
          "type": "uint256"
        },
        {
          "indexed": false,
          "internalType": "uint40",
          "name": "updateTime",
          "type": "uint40"
        }
      ],
      "name": "MinTradeAmountUpdated",
      "type": "event"
    },
    {
      "anonymous": false,
      "inputs": [
        {
          "indexed": true,
          "internalType": "uint256",
          "name": "orderId",
          "type": "uint256"
        },
        {
          "indexed": true,
          "internalType": "address",
          "name": "seller",
          "type": "address"
        },
        {
          "indexed": false,
          "internalType": "uint40",
          "name": "cancelTime",
          "type": "uint40"
        }
      ],
      "name": "OrderCancelled",
      "type": "event"
    },
    {
      "anonymous": false,
      "inputs": [
        {
          "indexed": true,
          "internalType": "uint256",
          "name": "orderId",
          "type": "uint256"
        },
        {
          "indexed": true,
          "internalType": "address",
          "name": "seller",
          "type": "address"
        },
        {
          "indexed": true,
          "internalType": "address",
          "name": "token",
          "type": "address"
        },
        {
          "indexed": false,
          "internalType": "string",
          "name": "propertyId",
          "type": "string"
        },
        {
          "indexed": false,
          "internalType": "uint256",
          "name": "amount",
          "type": "uint256"
        },
        {
          "indexed": false,
          "internalType": "uint256",
          "name": "price",
          "type": "uint256"
        },
        {
          "indexed": false,
          "internalType": "bool",
          "name": "isSellOrder",
          "type": "bool"
        },
        {
          "indexed": false,
          "internalType": "uint40",
          "name": "createTime",
          "type": "uint40"
        }
      ],
      "name": "OrderCreated",
      "type": "event"
    },
    {
      "anonymous": false,
      "inputs": [
        {
          "indexed": true,
          "internalType": "uint256",
          "name": "orderId",
          "type": "uint256"
        },
        {
          "indexed": true,
          "internalType": "address",
          "name": "buyer",
          "type": "address"
        },
        {
          "indexed": true,
          "internalType": "address",
          "name": "seller",
          "type": "address"
        },
        {
          "indexed": false,
          "internalType": "address",
          "name": "token",
          "type": "address"
        },
        {
          "indexed": false,
          "internalType": "string",
          "name": "propertyId",
          "type": "string"
        },
        {
          "indexed": false,
          "internalType": "uint256",
          "name": "amount",
          "type": "uint256"
        },
        {
          "indexed": false,
          "internalType": "uint256",
          "name": "price",
          "type": "uint256"
        },
        {
          "indexed": false,
          "internalType": "uint256",
          "name": "tradeId",
          "type": "uint256"
        },
        {
          "indexed": false,
          "internalType": "bool",
          "name": "isSellOrder",
          "type": "bool"
        },
        {
          "indexed": false,
          "internalType": "uint40",
          "name": "executeTime",
          "type": "uint40"
        }
      ],
      "name": "OrderExecuted",
      "type": "event"
    },
    {
      "anonymous": false,
      "inputs": [
        {
          "indexed": false,
          "internalType": "address",
          "name": "account",
          "type": "address"
        }
      ],
      "name": "Paused",
      "type": "event"
    },
    {
      "anonymous": false,
      "inputs": [
        {
          "indexed": true,
          "internalType": "bytes32",
          "name": "role",
          "type": "bytes32"
        },
        {
          "indexed": true,
          "internalType": "bytes32",
          "name": "previousAdminRole",
          "type": "bytes32"
        },
        {
          "indexed": true,
          "internalType": "bytes32",
          "name": "newAdminRole",
          "type": "bytes32"
        }
      ],
      "name": "RoleAdminChanged",
      "type": "event"
    },
    {
      "anonymous": false,
      "inputs": [
        {
          "indexed": true,
          "internalType": "bytes32",
          "name": "role",
          "type": "bytes32"
        },
        {
          "indexed": true,
          "internalType": "address",
          "name": "account",
          "type": "address"
        },
        {
          "indexed": true,
          "internalType": "address",
          "name": "sender",
          "type": "address"
        }
      ],
      "name": "RoleGranted",
      "type": "event"
    },
    {
      "anonymous": false,
      "inputs": [
        {
          "indexed": true,
          "internalType": "bytes32",
          "name": "role",
          "type": "bytes32"
        },
        {
          "indexed": true,
          "internalType": "address",
          "name": "account",
          "type": "address"
        },
        {
          "indexed": true,
          "internalType": "address",
          "name": "sender",
          "type": "address"
        }
      ],
      "name": "RoleRevoked",
      "type": "event"
    },
    {
      "anonymous": false,
      "inputs": [
        {
          "indexed": false,
          "internalType": "bool",
          "name": "paused",
          "type": "bool"
        },
        {
          "indexed": false,
          "internalType": "uint40",
          "name": "updateTime",
          "type": "uint40"
        }
      ],
      "name": "TradingStatusUpdated",
      "type": "event"
    },
    {
      "anonymous": false,
      "inputs": [
        {
          "indexed": false,
          "internalType": "address",
          "name": "account",
          "type": "address"
        }
      ],
      "name": "Unpaused",
      "type": "event"
    },
    {
      "anonymous": false,
      "inputs": [
        {
          "indexed": true,
          "internalType": "address",
          "name": "implementation",
          "type": "address"
        }
      ],
      "name": "Upgraded",
      "type": "event"
    },
    {
      "inputs": [],
      "name": "DEFAULT_ADMIN_ROLE",
      "outputs": [
        {
          "internalType": "bytes32",
          "name": "",
          "type": "bytes32"
        }
      ],
      "stateMutability": "view",
      "type": "function"
    },
    {
      "inputs": [],
      "name": "approveEmergencyWithdrawal",
      "outputs": [],
      "stateMutability": "nonpayable",
      "type": "function"
    },
    {
      "inputs": [
        {
          "internalType": "address",
          "name": "",
          "type": "address"
        }
      ],
      "name": "blacklist",
      "outputs": [
        {
          "internalType": "bool",
          "name": "",
          "type": "bool"
        }
      ],
      "stateMutability": "view",
      "type": "function"
    },
    {
      "inputs": [
        {
          "internalType": "uint256",
          "name": "sellOrderId",
          "type": "uint256"
        }
      ],
      "name": "buyOrder",
      "outputs": [],
      "stateMutability": "nonpayable",
      "type": "function"
    },
    {
      "inputs": [
        {
          "internalType": "uint256",
          "name": "orderId",
          "type": "uint256"
        }
      ],
      "name": "cancelOrder",
      "outputs": [],
      "stateMutability": "nonpayable",
      "type": "function"
    },
    {
      "inputs": [],
      "name": "cooldownPeriod",
      "outputs": [
        {
          "internalType": "uint256",
          "name": "",
          "type": "uint256"
        }
      ],
      "stateMutability": "view",
      "type": "function"
    },
    {
      "inputs": [
        {
          "internalType": "address",
          "name": "token",
          "type": "address"
        },
        {
          "internalType": "string",
          "name": "propertyId",
          "type": "string"
        },
        {
          "internalType": "uint256",
          "name": "amount",
          "type": "uint256"
        },
        {
          "internalType": "uint256",
          "name": "price",
          "type": "uint256"
        }
      ],
      "name": "createBuyOrder",
      "outputs": [
        {
          "internalType": "uint256",
          "name": "",
          "type": "uint256"
        }
      ],
      "stateMutability": "nonpayable",
      "type": "function"
    },
    {
      "inputs": [
        {
          "internalType": "address",
          "name": "token",
          "type": "address"
        },
        {
          "internalType": "string",
          "name": "propertyId",
          "type": "string"
        },
        {
          "internalType": "uint256",
          "name": "amount",
          "type": "uint256"
        },
        {
          "internalType": "uint256",
          "name": "price",
          "type": "uint256"
        }
      ],
      "name": "createSellOrder",
      "outputs": [
        {
          "internalType": "uint256",
          "name": "",
          "type": "uint256"
        }
      ],
      "stateMutability": "nonpayable",
      "type": "function"
    },
    {
      "inputs": [],
      "name": "emergencyTimelock",
      "outputs": [
        {
          "internalType": "uint256",
          "name": "",
          "type": "uint256"
        }
      ],
      "stateMutability": "view",
      "type": "function"
    },
    {
      "inputs": [
        {
          "internalType": "address payable",
          "name": "recipient",
          "type": "address"
        }
      ],
      "name": "executeEmergencyWithdrawal",
      "outputs": [],
      "stateMutability": "nonpayable",
      "type": "function"
    },
    {
      "inputs": [],
      "name": "feeRate",
      "outputs": [
        {
          "internalType": "uint256",
          "name": "",
          "type": "uint256"
        }
      ],
      "stateMutability": "view",
      "type": "function"
    },
    {
      "inputs": [],
      "name": "feeReceiver",
      "outputs": [
        {
          "internalType": "address",
          "name": "",
          "type": "address"
        }
      ],
      "stateMutability": "view",
      "type": "function"
    },
    {
      "inputs": [],
      "name": "getCooldownPeriod",
      "outputs": [
        {
          "internalType": "uint256",
          "name": "",
          "type": "uint256"
        }
      ],
      "stateMutability": "view",
      "type": "function"
    },
    {
      "inputs": [],
      "name": "getMaxTradeAmount",
      "outputs": [
        {
          "internalType": "uint256",
          "name": "",
          "type": "uint256"
        }
      ],
      "stateMutability": "view",
      "type": "function"
    },
    {
      "inputs": [],
      "name": "getMinTradeAmount",
      "outputs": [
        {
          "internalType": "uint256",
          "name": "",
          "type": "uint256"
        }
      ],
      "stateMutability": "view",
      "type": "function"
    },
    {
      "inputs": [
        {
          "internalType": "uint256",
          "name": "orderId",
          "type": "uint256"
        }
      ],
      "name": "getOrder",
      "outputs": [
        {
          "internalType": "uint256",
          "name": "id",
          "type": "uint256"
        },
        {
          "internalType": "address",
          "name": "seller",
          "type": "address"
        },
        {
          "internalType": "address",
          "name": "token",
          "type": "address"
        },
        {
          "internalType": "uint256",
          "name": "amount",
          "type": "uint256"
        },
        {
          "internalType": "uint256",
          "name": "price",
          "type": "uint256"
        },
        {
          "internalType": "uint256",
          "name": "timestamp",
          "type": "uint256"
        },
        {
          "internalType": "bool",
          "name": "active",
          "type": "bool"
        },
        {
          "internalType": "bool",
          "name": "isSellOrder",
          "type": "bool"
        }
      ],
      "stateMutability": "view",
      "type": "function"
    },
    {
      "inputs": [
        {
          "internalType": "bytes32",
          "name": "role",
          "type": "bytes32"
        }
      ],
      "name": "getRoleAdmin",
      "outputs": [
        {
          "internalType": "bytes32",
          "name": "",
          "type": "bytes32"
        }
      ],
      "stateMutability": "view",
      "type": "function"
    },
    {
      "inputs": [
        {
          "internalType": "address",
          "name": "token",
          "type": "address"
        }
      ],
      "name": "getTokenPrice",
      "outputs": [
        {
          "internalType": "uint256",
          "name": "",
          "type": "uint256"
        }
      ],
      "stateMutability": "view",
      "type": "function"
    },
    {
      "inputs": [
        {
          "internalType": "address",
          "name": "token",
          "type": "address"
        }
      ],
      "name": "getTokenTrades",
      "outputs": [
        {
          "internalType": "uint256[]",
          "name": "",
          "type": "uint256[]"
        }
      ],
      "stateMutability": "view",
      "type": "function"
    },
    {
      "inputs": [
        {
          "internalType": "uint256",
          "name": "tradeId",
          "type": "uint256"
        }
      ],
      "name": "getTrade",
      "outputs": [
        {
          "internalType": "uint256",
          "name": "id",
          "type": "uint256"
        },
        {
          "internalType": "uint256",
          "name": "orderId",
          "type": "uint256"
        },
        {
          "internalType": "address",
          "name": "buyer",
          "type": "address"
        },
        {
          "internalType": "address",
          "name": "seller",
          "type": "address"
        },
        {
          "internalType": "address",
          "name": "token",
          "type": "address"
        },
        {
          "internalType": "uint256",
          "name": "amount",
          "type": "uint256"
        },
        {
          "internalType": "uint256",
          "name": "price",
          "type": "uint256"
        },
        {
          "internalType": "uint256",
          "name": "timestamp",
          "type": "uint256"
        },
        {
          "internalType": "bool",
          "name": "isSellOrder",
          "type": "bool"
        }
      ],
      "stateMutability": "view",
      "type": "function"
    },
    {
      "inputs": [
        {
          "internalType": "address",
          "name": "user",
          "type": "address"
        }
      ],
      "name": "getUserOrders",
      "outputs": [
        {
          "internalType": "uint256[]",
          "name": "",
          "type": "uint256[]"
        }
      ],
      "stateMutability": "view",
      "type": "function"
    },
    {
      "inputs": [
        {
          "internalType": "address",
          "name": "user",
          "type": "address"
        }
      ],
      "name": "getUserTrades",
      "outputs": [
        {
          "internalType": "uint256[]",
          "name": "",
          "type": "uint256[]"
        }
      ],
      "stateMutability": "view",
      "type": "function"
    },
    {
      "inputs": [],
      "name": "getVersion",
      "outputs": [
        {
          "internalType": "uint8",
          "name": "",
          "type": "uint8"
        }
      ],
      "stateMutability": "pure",
      "type": "function"
    },
    {
      "inputs": [
        {
          "internalType": "bytes32",
          "name": "role",
          "type": "bytes32"
        },
        {
          "internalType": "address",
          "name": "account",
          "type": "address"
        }
      ],
      "name": "grantRole",
      "outputs": [],
      "stateMutability": "nonpayable",
      "type": "function"
    },
    {
      "inputs": [
        {
          "internalType": "bytes32",
          "name": "role",
          "type": "bytes32"
        },
        {
          "internalType": "address",
          "name": "account",
          "type": "address"
        }
      ],
      "name": "hasRole",
      "outputs": [
        {
          "internalType": "bool",
          "name": "",
          "type": "bool"
        }
      ],
      "stateMutability": "view",
      "type": "function"
    },
    {
      "inputs": [
        {
          "internalType": "address",
          "name": "_systemAddress",
          "type": "address"
        }
      ],
      "name": "initialize",
      "outputs": [],
      "stateMutability": "nonpayable",
      "type": "function"
    },
    {
      "inputs": [],
      "name": "initiateEmergencyWithdrawal",
      "outputs": [],
      "stateMutability": "nonpayable",
      "type": "function"
    },
    {
      "inputs": [],
      "name": "maxTradeAmount",
      "outputs": [
        {
          "internalType": "uint256",
          "name": "",
          "type": "uint256"
        }
      ],
      "stateMutability": "view",
      "type": "function"
    },
    {
      "inputs": [],
      "name": "minTradeAmount",
      "outputs": [
        {
          "internalType": "uint256",
          "name": "",
          "type": "uint256"
        }
      ],
      "stateMutability": "view",
      "type": "function"
    },
    {
      "inputs": [],
      "name": "pause",
      "outputs": [],
      "stateMutability": "nonpayable",
      "type": "function"
    },
    {
      "inputs": [],
      "name": "paused",
      "outputs": [
        {
          "internalType": "bool",
          "name": "",
          "type": "bool"
        }
      ],
      "stateMutability": "view",
      "type": "function"
    },
    {
      "inputs": [],
      "name": "proxiableUUID",
      "outputs": [
        {
          "internalType": "bytes32",
          "name": "",
          "type": "bytes32"
        }
      ],
      "stateMutability": "view",
      "type": "function"
    },
    {
      "inputs": [
        {
          "internalType": "bytes32",
          "name": "role",
          "type": "bytes32"
        },
        {
          "internalType": "address",
          "name": "account",
          "type": "address"
        }
      ],
      "name": "renounceRole",
      "outputs": [],
      "stateMutability": "nonpayable",
      "type": "function"
    },
    {
      "inputs": [],
      "name": "requiredApprovals",
      "outputs": [
        {
          "internalType": "uint256",
          "name": "",
          "type": "uint256"
        }
      ],
      "stateMutability": "view",
      "type": "function"
    },
    {
      "inputs": [
        {
          "internalType": "bytes32",
          "name": "role",
          "type": "bytes32"
        },
        {
          "internalType": "address",
          "name": "account",
          "type": "address"
        }
      ],
      "name": "revokeRole",
      "outputs": [],
      "stateMutability": "nonpayable",
      "type": "function"
    },
    {
      "inputs": [
        {
          "internalType": "uint256",
          "name": "buyOrderId",
          "type": "uint256"
        }
      ],
      "name": "sellOrder",
      "outputs": [],
      "stateMutability": "nonpayable",
      "type": "function"
    },
    {
      "inputs": [
        {
          "internalType": "address",
          "name": "account",
          "type": "address"
        },
        {
          "internalType": "bool",
          "name": "status",
          "type": "bool"
        }
      ],
      "name": "setBlacklistStatus",
      "outputs": [],
      "stateMutability": "nonpayable",
      "type": "function"
    },
    {
      "inputs": [
        {
          "internalType": "uint256",
          "name": "_cooldownPeriod",
          "type": "uint256"
        }
      ],
      "name": "setCooldownPeriod",
      "outputs": [],
      "stateMutability": "nonpayable",
      "type": "function"
    },
    {
      "inputs": [
        {
          "internalType": "uint256",
          "name": "_timelock",
          "type": "uint256"
        }
      ],
      "name": "setEmergencyTimelock",
      "outputs": [],
      "stateMutability": "nonpayable",
      "type": "function"
    },
    {
      "inputs": [
        {
          "internalType": "uint256",
          "name": "_feeRate",
          "type": "uint256"
        }
      ],
      "name": "setFeeRate",
      "outputs": [],
      "stateMutability": "nonpayable",
      "type": "function"
    },
    {
      "inputs": [
        {
          "internalType": "address",
          "name": "_feeReceiver",
          "type": "address"
        }
      ],
      "name": "setFeeReceiver",
      "outputs": [],
      "stateMutability": "nonpayable",
      "type": "function"
    },
    {
      "inputs": [
        {
          "internalType": "uint256",
          "name": "_maxTradeAmount",
          "type": "uint256"
        }
      ],
      "name": "setMaxTradeAmount",
      "outputs": [],
      "stateMutability": "nonpayable",
      "type": "function"
    },
    {
      "inputs": [
        {
          "internalType": "uint256",
          "name": "_minTradeAmount",
          "type": "uint256"
        }
      ],
      "name": "setMinTradeAmount",
      "outputs": [],
      "stateMutability": "nonpayable",
      "type": "function"
    },
    {
      "inputs": [
        {
          "internalType": "uint256",
          "name": "_required",
          "type": "uint256"
        }
      ],
      "name": "setRequiredApprovals",
      "outputs": [],
      "stateMutability": "nonpayable",
      "type": "function"
    },
    {
      "inputs": [
        {
          "internalType": "address",
          "name": "_systemAddress",
          "type": "address"
        }
      ],
      "name": "setSystem",
      "outputs": [],
      "stateMutability": "nonpayable",
      "type": "function"
    },
    {
      "inputs": [
        {
          "internalType": "address",
          "name": "token",
          "type": "address"
        },
        {
          "internalType": "uint256",
          "name": "price",
          "type": "uint256"
        }
      ],
      "name": "setTokenPrice",
      "outputs": [],
      "stateMutability": "nonpayable",
      "type": "function"
    },
    {
      "inputs": [
        {
          "internalType": "address",
          "name": "_usdtAddress",
          "type": "address"
        }
      ],
      "name": "setUsdtAddress",
      "outputs": [],
      "stateMutability": "nonpayable",
      "type": "function"
    },
    {
      "inputs": [
        {
          "internalType": "bytes4",
          "name": "interfaceId",
          "type": "bytes4"
        }
      ],
      "name": "supportsInterface",
      "outputs": [
        {
          "internalType": "bool",
          "name": "",
          "type": "bool"
        }
      ],
      "stateMutability": "view",
      "type": "function"
    },
    {
      "inputs": [],
      "name": "system",
      "outputs": [
        {
          "internalType": "contract RealEstateSystem",
          "name": "",
          "type": "address"
        }
      ],
      "stateMutability": "view",
      "type": "function"
    },
    {
      "inputs": [],
      "name": "unpause",
      "outputs": [],
      "stateMutability": "nonpayable",
      "type": "function"
    },
    {
      "inputs": [
        {
          "internalType": "address",
          "name": "newImplementation",
          "type": "address"
        }
      ],
      "name": "upgradeTo",
      "outputs": [],
      "stateMutability": "nonpayable",
      "type": "function"
    },
    {
      "inputs": [
        {
          "internalType": "address",
          "name": "newImplementation",
          "type": "address"
        },
        {
          "internalType": "bytes",
          "name": "data",
          "type": "bytes"
        }
      ],
      "name": "upgradeToAndCall",
      "outputs": [],
      "stateMutability": "payable",
      "type": "function"
    },
    {
      "inputs": [],
      "name": "usdtAddress",
      "outputs": [
        {
          "internalType": "address",
          "name": "",
          "type": "address"
        }
      ],
      "stateMutability": "view",
      "type": "function"
    },
    {
      "stateMutability": "payable",
      "type": "receive"
    }
  ],
  "bytecode": "0x60a080604052346100315730608052614a5890816100378239608051818181611d1501528181611e3c01526124d30152f35b600080fdfe608080604052600436101561001d575b50361561001b57600080fd5b005b600090813560e01c90816301ffc9a71461382c5750806303d29d281461370c57806304646a49146116625780630537eae0146135f6578063067542bf1461361557806309aea85f146135f65780630cb46b75146135375780630d8e6e2c1461351b578063222a242e146134b657806322f85eaa14612e10578063248a9ca314612de35780632db25e0514612d075780632f2ff15d14612c5457806330c887d51461288a57806336568abe146127f75780633659cfe6146124ae5780633dda3b95146124495780633f4ba83a1461232b578063431f63c91461224357806345596e2e1461214e5780634f1ef28614611deb578063514fcac714611dc157806352d1902d14611d025780635583775714611c685780635c975abb14611c4457806363c69f0814611bd0578063738cfe4f146117745780637ab7a6ca146116815780637defd5b01461166257806380ea3de11461156a5780638456cb591461148357806391d1485414611437578063927c7742146113c357806395bf75fd1461139957806397514d9014610c32578063978bbdb914610c1357806399c1aadc14610bf45780639a90a8e114610af75780639ab4a44514610acd578063a217fddf14610ab1578063a8808d0814610a92578063ab59a11e146108dc578063b3f00674146108b2578063bb786802146104e9578063c4d66de81461069e578063cb62a0221461061a578063d02641a0146105e0578063d09ef24114610549578063d547741f14610508578063dda9046f146104e9578063e76a0279146103dd578063efdcd974146102af5763f9f92be40361000f57346102ac5760203660031901126102ac5760209060ff906040906001600160a01b03610297613881565b16815261016f84522054166040519015158152f35b80fd5b50346102ac5760203660031901126102ac576102c9613881565b61015f546001600160a01b039190821690813b156103d957838060405180946309afe56b60e31b82528180610301336004830161476f565b03915afa9283156103cc5784936103af575b5050168015610373577f9f6cf1ecad53593bb85080e7d5da563eae225039a055f50f1eea3f6be39bd4539160609161016a918254928260018060a01b0319851617905560405192168252602082015264ffffffffff42166040820152a180f35b60405162461bcd60e51b815260206004820152601460248201527324b73b30b634b2103332b2903932b1b2b4bb32b960611b6044820152606490fd5b6103bb919293506138ad565b6103c85781908338610313565b8280fd5b50604051903d90823e3d90fd5b8380fd5b50346102ac5760203660031901126102ac5761015f546004359082906001600160a01b0316803b156104da578160405180926309afe56b60e31b82528180610428336004830161476f565b03915afa80156104de576104c6575b505061016c54811161048c577f7d3e18ecb12dab8b951d8e8a06b15e593a88da86c325bba6b236077a156ed7059061016b90808254925561048660405192839264ffffffffff421691846147d7565b0390a180f35b60405162461bcd60e51b8152602060048201526012602482015271125b9d985b1a59081b5a5b88185b5bdd5b9d60721b6044820152606490fd5b6104cf906138ad565b6104da578138610437565b5080fd5b6040513d84823e3d90fd5b50346102ac57806003193601126102ac57602061016b54604051908152f35b50346102ac5760403660031901126102ac57610546600435610528613897565b9080845260656020526105416001604086200154613c52565b613da5565b80f35b50346102ac5760203660031901126102ac576101009060ff6040600435928381526101616020522061057e81549384146147f6565b60018060a01b0390816001820154169160028201541660048201546005830154916007600685015494015494604051978852602088015260408701526060860152608085015260a0840152818116151560c084015260081c16151560e0820152f35b50346102ac5760203660031901126102ac576020906040906001600160a01b03610608613881565b16815261016e83522054604051908152f35b50346102ac576020806003193601126104da576001600160a01b0361063d613881565b168252610165815260408220916040518092808554928381520194835280832092905b82821061068757610683856106778189038261392e565b604051918291826139fc565b0390f35b835486529485019460019384019390910190610660565b50346102ac5760203660031901126102ac576106b8613881565b815460ff8160081c16158080916108a5575b801561088e575b15610832578360019360ff19938386868316178455610821575b506001600160a01b0316610700811515614161565b61015f80546001600160a01b031981168317909155821617803b156104da578160405180926309afe56b60e31b8252818061073e33600483016141ad565b03915afa80156104de5761080d575b5061079b90549260ff8460081c169061076582614214565b61076e82614214565b61077782614214565b8560975561078482614214565b61078d82614214565b61012d908154169055614214565b8261016755826101685562015180610170556002610171558261016b55620f424061016c55600a61016d556032610169556107d4578280f35b61ff00191682556040519081527f7f26b83ff96e1f2b6a682f133852f6798a09c465da95921460cefb384740249890602090a138808280f35b610816906138ad565b6103d957833861074d565b61ffff1916610101178255386106eb565b60405162461bcd60e51b815260206004820152602e60248201527f496e697469616c697a61626c653a20636f6e747261637420697320616c72656160448201526d191e481a5b9a5d1a585b1a5e995960921b6064820152608490fd5b50303b1580156106d15750600160ff8316146106d1565b50600160ff8316106106ca565b50346102ac57806003193601126102ac5761016a546040516001600160a01b039091168152602090f35b50346102ac576020806003193601126104da576004356001600160a01b0381811692918390036103d95761015f54168160405180926312d9a6ad60e01b8252818061092a336004830161428c565b03915afa8015610a8757610945918591610a5a575b506142c5565b6101759061095660ff835416614839565b6101739081546101715411610a1f576101746109778154610170549061402f565b42106109e357859081808080478a8282156109da575bf1156103cc57816040947f4b830510a7a1bbfae422c8220d86b1ad83b31ea792a9fc10394810f09c214f709660ff19815416905555554790825191825264ffffffffff421690820152a280f35b506108fc61098d565b60405162461bcd60e51b8152600481018390526014602482015273151a5b595b1bd8dac81b9bdd08195e1c1a5c995960621b6044820152606490fd5b6064906040519062461bcd60e51b8252600482015260146024820152734e6f7420656e6f75676820617070726f76616c7360601b6044820152fd5b610a7a9150833d8511610a80575b610a72818361392e565b810190614274565b3861093f565b503d610a68565b6040513d86823e3d90fd5b50346102ac57806003193601126102ac57602061017054604051908152f35b50346102ac57806003193601126102ac57602090604051908152f35b50346102ac57806003193601126102ac57610160546040516001600160a01b039091168152602090f35b50346102ac57806003193601126102ac5761015f546040516312d9a6ad60e01b81529060209082906001600160a01b03168180610b37336004830161428c565b03915afa80156104de57610b51918391610bdc57506142c5565b61017560ff815416610b8b5733825261017260205260016040832060ff199082828254161790558161017355426101745582541617905580f35b60405162461bcd60e51b815260206004820152602360248201527f456d657267656e6379207769746864726177616c20616c72656164792061637460448201526269766560e81b6064820152608490fd5b610a7a915060203d8111610a8057610a72818361392e565b50346102ac57806003193601126102ac57602061017154604051908152f35b50346102ac57806003193601126102ac57602061016954604051908152f35b50346102ac5760203660031901126102ac57610c4c614604565b610c54614649565b600435815261016160205260408120610c6f815415156147f6565b60ff6007820154610c866001838316151514614885565b60081c16611362576004810154610ca261016b548210156143fc565b610cb161016c5482111561443f565b338352610166602052610cd7610ccf604085205461016d549061402f565b4210156148c7565b33835261016f602052610cf160ff60408520541615614482565b6002820154604051636eb1769f60e11b81526001600160a01b03909116919060208180610d223033600484016144c6565b0381865afa90811561130157859161132b575b5081610d48610d649360209310156144e0565b604051809381926323b872dd60e01b835230336004850161452c565b038187865af18015610a8757610d8191859161130c575b5061454e565b6004820154610de66020610d99600586015484614006565b92612710610daa6101695486614006565b0494610db6868661402f565b50600187015460405163a9059cbb60e01b815294859384928b92849290916001600160a01b031660048401614908565b03925af1801561130157610e0091869161130c575061454e565b6101605460405163a9059cbb60e01b81526001600160a01b039091169160209082908190610e32903360048401614908565b038188865af1801561130157610e4f9186916112e2575b5061472c565b81611260575b505060078101805460ff19169055338252610166602052604082204290556101685490610e8182614592565b6101685560018101546002820154600483015460058401546040519390926001600160a01b039081169116610eb5856138c0565b868552600435602086015260408501523360608501526080840152610edc60038501614965565b60a084015260c083015260e08201524261010082015283610120820152828452610162602052604084209080518255602081015160018301556002820160018060a01b036040830151169060018060a01b031991828254161790556003830160018060a01b0360608401511682825416179055600483019060018060a01b036080840151169082541617905560a08101518051906001600160401b03821161124c57610f8b60058501546145a1565b601f8111611207575b50602090601f83116001146111905792826009936101209361100697968b92611185575b50508160011b916000199060031b1c19161760058501555b60c0810151600685015560e0810151600785015561010081015160088501550151151591019060ff801983541691151516179055565b60018101546001600160a01b0316835261016460208190526040842061102d9084906145db565b33845260205261104082604085206145db565b60028101546001600160a01b03168352610165602052604083206110659083906145db565b60018101546002820154600483015460058401546040516001600160a01b03938416815260e06020820152600386015490969390941694600094919291906110ac826145a1565b918260e08a01526001811690816000146111645750600114611121575b5050604086015260608501526080840152600060a084015264ffffffffff421660c08401527f6ac9e96f4b24741908549d45868e6d9b867316ebb95ae6c98e4efd528a0856bd339380600435930390a4600160975580f35b6003919295500160005260206000206000905b82821061114c575061010091508601019238806110c9565b60018160209254610100858c01015201910190611134565b91505061010092955060ff191682880152151560051b8601019238806110c9565b015190503880610fb8565b906005850188526020882091885b601f19851681106111ef57508361012093611006979693600193600997601f198116106111d6575b505050811b016005850155610fd0565b015160001960f88460031b161c191690553880806111c6565b9192602060018192868501518155019401920161119e565b60058501885260208820601f840160051c810160208510611245575b601f830160051c82018110611239575050610f94565b60008155600101611223565b5080611223565b634e487b7160e01b87526041600452602487fd5b61016a5460405163a9059cbb60e01b8152926020928492909183918891839161129691906001600160a01b031660048401614908565b03925af180156112d7576112b19184916112b8575b50614923565b3880610e55565b6112d1915060203d602011610a8057610a72818361392e565b386112ab565b6040513d85823e3d90fd5b6112fb915060203d602011610a8057610a72818361392e565b38610e49565b6040513d87823e3d90fd5b611325915060203d602011610a8057610a72818361392e565b38610d7b565b90506020813d60201161135a575b816113466020938361392e565b81010312611355575181610d35565b600080fd5b3d9150611339565b60405162461bcd60e51b815260206004820152600f60248201526e2737ba103090313abc9037b93232b960891b6044820152606490fd5b50346102ac57806003193601126102ac5761015f546040516001600160a01b039091168152602090f35b50346102ac576020806003193601126104da576001600160a01b036113e6613881565b168252610164815260408220916040518092808554928381520194835280832092905b82821061142057610683856106778189038261392e565b835486529485019460019384019390910190611409565b50346102ac5760403660031901126102ac576040611453613897565b9160043581526065602052209060018060a01b0316600052602052602060ff604060002054166040519015158152f35b50346102ac57806003193601126102ac5761015f5481906001600160a01b0316803b15611567578160405180926309afe56b60e31b825281806114c933600483016141ad565b03915afa80156104de57611553575b506114e1614604565b61012d600160ff198254161790557f62e78cea01bee320cd4e420270b5ea74000d11b0c9f74754ebdbfc544b05a2586020604051338152a17f64918290faab0af231fe43e4de506757ee4f9df614d996527ba53cad035f9831604080516001815264ffffffffff42166020820152a180f35b61155c906138ad565b6102ac5780386114d8565b50fd5b50346102ac5760203660031901126102ac5761015f546004359082906001600160a01b0316803b156104da578160405180926309afe56b60e31b825281806115b5336004830161476f565b03915afa80156104de5761164e575b5050801561160f577fb7168d2bc949e3c14d6e504f56a21f1efc4abaebf02396f7bb2ab255f8c8a2529061016d90808254925561048660405192839264ffffffffff421691846147d7565b60405162461bcd60e51b8152602060048201526017602482015276125b9d985b1a590818dbdbdb191bdddb881c195c9a5bd9604a1b6044820152606490fd5b611657906138ad565b6104da5781386115c4565b50346102ac57806003193601126102ac57602061016d54604051908152f35b50346102ac57806003193601126102ac5761015f546040516312d9a6ad60e01b8152602091829082906001600160a01b031681806116c2336004830161428c565b03915afa80156112d7576116dc918491610a5a57506142c5565b6116eb60ff6101755416614839565b3382526101729081815260ff60408420541661173d573383525260408120600160ff1982541617905561017380549060018201809211611729575580f35b634e487b7160e01b83526011600452602483fd5b6064906040519062461bcd60e51b82526004820152601060248201526f105b1c9958591e48185c1c1c9bdd995960821b6044820152fd5b50346102ac57611783366139a1565b929361178d614604565b611795614649565b6117a96001600160a01b03861615156142fd565b6117b583511515614341565b6117c0821515614383565b6117cb8415156143c0565b6117da61016b548310156143fc565b6117e961016c5483111561443f565b33815261016f60205261180360ff6040832054161561469f565b61180d8483614006565b61016054604051636eb1769f60e11b81526001600160a01b0390911691906020818061183d3033600484016144c6565b0381865afa908115610a875790849392918491611b97575b5091816118696118879360209510156146e2565b6040519485809481936323b872dd60e01b835230336004850161452c565b03925af19081156104de57906118a39183916112e2575061472c565b61016754936118b185614592565b61016755604051916118c2836138dc565b8583523360208085019182526001600160a01b038981166040808801918252606088018a8152608089018a905260a089018890524260c08a0152600160e08a018190526101008a018890528c885261016190955290862088518155945193850180549484166001600160a01b03199586161790559051600285018054919093169316929092179055518051906001600160401b038211611b835761196960038401546145a1565b601f8111611b3e575b5091839189959360209b95508b90601f8311600114611aac5787986101006007600080516020614a2c8339815191529a96866040978a97611a2397611a4e9c92611aa1575b50508160011b916000199060031b1c19161760038201555b6080840151600482015560a0840151600582015560c084015160068201550191611a0b60e08201511515849060ff801983541691151516179055565b0151815461ff00191690151560081b61ff0016179055565b3381526101638c52611a37838383206145db565b6001600160a01b03861681526101658c52206145db565b611a636040519660a0885260a0880190613d80565b868901959095526040860152600060608601524264ffffffffff1660808601526001600160a01b031693339381900390a46001609755604051908152f35b0151905038806119b7565b979291906003830185528c852098855b601f1984168110611b2457509361010060076040956001868d9e611a2397600080516020614a2c8339815191529f9b611a4e9d9a601f19811610611b0b575b505050811b0160038201556119cf565b015160001960f88460031b161c19169055388080611afb565b828201518b556001909a01998d9950918e01918e01611abc565b60038401855260208520601f840160051c810160208510611b7c575b601f830160051c82018110611b70575050611972565b60008155600101611b5a565b5080611b5a565b634e487b7160e01b84526041600452602484fd5b91929350506020813d602011611bc8575b81611bb56020938361392e565b8101031261135557518392919081611855565b3d9150611ba8565b50346102ac576020806003193601126104da576001600160a01b03611bf3613881565b168252610163815260408220916040518092808554928381520194835280832092905b828210611c2d57610683856106778189038261392e565b835486529485019460019384019390910190611c16565b50346102ac57806003193601126102ac57602060ff61012d54166040519015158152f35b50346102ac5760203660031901126102ac57611c82613881565b61015f805490916001600160a01b039084828416803b156104da578160405180926309afe56b60e31b82528180611cbc33600483016141ad565b03915afa80156104de57611cea575b50501690611cda821515614161565b6001600160a01b03191617905580f35b611cf3906138ad565b611cfe578438611ccb565b8480fd5b50346102ac57806003193601126102ac577f00000000000000000000000000000000000000000000000000000000000000006001600160a01b03163003611d5b576020604051600080516020614a0c8339815191528152f35b60405162461bcd60e51b815260206004820152603860248201527f555550535570677261646561626c653a206d757374206e6f742062652063616c6044820152771b1959081d1a1c9bdd59da0819195b1959d85d1958d85b1b60421b6064820152608490fd5b50346102ac5760203660031901126102ac57611ddb614604565b611de3614649565b600160975580f35b5060403660031901126102ac57611e00613881565b6024356001600160401b0381116103c857366023820112156103c857611e3090369060248160040135910161396a565b6001600160a01b0391907f00000000000000000000000000000000000000000000000000000000000000008316611e6930821415613e1b565b611e86600080516020614a0c833981519152918583541614613e7c565b611e8e613a37565b8361015f541693604051809562482fab60e51b825281600460209889935afa908115612143578791612126575b506120e9577f4910fdfa16fed3260ed0e7147f7cc6da11a60208b5b9406d12a635614ffd91435460ff1615611ef7575050506105469150613edd565b8316906040516352d1902d60e01b81528581600481865afa600091816120ba575b50611f795760405162461bcd60e51b815260048101879052602e60248201527f45524331393637557067726164653a206e657720696d706c656d656e7461746960448201526d6f6e206973206e6f74205555505360901b6064820152608490fd5b949293940361206357611f8b84613edd565b7fbc7cd75a20ee27fd9adebab32041f755214dbc6bffa90cc0225b39da2e5c2d3b600080a281511580159061205b575b611fc6575b50505080f35b6120499260008060405194611fda866138f8565b602786527f416464726573733a206c6f772d6c6576656c2064656c65676174652063616c6c85870152660819985a5b195960ca1b60408701528481519101845af4903d15612052573d61202c8161394f565b9061203a604051928361392e565b8152600081943d92013e613f6d565b50388080611fc0565b60609250613f6d565b506001611fbb565b60405162461bcd60e51b815260048101839052602960248201527f45524331393637557067726164653a20756e737570706f727465642070726f786044820152681a58589b195555525160ba1b6064820152608490fd5b90918782813d83116120e2575b6120d1818361392e565b810103126102ac5750519038611f18565b503d6120c7565b60405162461bcd60e51b8152600481018690526015602482015274456d657267656e6379206d6f64652061637469766560581b6044820152606490fd5b61213d9150863d8811610a8057610a72818361392e565b38611ebb565b6040513d89823e3d90fd5b50346102ac5760203660031901126102ac5761015f546004359082906001600160a01b0316803b156104da578160405180926309afe56b60e31b82528180612199336004830161476f565b03915afa80156104de5761222f575b505061271081116121f6577f615e650589740eedc4cfabac7dd38d608aa921082ce13660f4e95887013306479061016990808254925561048660405192839264ffffffffff421691846147d7565b60405162461bcd60e51b815260206004820152601160248201527008ccaca40e4c2e8ca40e8dede40d0d2ced607b1b6044820152606490fd5b612238906138ad565b6104da5781386121a8565b50346102ac5760403660031901126102ac5761225d613881565b61015f546040516312d9a6ad60e01b81527f241ecf16d79d0f8dbfb92cbc07fe17840425976cf0667f022fe9877caa831b0860048201523360248201526001600160a01b0392916020908290604490829087165afa908115610a8757849161230d575b50156122da5716815261016e602052602435604082205580f35b60405162461bcd60e51b815260206004820152600b60248201526a2737ba1036b0b730b3b2b960a91b6044820152606490fd5b612325915060203d8111610a8057610a72818361392e565b386122c0565b50346102ac57806003193601126102ac5761015f5481906001600160a01b0316803b15611567578160405180926309afe56b60e31b8252818061237133600483016141ad565b03915afa80156104de57612435575b505061012d805460ff8116156123f95760ff191690557f5db9ee0a495bf2e6ff9c91a7834c1ba4fdd244a5e8aa4e537bd38aeae4b073aa6020604051338152a17f64918290faab0af231fe43e4de506757ee4f9df614d996527ba53cad035f98316040805183815264ffffffffff42166020820152a180f35b60405162461bcd60e51b815260206004820152601460248201527314185d5cd8589b194e881b9bdd081c185d5cd95960621b6044820152606490fd5b61243e906138ad565b6102ac578038612380565b50346102ac5760203660031901126102ac5761015f546040516312d9a6ad60e01b81529060209082906001600160a01b0316818061248a336004830161428c565b03915afa80156104de576124a4918391610bdc57506142c5565b6004356101705580f35b50346102ac576020806003193601126104da576124c9613881565b6001600160a01b037f0000000000000000000000000000000000000000000000000000000000000000811661250030821415613e1b565b61251d600080516020614a0c833981519152918383541614613e7c565b612525613a37565b6004848361015f54166040519283809262482fab60e51b82525afa9081156127ec5786916127cf575b506127925760405190848201928284106001600160401b0385111761277c578360405286835260ff7f4910fdfa16fed3260ed0e7147f7cc6da11a60208b5b9406d12a635614ffd914354166000146125ae57505050506105469150613edd565b8492939416906040516352d1902d60e01b81528681600481865afa6000918161274d575b506126335760405162461bcd60e51b815260048101889052602e60248201527f45524331393637557067726164653a206e657720696d706c656d656e7461746960448201526d6f6e206973206e6f74205555505360901b6064820152608490fd5b95939495036126f65761264582613edd565b7fbc7cd75a20ee27fd9adebab32041f755214dbc6bffa90cc0225b39da2e5c2d3b600080a28251158015906126ee575b612681575b5050505080f35b6000806126e49560405195612695876138f8565b602787527f416464726573733a206c6f772d6c6576656c2064656c65676174652063616c6c86880152660819985a5b195960ca1b60408801525190845af4903d15612052573d61202c8161394f565b503880808061267a565b506000612675565b60405162461bcd60e51b815260048101849052602960248201527f45524331393637557067726164653a20756e737570706f727465642070726f786044820152681a58589b195555525160ba1b6064820152608490fd5b90918882813d8311612775575b612764818361392e565b810103126102ac57505190386125d2565b503d61275a565b634e487b7160e01b600052604160045260246000fd5b60405162461bcd60e51b8152600481018590526015602482015274456d657267656e6379206d6f64652061637469766560581b6044820152606490fd5b6127e69150853d8711610a8057610a72818361392e565b3861254e565b6040513d88823e3d90fd5b50346102ac5760403660031901126102ac57612811613897565b336001600160a01b0382160361282d5761054690600435613da5565b60405162461bcd60e51b815260206004820152602f60248201527f416363657373436f6e74726f6c3a2063616e206f6e6c792072656e6f756e636560448201526e103937b632b9903337b91039b2b63360891b6064820152608490fd5b50346102ac57612899366139a1565b92936128a3614604565b6128ab614649565b6128bf6001600160a01b03861615156142fd565b6128cb83511515614341565b6128d6821515614383565b6128e18415156143c0565b6128f061016b548310156143fc565b6128ff61016c5483111561443f565b33815261016f60205261291960ff60408320541615614482565b604051636eb1769f60e11b8152602081806129383033600484016144c6565b03816001600160a01b038a165afa80156104de5783908390612c1e575b612961925010156144e0565b6040516323b872dd60e01b8152602081806129818630336004850161452c565b0381856001600160a01b038b165af19081156104de57906129a891839161130c575061454e565b61016754936129b685614592565b61016755604051916129c7836138dc565b8583523360208085019182526001600160a01b038981166040808801918252606088018a8152608089018a905260a089018890524260c08a0152600160e08a018190526101008a018190528c885261016190955290862088518155945193850180549484166001600160a01b03199586161790559051600285018054919093169316929092179055518051906001600160401b038211611b8357612a6e60038401546145a1565b601f8111612bd9575b5091839189959360209b95508b90601f8311600114612b615787986101006007600080516020614a2c8339815191529a96866040978a97611a2397612b0e9c92611aa15750508160011b916000199060031b1c19161760038201556080840151600482015560a0840151600582015560c084015160068201550191611a0b60e08201511515849060ff801983541691151516179055565b612b236040519660a0885260a0880190613d80565b868901959095526040860152600160608601524264ffffffffff1660808601526001600160a01b031693339381900390a46001609755604051908152f35b979291906003830185528c852098855b601f1984168110612bbf57509361010060076040956001868d9e611a2397600080516020614a2c8339815191529f9b612b0e9d9a601f19811610611b0b57505050811b0160038201556119cf565b828201518b556001909a01998d9950918e01918e01612b71565b60038401855260208520601f840160051c810160208510612c17575b601f830160051c82018110612c0b575050612a77565b60008155600101612bf5565b5080612bf5565b50506020813d602011612c4c575b81612c396020938361392e565b8101031261135557826129619151612955565b3d9150612c2c565b50346102ac5760403660031901126102ac57600435612c71613897565b8183526065602052612c896001604085200154613c52565b8183526065602052604083209060018060a01b0316908160005260205260ff6040600020541615612cb8578280f35b818352606560205260408320816000526020526040600020600160ff1982541617905533917f2f8788117e7eff1d82e926ec794901d17c78024a50270940304540a733656f0d8480a438808280f35b50346102ac5760203660031901126102ac5760406004359182815261016260205220908154908103612da7578160016101209301549060018060a01b038060028301541690806003840154169060048401541660068401549160078501549360ff600960088801549701541696604051988952602089015260408801526060870152608086015260a085015260c084015260e08301521515610100820152f35b60405162461bcd60e51b8152602060048201526014602482015273151c98591948191bd95cc81b9bdd08195e1a5cdd60621b6044820152606490fd5b50346102ac5760203660031901126102ac5760016040602092600435815260658452200154604051908152f35b50346102ac5760203660031901126102ac57612e2a614604565b612e32614649565b600435815261016160205260408120612e4d815415156147f6565b600160ff6007830154612e6583838316151514614885565b60081c1615150361347e57612ed96004820154612e8761016b548210156143fc565b612e9661016c5482111561443f565b338452610166602052612eb4610ccf604086205461016d549061402f565b33845261016f602052612ece60ff6040862054161561469f565b600583015490614006565b612710612ee96101695483614006565b049083612ef6838361402f565b61016054604051636eb1769f60e11b81526001600160a01b0390911693919060208180612f273033600484016144c6565b0381885afa908115610a87578491613447575b5081610d48612f4d9360209310156146e2565b038186885af180156112d757612f699184916112e2575061472c565b6020612f9d60018060a01b03600288015416600488015460405195868094819363a9059cbb60e01b83523360048401614908565b03925af19081156127ec57612fbe602092612fe7948991613430575061454e565b600186015460405163a9059cbb60e01b815293849283926001600160a01b031660048401614908565b038188865af18015611301576130039186916112e2575061472c565b816133d9575b505060078101805460ff19169055338252610166602052604082204290556101685461303481614592565b6101685560018201546002830154600484015460058501546040519390926001600160a01b039081169116613068856138c0565b85855260043560208601523360408601526060850152608084015261308f60038601614965565b60a084015260c083015260e0820152426101008201526001610120820152818452610162602052604084209080518255602081015160018301556002820160018060a01b036040830151169060018060a01b031991828254161790556003830160018060a01b0360608401511682825416179055600483019060018060a01b036080840151169082541617905560a08101518051906001600160401b03821161124c5761313f60058501546145a1565b601f8111613394575b50602090601f8311600114613337579282600993610120936131b897968b926111855750508160011b916000199060031b1c191617600585015560c0810151600685015560e0810151600785015561010081015160088501550151151591019060ff801983541691151516179055565b338352610164806020526131cf82604086206145db565b60018301546001600160a01b03168452602052604083206131f19082906145db565b60028201546001600160a01b03168352610165602052604083206132169082906145db565b60018201546002830154600484015460058501546040516001600160a01b03938416815260e06020820152600387015494909316959294600094909391929161325e826145a1565b918260e089015260018116908160001461331657506001146132d3575b5050604085015260608401526080830152600160a083015264ffffffffff421660c08301527f6ac9e96f4b24741908549d45868e6d9b867316ebb95ae6c98e4efd528a0856bd339280600435930390a4600160975580f35b6003919295500160005260206000206000905b8282106132fe5750610100915085010192388061327b565b60018160209254610100858b010152019101906132e6565b91505061010092955060ff191682870152151560051b85010192388061327b565b906005850188526020882091885b601f198516811061337c575083610120936131b8979693600193600997601f198116106111d657505050811b016005850155610fd0565b91926020600181928685015181550194019201613345565b60058501885260208820601f840160051c8101602085106133d2575b601f830160051c820181106133c6575050613148565b600081556001016133b0565b50806133b0565b61016a5460405163a9059cbb60e01b8152926020928492909183918891839161340f91906001600160a01b031660048401614908565b03925af180156112d7576134299184916112b85750614923565b3880613009565b6113259150843d8611610a8057610a72818361392e565b9350506020833d602011613476575b816134636020938361392e565b8101031261135557915186929081612f3a565b3d9150613456565b60405162461bcd60e51b815260206004820152601060248201526f2737ba10309039b2b6361037b93232b960811b6044820152606490fd5b50346102ac5760203660031901126102ac5761015f546040516312d9a6ad60e01b81529060209082906001600160a01b031681806134f7336004830161428c565b03915afa80156104de57613511918391610bdc57506142c5565b6004356101715580f35b50346102ac57806003193601126102ac57602060405160018152f35b50346102ac5760203660031901126102ac57613551613881565b61015f546040516312d9a6ad60e01b81526001600160a01b039291602090829085168180613582336004830161428c565b03915afa8015610a875761359c918591610bdc57506142c5565b1680156135ba5761016080546001600160a01b031916909117905580f35b60405162461bcd60e51b8152602060048201526014602482015273496e76616c69642055534454206164647265737360601b6044820152606490fd5b50346102ac57806003193601126102ac57602061016c54604051908152f35b50346102ac5760203660031901126102ac5761015f546004359082906001600160a01b0316803b156104da578160405180926309afe56b60e31b82528180613660336004830161476f565b03915afa80156104de576136f8575b505061016b5481106136be577f86e7b4369c1caea3db4f0eda2cfdba1b32c1cbc5b3878f5ea21b8bebf48e8e939061016c90808254925561048660405192839264ffffffffff421691846147d7565b60405162461bcd60e51b8152602060048201526012602482015271125b9d985b1a59081b585e08185b5bdd5b9d60721b6044820152606490fd5b613701906138ad565b6104da57813861366f565b50346102ac5760403660031901126102ac57613726613881565b60243590811515908183036103d95761015f546001600160a01b0391908216803b15613828578560405180926309afe56b60e31b8252818061376b336004830161476f565b03915afa80156127ec57613815575b50169182156137de577f0f4fd121755f3964931c17a00e8bedb981af0385fdfd8bda280a57cc3ccc99ab916137c860409285875261016f6020528387209060ff801983541691151516179055565b815190815264ffffffffff42166020820152a280f35b60405162461bcd60e51b815260206004820152600f60248201526e125b9d985b1a59081858d8dbdd5b9d608a1b6044820152606490fd5b613821909591956138ad565b933861377a565b8580fd5b9050346104da5760203660031901126104da5760043563ffffffff60e01b81168091036103c85760209250637965db0b60e01b8114908115613870575b5015158152f35b6301ffc9a760e01b14905038613869565b600435906001600160a01b038216820361135557565b602435906001600160a01b038216820361135557565b6001600160401b03811161277c57604052565b61014081019081106001600160401b0382111761277c57604052565b61012081019081106001600160401b0382111761277c57604052565b606081019081106001600160401b0382111761277c57604052565b608081019081106001600160401b0382111761277c57604052565b90601f801991011681019081106001600160401b0382111761277c57604052565b6001600160401b03811161277c57601f01601f191660200190565b9291926139768261394f565b91613984604051938461392e565b829481845281830111611355578281602093846000960137010152565b906080600319830112611355576004356001600160a01b03811681036113555791602435906001600160401b0382116113555780602383011215611355578160246139f19360040135910161396a565b906044359060643590565b6020908160408183019282815285518094520193019160005b828110613a23575050505090565b835185529381019392810192600101613a15565b3360009081527f61c6261e6978331c793eee420d743e773864e0ec05cc862750e423d64f73e9f6602090815260408083205490927f189ab7a9244df0848122154315af71fe140f3db0fe014031783b0946b8c9d2e39160ff1615613a9b5750505050565b613aa433614063565b91845190613ab182613913565b60428252848201926060368537825115613c3e5760308453825190600191821015613c3e5790607860218501536041915b818311613bd057505050613b8e576048613b8a938693613b6e93613b5f985198899376020b1b1b2b9b9a1b7b73a3937b61d1030b1b1b7bab73a1604d1b8a860152613b36815180928c603789019101613d5d565b8401917001034b99036b4b9b9b4b733903937b6329607d1b603784015251809386840190613d5d565b0103602881018752018561392e565b5192839262461bcd60e51b845260048401526024830190613d80565b0390fd5b60648486519062461bcd60e51b825280600483015260248201527f537472696e67733a20686578206c656e67746820696e73756666696369656e746044820152fd5b909192600f81166010811015613c2a576f181899199a1a9b1b9c1cb0b131b232b360811b901a613c00858761403c565b5360041c928015613c1657600019019190613ae2565b634e487b7160e01b82526011600452602482fd5b634e487b7160e01b83526032600452602483fd5b634e487b7160e01b81526032600452602490fd5b60009080825260209060658252604092838120338252835260ff848220541615613c7c5750505050565b613c8533614063565b91845190613c9282613913565b60428252848201926060368537825115613c3e5760308453825190600191821015613c3e5790607860218501536041915b818311613d1757505050613b8e576048613b8a938693613b6e93613b5f985198899376020b1b1b2b9b9a1b7b73a3937b61d1030b1b1b7bab73a1604d1b8a860152613b36815180928c603789019101613d5d565b909192600f81166010811015613c2a576f181899199a1a9b1b9c1cb0b131b232b360811b901a613d47858761403c565b5360041c928015613c1657600019019190613cc3565b60005b838110613d705750506000910152565b8181015183820152602001613d60565b90602091613d9981518092818552858086019101613d5d565b601f01601f1916010190565b906000918083526065602052604083209160018060a01b03169182845260205260ff604084205416613dd657505050565b8083526065602052604083208284526020526040832060ff1981541690557ff6391f5c32d9c69d2a47ea670b442974b53935d1edc7fd64eb21e047a839171b339380a4565b15613e2257565b60405162461bcd60e51b815260206004820152602c60248201527f46756e6374696f6e206d7573742062652063616c6c6564207468726f7567682060448201526b19195b1959d85d1958d85b1b60a21b6064820152608490fd5b15613e8357565b60405162461bcd60e51b815260206004820152602c60248201527f46756e6374696f6e206d7573742062652063616c6c6564207468726f7567682060448201526b6163746976652070726f787960a01b6064820152608490fd5b803b15613f1257600080516020614a0c83398151915280546001600160a01b0319166001600160a01b03909216919091179055565b60405162461bcd60e51b815260206004820152602d60248201527f455243313936373a206e657720696d706c656d656e746174696f6e206973206e60448201526c1bdd08184818dbdb9d1c9858dd609a1b6064820152608490fd5b91929015613fcf5750815115613f81575090565b3b15613f8a5790565b60405162461bcd60e51b815260206004820152601d60248201527f416464726573733a2063616c6c20746f206e6f6e2d636f6e74726163740000006044820152606490fd5b825190915015613fe25750805190602001fd5b60405162461bcd60e51b815260206004820152908190613b8a906024830190613d80565b8181029291811591840414171561401957565b634e487b7160e01b600052601160045260246000fd5b9190820180921161401957565b90815181101561404d570160200190565b634e487b7160e01b600052603260045260246000fd5b60405190614070826138f8565b602a825260208201604036823782511561404d5760309053815160019081101561404d57607860218401536029905b8082116140f35750506140af5790565b606460405162461bcd60e51b815260206004820152602060248201527f537472696e67733a20686578206c656e67746820696e73756666696369656e746044820152fd5b9091600f8116601081101561414c576f181899199a1a9b1b9c1cb0b131b232b360811b901a614122848661403c565b5360041c91801561413757600019019061409f565b60246000634e487b7160e01b81526011600452fd5b60246000634e487b7160e01b81526032600452fd5b1561416857565b60405162461bcd60e51b815260206004820152601d60248201527f53797374656d20616464726573732063616e6e6f74206265207a65726f0000006044820152606490fd5b7fa49807205ce4d355092ef5a8a18f56e8913cf4a201fbe287825b095693c2177581526001600160a01b0390911660208201526060604082018190526016908201527521b0b63632b91034b9903737ba1030b71030b236b4b760511b608082015260a00190565b1561421b57565b60405162461bcd60e51b815260206004820152602b60248201527f496e697469616c697a61626c653a20636f6e7472616374206973206e6f74206960448201526a6e697469616c697a696e6760a81b6064820152608490fd5b90816020910312611355575180151581036113555790565b7fa49807205ce4d355092ef5a8a18f56e8913cf4a201fbe287825b095693c2177581526001600160a01b03909116602082015260400190565b156142cc57565b60405162461bcd60e51b81526020600482015260096024820152682737ba1030b236b4b760b91b6044820152606490fd5b1561430457565b60405162461bcd60e51b8152602060048201526015602482015274496e76616c696420746f6b656e206164647265737360581b6044820152606490fd5b1561434857565b60405162461bcd60e51b8152602060048201526013602482015272125b9d985b1a59081c1c9bdc195c9d1e481251606a1b6044820152606490fd5b1561438a57565b60405162461bcd60e51b815260206004820152600e60248201526d125b9d985b1a5908185b5bdd5b9d60921b6044820152606490fd5b156143c757565b60405162461bcd60e51b815260206004820152600d60248201526c496e76616c696420707269636560981b6044820152606490fd5b1561440357565b60405162461bcd60e51b8152602060048201526014602482015273416d6f756e742062656c6f77206d696e696d756d60601b6044820152606490fd5b1561444657565b60405162461bcd60e51b8152602060048201526014602482015273416d6f756e742061626f7665206d6178696d756d60601b6044820152606490fd5b1561448957565b60405162461bcd60e51b815260206004820152601560248201527414d95b1b195c881a5cc8189b1858dadb1a5cdd1959605a1b6044820152606490fd5b6001600160a01b0391821681529116602082015260400190565b156144e757565b60405162461bcd60e51b815260206004820152601c60248201527f496e73756666696369656e7420746f6b656e20616c6c6f77616e6365000000006044820152606490fd5b6001600160a01b03918216815291166020820152604081019190915260600190565b1561455557565b60405162461bcd60e51b8152602060048201526015602482015274151bdad95b881d1c985b9cd9995c8819985a5b1959605a1b6044820152606490fd5b60001981146140195760010190565b90600182811c921680156145d1575b60208310146145bb57565b634e487b7160e01b600052602260045260246000fd5b91607f16916145b0565b805490600160401b82101561277c576001820180825582101561404d5760005260206000200155565b60ff61012d541661461157565b60405162461bcd60e51b815260206004820152601060248201526f14185d5cd8589b194e881c185d5cd95960821b6044820152606490fd5b60026097541461465a576002609755565b60405162461bcd60e51b815260206004820152601f60248201527f5265656e7472616e637947756172643a207265656e7472616e742063616c6c006044820152606490fd5b156146a657565b60405162461bcd60e51b8152602060048201526014602482015273109d5e595c881a5cc8189b1858dadb1a5cdd195960621b6044820152606490fd5b156146e957565b60405162461bcd60e51b815260206004820152601b60248201527a496e73756666696369656e74205553445420616c6c6f77616e636560281b6044820152606490fd5b1561473357565b60405162461bcd60e51b81526020600482015260146024820152731554d115081d1c985b9cd9995c8819985a5b195960621b6044820152606490fd5b7f241ecf16d79d0f8dbfb92cbc07fe17840425976cf0667f022fe9877caa831b0881526001600160a01b0390911660208201526060604082018190526017908201527621b0b63632b91034b9903737ba10309036b0b730b3b2b960491b608082015260a00190565b91604091949364ffffffffff9160608501968552602085015216910152565b156147fd57565b60405162461bcd60e51b815260206004820152601460248201527313dc99195c88191bd95cc81b9bdd08195e1a5cdd60621b6044820152606490fd5b1561484057565b60405162461bcd60e51b815260206004820152601f60248201527f456d657267656e6379207769746864726177616c206e6f7420616374697665006044820152606490fd5b1561488c57565b60405162461bcd60e51b81526020600482015260136024820152724f72646572206973206e6f742061637469766560681b6044820152606490fd5b156148ce57565b60405162461bcd60e51b8152602060048201526012602482015271125b8818dbdbdb191bdddb881c195c9a5bd960721b6044820152606490fd5b6001600160a01b039091168152602081019190915260400190565b1561492a57565b60405162461bcd60e51b8152602060048201526013602482015272119959481d1c985b9cd9995c8819985a5b1959606a1b6044820152606490fd5b9060405191826000825492614979846145a1565b9081845260019485811690816000146149e857506001146149a5575b50506149a39250038361392e565b565b9093915060005260209081600020936000915b8183106149d05750506149a393508201013880614995565b855488840185015294850194879450918301916149b8565b9150506149a394506020925060ff191682840152151560051b820101388061499556fe360894a13ba1a3210667c828492db98dca3e2076cc3735a920a3ca505d382bbcf59837d2c0f6bd4aa5c584545d2317f135be27b31a1123847d56dc0ac7121490a164736f6c6343000814000a",
  "linkReferences": {},
  "deployedLinkReferences": {}
}