{
  "_format": "hh-sol-artifact-1",
  "contractName": "UserRegistry",
  "sourceName": "contracts/UserRegistry.sol",
  "abi": [
    {
      "inputs": [
        {
          "internalType": "address",
          "name": "_systemConfig",
          "type": "address"
        }
      ],
      "stateMutability": "nonpayable",
      "type": "constructor"
    },
    {
      "inputs": [],
      "name": "InvalidLimit",
      "type": "error"
    },
    {
      "anonymous": false,
      "inputs": [
        {
          "indexed": true,
          "internalType": "address",
          "name": "user",
          "type": "address"
        },
        {
          "indexed": false,
          "internalType": "uint256",
          "name": "newLimit",
          "type": "uint256"
        }
      ],
      "name": "InvestmentLimitUpdated",
      "type": "event"
    },
    {
      "anonymous": false,
      "inputs": [
        {
          "indexed": true,
          "internalType": "address",
          "name": "user",
          "type": "address"
        },
        {
          "indexed": false,
          "internalType": "enum IUserRegistry.RiskLevel",
          "name": "riskLevel",
          "type": "uint8"
        },
        {
          "indexed": false,
          "internalType": "uint256",
          "name": "timestamp",
          "type": "uint256"
        }
      ],
      "name": "KYCApproved",
      "type": "event"
    },
    {
      "anonymous": false,
      "inputs": [
        {
          "indexed": true,
          "internalType": "address",
          "name": "user",
          "type": "address"
        },
        {
          "indexed": false,
          "internalType": "string",
          "name": "reason",
          "type": "string"
        },
        {
          "indexed": false,
          "internalType": "uint256",
          "name": "timestamp",
          "type": "uint256"
        }
      ],
      "name": "KYCRejected",
      "type": "event"
    },
    {
      "anonymous": false,
      "inputs": [
        {
          "indexed": true,
          "internalType": "bytes32",
          "name": "role",
          "type": "bytes32"
        },
        {
          "indexed": true,
          "internalType": "bytes32",
          "name": "previousAdminRole",
          "type": "bytes32"
        },
        {
          "indexed": true,
          "internalType": "bytes32",
          "name": "newAdminRole",
          "type": "bytes32"
        }
      ],
      "name": "RoleAdminChanged",
      "type": "event"
    },
    {
      "anonymous": false,
      "inputs": [
        {
          "indexed": true,
          "internalType": "bytes32",
          "name": "role",
          "type": "bytes32"
        },
        {
          "indexed": true,
          "internalType": "address",
          "name": "account",
          "type": "address"
        },
        {
          "indexed": true,
          "internalType": "address",
          "name": "sender",
          "type": "address"
        }
      ],
      "name": "RoleGranted",
      "type": "event"
    },
    {
      "anonymous": false,
      "inputs": [
        {
          "indexed": true,
          "internalType": "bytes32",
          "name": "role",
          "type": "bytes32"
        },
        {
          "indexed": true,
          "internalType": "address",
          "name": "account",
          "type": "address"
        },
        {
          "indexed": true,
          "internalType": "address",
          "name": "sender",
          "type": "address"
        }
      ],
      "name": "RoleRevoked",
      "type": "event"
    },
    {
      "inputs": [],
      "name": "DEFAULT_ADMIN_ROLE",
      "outputs": [
        {
          "internalType": "bytes32",
          "name": "",
          "type": "bytes32"
        }
      ],
      "stateMutability": "view",
      "type": "function"
    },
    {
      "inputs": [],
      "name": "OPERATOR_ROLE",
      "outputs": [
        {
          "internalType": "bytes32",
          "name": "",
          "type": "bytes32"
        }
      ],
      "stateMutability": "view",
      "type": "function"
    },
    {
      "inputs": [
        {
          "internalType": "address",
          "name": "user",
          "type": "address"
        },
        {
          "internalType": "enum IUserRegistry.RiskLevel",
          "name": "riskLevel",
          "type": "uint8"
        }
      ],
      "name": "approveKYC",
      "outputs": [],
      "stateMutability": "nonpayable",
      "type": "function"
    },
    {
      "inputs": [
        {
          "internalType": "uint256",
          "name": "",
          "type": "uint256"
        }
      ],
      "name": "approvedUsers",
      "outputs": [
        {
          "internalType": "address",
          "name": "",
          "type": "address"
        }
      ],
      "stateMutability": "view",
      "type": "function"
    },
    {
      "inputs": [
        {
          "internalType": "address[]",
          "name": "users",
          "type": "address[]"
        }
      ],
      "name": "batchCheckKYC",
      "outputs": [
        {
          "internalType": "bool[]",
          "name": "",
          "type": "bool[]"
        }
      ],
      "stateMutability": "view",
      "type": "function"
    },
    {
      "inputs": [],
      "name": "getApprovedUsersCount",
      "outputs": [
        {
          "internalType": "uint256",
          "name": "",
          "type": "uint256"
        }
      ],
      "stateMutability": "view",
      "type": "function"
    },
    {
      "inputs": [
        {
          "internalType": "bytes32",
          "name": "role",
          "type": "bytes32"
        }
      ],
      "name": "getRoleAdmin",
      "outputs": [
        {
          "internalType": "bytes32",
          "name": "",
          "type": "bytes32"
        }
      ],
      "stateMutability": "view",
      "type": "function"
    },
    {
      "inputs": [
        {
          "internalType": "address",
          "name": "user",
          "type": "address"
        }
      ],
      "name": "getUserProfile",
      "outputs": [
        {
          "components": [
            {
              "internalType": "address",
              "name": "userAddress",
              "type": "address"
            },
            {
              "internalType": "enum IUserRegistry.KYCStatus",
              "name": "kycStatus",
              "type": "uint8"
            },
            {
              "internalType": "uint256",
              "name": "investmentLimit",
              "type": "uint256"
            },
            {
              "internalType": "enum IUserRegistry.RiskLevel",
              "name": "riskLevel",
              "type": "uint8"
            },
            {
              "internalType": "uint256",
              "name": "kycCompletedAt",
              "type": "uint256"
            },
            {
              "internalType": "uint256",
              "name": "kycExpiresAt",
              "type": "uint256"
            }
          ],
          "internalType": "struct IUserRegistry.UserProfile",
          "name": "",
          "type": "tuple"
        }
      ],
      "stateMutability": "view",
      "type": "function"
    },
    {
      "inputs": [
        {
          "internalType": "bytes32",
          "name": "role",
          "type": "bytes32"
        },
        {
          "internalType": "address",
          "name": "account",
          "type": "address"
        }
      ],
      "name": "grantRole",
      "outputs": [],
      "stateMutability": "nonpayable",
      "type": "function"
    },
    {
      "inputs": [
        {
          "internalType": "bytes32",
          "name": "role",
          "type": "bytes32"
        },
        {
          "internalType": "address",
          "name": "account",
          "type": "address"
        }
      ],
      "name": "hasRole",
      "outputs": [
        {
          "internalType": "bool",
          "name": "",
          "type": "bool"
        }
      ],
      "stateMutability": "view",
      "type": "function"
    },
    {
      "inputs": [
        {
          "internalType": "address",
          "name": "user",
          "type": "address"
        }
      ],
      "name": "isKYCApproved",
      "outputs": [
        {
          "internalType": "bool",
          "name": "",
          "type": "bool"
        }
      ],
      "stateMutability": "view",
      "type": "function"
    },
    {
      "inputs": [
        {
          "internalType": "address",
          "name": "user",
          "type": "address"
        },
        {
          "internalType": "string",
          "name": "reason",
          "type": "string"
        }
      ],
      "name": "rejectKYC",
      "outputs": [],
      "stateMutability": "nonpayable",
      "type": "function"
    },
    {
      "inputs": [
        {
          "internalType": "bytes32",
          "name": "role",
          "type": "bytes32"
        },
        {
          "internalType": "address",
          "name": "account",
          "type": "address"
        }
      ],
      "name": "renounceRole",
      "outputs": [],
      "stateMutability": "nonpayable",
      "type": "function"
    },
    {
      "inputs": [
        {
          "internalType": "bytes32",
          "name": "role",
          "type": "bytes32"
        },
        {
          "internalType": "address",
          "name": "account",
          "type": "address"
        }
      ],
      "name": "revokeRole",
      "outputs": [],
      "stateMutability": "nonpayable",
      "type": "function"
    },
    {
      "inputs": [
        {
          "internalType": "enum IUserRegistry.RiskLevel",
          "name": "",
          "type": "uint8"
        }
      ],
      "name": "riskLimits",
      "outputs": [
        {
          "internalType": "uint256",
          "name": "",
          "type": "uint256"
        }
      ],
      "stateMutability": "view",
      "type": "function"
    },
    {
      "inputs": [
        {
          "internalType": "bytes4",
          "name": "interfaceId",
          "type": "bytes4"
        }
      ],
      "name": "supportsInterface",
      "outputs": [
        {
          "internalType": "bool",
          "name": "",
          "type": "bool"
        }
      ],
      "stateMutability": "view",
      "type": "function"
    },
    {
      "inputs": [],
      "name": "systemConfig",
      "outputs": [
        {
          "internalType": "address",
          "name": "",
          "type": "address"
        }
      ],
      "stateMutability": "view",
      "type": "function"
    },
    {
      "inputs": [
        {
          "internalType": "address",
          "name": "user",
          "type": "address"
        },
        {
          "internalType": "uint256",
          "name": "newLimit",
          "type": "uint256"
        }
      ],
      "name": "updateInvestmentLimit",
      "outputs": [],
      "stateMutability": "nonpayable",
      "type": "function"
    },
    {
      "inputs": [
        {
          "internalType": "enum IUserRegistry.RiskLevel",
          "name": "level",
          "type": "uint8"
        },
        {
          "internalType": "uint256",
          "name": "limit",
          "type": "uint256"
        }
      ],
      "name": "updateRiskLimits",
      "outputs": [],
      "stateMutability": "nonpayable",
      "type": "function"
    },
    {
      "inputs": [
        {
          "internalType": "address",
          "name": "",
          "type": "address"
        }
      ],
      "name": "userProfiles",
      "outputs": [
        {
          "internalType": "address",
          "name": "userAddress",
          "type": "address"
        },
        {
          "internalType": "enum IUserRegistry.KYCStatus",
          "name": "kycStatus",
          "type": "uint8"
        },
        {
          "internalType": "uint256",
          "name": "investmentLimit",
          "type": "uint256"
        },
        {
          "internalType": "enum IUserRegistry.RiskLevel",
          "name": "riskLevel",
          "type": "uint8"
        },
        {
          "internalType": "uint256",
          "name": "kycCompletedAt",
          "type": "uint256"
        },
        {
          "internalType": "uint256",
          "name": "kycExpiresAt",
          "type": "uint256"
        }
      ],
      "stateMutability": "view",
      "type": "function"
    },
    {
      "inputs": [
        {
          "internalType": "address",
          "name": "",
          "type": "address"
        }
      ],
      "name": "whitelistedUsers",
      "outputs": [
        {
          "internalType": "bool",
          "name": "",
          "type": "bool"
        }
      ],
      "stateMutability": "view",
      "type": "function"
    }
  ],
  "bytecode": "0x60803461018557601f6116db38819003918201601f1916830192916001600160401b0384118385101761018a578083926040958652833960209283918101031261018557516001600160a01b03811691908290036101855760059060018055600092838052838252848420338552825260ff85852054161561014f575b7f97667070c54ef182b0f5858b034beac1b6f3089aa2d3188bb1e8929f4fa9b929808552848352858520338652835260ff868620541615610117575b5060018060a01b0319600654161760065582805252690a968163f0a57b4000008282205560018152692a5a058fc295ed000000828220556002815269d3c21bcecceda10000008282205560038152818120555161151a90816101a18239f35b8085528483528585203386528352858520600160ff19825416179055339033906000805160206116bb8339815191528780a4386100b8565b8380528382528484203385528252848420600160ff198254161790553333856000805160206116bb8339815191528180a461007c565b600080fd5b634e487b7160e01b600052604160045260246000fdfe608060408181526004918236101561001657600080fd5b600092833560e01c91826301ffc9a714610e2a5750816314f58c9e14610e0c578163238b651c14610d06578163248a9ca314610cdc5781632c302bf614610c9c5781632f2ff15d14610bf3578163332d56d714610b6d57816333d7e2bd14610b4457816336568abe14610ab2578163461914af1461089e57816391d1485414610858578163987ee15614610763578163a217fddf14610748578163c607833e146106c5578163cfc4260e146104b2578163d547741f14610474578163def49d1214610282578163e77db232146101ba578163f08ab4721461018657508063f5b541a61461014c5763f621cc481461010c57600080fd5b346101485760203660031901126101485760209160ff9082906001600160a01b03610135610e7d565b1681526003855220541690519015158152f35b5080fd5b5034610148578160031936011261014857602090517f97667070c54ef182b0f5858b034beac1b6f3089aa2d3188bb1e8929f4fa9b9298152f35b8284346101b75760203660031901126101b7578235928310156101b757506101af602092610fb3565b549051908152f35b80fd5b838334610148576020366003190112610148576001600160a01b0391826101df610e7d565b16815260026020528181209260a0858451956101fa87610eae565b8054938416875261021460ff6020890195851c16856114a0565b60018101548688015261023160ff600283015416606089016114ac565b60038101546080880152015494019384525190600582101561026f57602060028314848682610264575b50519015158152f35b51421091508361025b565b634e487b7160e01b815260218552602490fd5b905082346101b757602091826003193601126101485780359367ffffffffffffffff851161047057366023860112156104705784820135936102c385610f9b565b946102d083519687610efc565b8086528186019660249788600593841b8301019136831161046c578901905b8282106104495750505085519261031d61030885610f9b565b9461031583519687610efc565b808652610f9b565b8484019790601f1901368937865b8151811015610409576001600160a01b038061034783856114d0565b511689526002808752848a2085519261035f84610eae565b815490811684528a8985019261039760ff6103808160a096871c16876114a0565b60018301548b8901528683015416606088016114ac565b600381015460808701520154930192835251868110156103f7571490816103ec575b506103c482886114d0565b901515905260001981146103da5760010161032b565b634e487b7160e01b8852601187528988fd5b90505142108b6103b9565b634e487b7160e01b8b5260218a528c8bfd5b825185815286518187018190528190818601908c90898d5b82811061043057505050500390f35b8351151585528695509381019392810192600101610421565b81356001600160a01b03811681036104685781529084019084016102ef565b8880fd5b8780fd5b8280fd5b919050346104705780600319360112610470576104af91356104aa6001610499610e98565b9383875286602052862001546111ba565b61130c565b80f35b8383346101485780600319360112610148576104cc610e7d565b90602435848110156106c1576104e0610fcc565b6001600160a01b03928316808552600260209081528386208054929591928216156105f4575b805460ff60a01b1916600160a11b17815561052484600283016114b8565b61052d84610fb3565b5460018201554260038201556301e133804201908142116105e15788015584865260038252838620805460ff191660011790558654680100000000000000008110156105ce57807f9079dc8f9700d1841ae1ec3159a55a39e7b6d750355bf358bb9ebeda18e7760296979860016105a693019055610f1e565b819291549060031b9188831b921b19161790556105c583518093610f8e565b4290820152a280f35b634e487b7160e01b875260418852602487fd5b634e487b7160e01b885260118952602488fd5b600187526005835284872054868887519261060e84610eae565b82845286840190828252898501908152606085019160018352878b608088019580875260a0890197818952815260028c52209651168654915160058110156106ad576001600160a81b03199092161760a09190911b60ff60a01b16178555516001850155518b81101561069a579061068b8c9392600286016114b8565b51600384015551910155610506565b634e487b7160e01b8b5260218c5260248bfd5b8f8f6021602492634e487b7160e01b835252fd5b8380fd5b9050346104705781600319360112610470576106df610e7d565b602435916106eb610fcc565b821561073a57506001600160a01b0316808452600260209081528385206001018390559251918252917f82f391d970a8c4e614f3675d2f35d90f3e59dd680154f0873a3ff08a161fa28691a280f35b835163e55fb50960e01b8152fd5b50503461014857816003193601126101485751908152602090f35b905034610470576020366003190112610470579160c09261084a83610786610e7d565b938060a0835161079581610eae565b8281528260208201528285820152826060820152826080820152015260018060a01b038095168152600260205220918451946107d086610eae565b835485811687526107eb60ff602089019260a01c16826114a0565b61083a60018601549183890192835260ff6002880154169461081160608b0196876114ac565b60038801549760808b0198895201549760a08a0198895284519951168952516020890190610f6b565b5190860152516060850190610f8e565b5160808301525160a0820152f35b9050346104705781600319360112610470578160209360ff92610879610e98565b903582528186528282206001600160a01b039091168252855220549151911615158152f35b91905034610470578060031936011261047057813591808310156106c157838052602091848352808520338652835260ff8186205416156108ec575050506108e860243591610fb3565b5580f35b846108f633611391565b908083519061090482610ee0565b60428252868201926060368537825115610a9f5760308453825190600191821015610a8c5790607860218501536041915b818311610a21575050506109e05760486109b39385936109c2936109dc975196879376020b1b1b2b9b9a1b7b73a3937b61d1030b1b1b7bab73a1604d1b8c86015261098a8c82519283916037890191016112c4565b8401917001034b99036b4b9b9b4b733903937b6329607d1b6037840152518093868401906112c4565b01036028810185520183610efc565b5193849362461bcd60e51b855284015260248301906112e7565b0390fd5b606485878087519262461bcd60e51b845283015260248201527f537472696e67733a20686578206c656e67746820696e73756666696369656e746044820152fd5b909192600f81166010811015610a79576f181899199a1a9b1b9c1cb0b131b232b360811b901a610a518587611380565b53881c928015610a6657600019019190610935565b634e487b7160e01b825260118952602482fd5b634e487b7160e01b835260328a52602483fd5b634e487b7160e01b815260328852602490fd5b634e487b7160e01b815260328752602490fd5b83915034610148578260031936011261014857610acd610e98565b90336001600160a01b03831603610ae957906104af913561130c565b608490602085519162461bcd60e51b8352820152602f60248201527f416363657373436f6e74726f6c3a2063616e206f6e6c792072656e6f756e636560448201526e103937b632b9903337b91039b2b63360891b6064820152fd5b50503461014857816003193601126101485760065490516001600160a01b039091168152602090f35b8383346101485760203660031901126101485760c0926001600160a01b0392610be790839085610b9b610e7d565b16815260026020522091825493600184015490610bda60ff600287015416936003870154960154968251988116895260ff60208a019160a01c16610f6b565b8601526060850190610f8e565b608083015260a0820152f35b9050346104705781600319360112610470573590610c0f610e98565b9082845283602052610c26600182862001546111ba565b82845260208481528185206001600160a01b039093168086529290528084205460ff1615610c52578380f35b828452836020528084208285526020528320600160ff1982541617905533917f2f8788117e7eff1d82e926ec794901d17c78024a50270940304540a733656f0d8480a43880808380f35b8284346101b75760203660031901126101b757823592548310156101b75750610cc6602092610f1e565b905491519160018060a01b039160031b1c168152f35b90503461047057602036600319011261047057816020936001923581528085522001549051908152f35b905034610470578160031936011261047057610d20610e7d565b6024359067ffffffffffffffff92838311610e085736602384011215610e085782810135938411610df5575084845192610d646020601f19601f8801160185610efc565b848452366024868301011161014857847f62def9457b5fed66536492a8710dfdb58bc3152da6d752c5a3d5e56718505247956024602093018387013784010152610dac610fcc565b6001600160a01b03168085526002602052838520805460ff60a01b1916600360a01b1790558351848152909390918291610de991908301906112e7565b4260208301520390a280f35b634e487b7160e01b865260419052602485fd5b8580fd5b90503461047057826003193601126104705760209250549051908152f35b849134610470576020366003190112610470573563ffffffff60e01b81168091036104705760209250637965db0b60e01b8114908115610e6c575b5015158152f35b6301ffc9a760e01b14905083610e65565b600435906001600160a01b0382168203610e9357565b600080fd5b602435906001600160a01b0382168203610e9357565b60c0810190811067ffffffffffffffff821117610eca57604052565b634e487b7160e01b600052604160045260246000fd5b6080810190811067ffffffffffffffff821117610eca57604052565b90601f8019910116810190811067ffffffffffffffff821117610eca57604052565b600454811015610f555760046000527f8a35acfbc15ff81a39ae7d344fd709f28e8600b4aa8c65c6b64bfe7fe36bd19b0190600090565b634e487b7160e01b600052603260045260246000fd5b906005821015610f785752565b634e487b7160e01b600052602160045260246000fd5b906004821015610f785752565b67ffffffffffffffff8111610eca5760051b60200190565b6004811015610f78576000526005602052604060002090565b3360009081527fee57cd81e84075558e8fcc182a1f4393f91fc97f963a136e66b7f949a62f319f602090815260408083205490927f97667070c54ef182b0f5858b034beac1b6f3089aa2d3188bb1e8929f4fa9b9299160ff16156110305750505050565b61103933611391565b9184519061104682610ee0565b604282528482019260603685378251156111a657603084538251906001918210156111a65790607860218501536041915b818311611138575050506110f65760486109dc9386936110da936110cb985198899376020b1b1b2b9b9a1b7b73a3937b61d1030b1b1b7bab73a1604d1b8a86015261098a815180928c6037890191016112c4565b01036028810187520185610efc565b5192839262461bcd60e51b8452600484015260248301906112e7565b60648486519062461bcd60e51b825280600483015260248201527f537472696e67733a20686578206c656e67746820696e73756666696369656e746044820152fd5b909192600f81166010811015611192576f181899199a1a9b1b9c1cb0b131b232b360811b901a6111688587611380565b5360041c92801561117e57600019019190611077565b634e487b7160e01b82526011600452602482fd5b634e487b7160e01b83526032600452602483fd5b634e487b7160e01b81526032600452602490fd5b600090808252602090828252604092838120338252835260ff8482205416156111e35750505050565b6111ec33611391565b918451906111f982610ee0565b604282528482019260603685378251156111a657603084538251906001918210156111a65790607860218501536041915b81831161127e575050506110f65760486109dc9386936110da936110cb985198899376020b1b1b2b9b9a1b7b73a3937b61d1030b1b1b7bab73a1604d1b8a86015261098a815180928c6037890191016112c4565b909192600f81166010811015611192576f181899199a1a9b1b9c1cb0b131b232b360811b901a6112ae8587611380565b5360041c92801561117e5760001901919061122a565b60005b8381106112d75750506000910152565b81810151838201526020016112c7565b90602091611300815180928185528580860191016112c4565b601f01601f1916010190565b9060009180835282602052604083209160018060a01b03169182845260205260ff60408420541661133c57505050565b80835282602052604083208284526020526040832060ff1981541690557ff6391f5c32d9c69d2a47ea670b442974b53935d1edc7fd64eb21e047a839171b339380a4565b908151811015610f55570160200190565b604051906060820182811067ffffffffffffffff821117610eca57604052602a8252602082016040368237825115610f5557603090538151600190811015610f5557607860218401536029905b8082116114325750506113ee5790565b606460405162461bcd60e51b815260206004820152602060248201527f537472696e67733a20686578206c656e67746820696e73756666696369656e746044820152fd5b9091600f8116601081101561148b576f181899199a1a9b1b9c1cb0b131b232b360811b901a6114618486611380565b5360041c9180156114765760001901906113de565b60246000634e487b7160e01b81526011600452fd5b60246000634e487b7160e01b81526032600452fd5b6005821015610f785752565b6004821015610f785752565b906004811015610f785760ff80198354169116179055565b8051821015610f555760209160051b01019056fea2646970667358221220ce83afc2e95885943cff685e2c72a24931fb06c154ab23d22710ff517e58ddef64736f6c634300081300332f8788117e7eff1d82e926ec794901d17c78024a50270940304540a733656f0d",
  "linkReferences": {},
  "deployedLinkReferences": {}
}