{
  "_format": "hh-sol-artifact-1",
  "contractName": "UserRegistry",
  "sourceName": "contracts/UserRegistry.sol",
  "abi": [
    {
      "inputs": [
        {
          "internalType": "address",
          "name": "_systemConfig",
          "type": "address"
        }
      ],
      "stateMutability": "nonpayable",
      "type": "constructor"
    },
    {
      "anonymous": false,
      "inputs": [
        {
          "indexed": true,
          "internalType": "address",
          "name": "user",
          "type": "address"
        },
        {
          "indexed": false,
          "internalType": "uint256",
          "name": "newLimit",
          "type": "uint256"
        }
      ],
      "name": "InvestmentLimitUpdated",
      "type": "event"
    },
    {
      "anonymous": false,
      "inputs": [
        {
          "indexed": true,
          "internalType": "address",
          "name": "user",
          "type": "address"
        },
        {
          "indexed": false,
          "internalType": "enum IUserRegistry.RiskLevel",
          "name": "riskLevel",
          "type": "uint8"
        },
        {
          "indexed": false,
          "internalType": "uint256",
          "name": "timestamp",
          "type": "uint256"
        }
      ],
      "name": "KYCApproved",
      "type": "event"
    },
    {
      "anonymous": false,
      "inputs": [
        {
          "indexed": true,
          "internalType": "address",
          "name": "user",
          "type": "address"
        },
        {
          "indexed": false,
          "internalType": "string",
          "name": "reason",
          "type": "string"
        },
        {
          "indexed": false,
          "internalType": "uint256",
          "name": "timestamp",
          "type": "uint256"
        }
      ],
      "name": "KYCRejected",
      "type": "event"
    },
    {
      "anonymous": false,
      "inputs": [
        {
          "indexed": true,
          "internalType": "bytes32",
          "name": "role",
          "type": "bytes32"
        },
        {
          "indexed": true,
          "internalType": "bytes32",
          "name": "previousAdminRole",
          "type": "bytes32"
        },
        {
          "indexed": true,
          "internalType": "bytes32",
          "name": "newAdminRole",
          "type": "bytes32"
        }
      ],
      "name": "RoleAdminChanged",
      "type": "event"
    },
    {
      "anonymous": false,
      "inputs": [
        {
          "indexed": true,
          "internalType": "bytes32",
          "name": "role",
          "type": "bytes32"
        },
        {
          "indexed": true,
          "internalType": "address",
          "name": "account",
          "type": "address"
        },
        {
          "indexed": true,
          "internalType": "address",
          "name": "sender",
          "type": "address"
        }
      ],
      "name": "RoleGranted",
      "type": "event"
    },
    {
      "anonymous": false,
      "inputs": [
        {
          "indexed": true,
          "internalType": "bytes32",
          "name": "role",
          "type": "bytes32"
        },
        {
          "indexed": true,
          "internalType": "address",
          "name": "account",
          "type": "address"
        },
        {
          "indexed": true,
          "internalType": "address",
          "name": "sender",
          "type": "address"
        }
      ],
      "name": "RoleRevoked",
      "type": "event"
    },
    {
      "inputs": [],
      "name": "DEFAULT_ADMIN_ROLE",
      "outputs": [
        {
          "internalType": "bytes32",
          "name": "",
          "type": "bytes32"
        }
      ],
      "stateMutability": "view",
      "type": "function"
    },
    {
      "inputs": [],
      "name": "OPERATOR_ROLE",
      "outputs": [
        {
          "internalType": "bytes32",
          "name": "",
          "type": "bytes32"
        }
      ],
      "stateMutability": "view",
      "type": "function"
    },
    {
      "inputs": [
        {
          "internalType": "address",
          "name": "user",
          "type": "address"
        },
        {
          "internalType": "enum IUserRegistry.RiskLevel",
          "name": "riskLevel",
          "type": "uint8"
        }
      ],
      "name": "approveKYC",
      "outputs": [],
      "stateMutability": "nonpayable",
      "type": "function"
    },
    {
      "inputs": [
        {
          "internalType": "uint256",
          "name": "",
          "type": "uint256"
        }
      ],
      "name": "approvedUsers",
      "outputs": [
        {
          "internalType": "address",
          "name": "",
          "type": "address"
        }
      ],
      "stateMutability": "view",
      "type": "function"
    },
    {
      "inputs": [
        {
          "internalType": "address[]",
          "name": "users",
          "type": "address[]"
        }
      ],
      "name": "batchCheckKYC",
      "outputs": [
        {
          "internalType": "bool[]",
          "name": "",
          "type": "bool[]"
        }
      ],
      "stateMutability": "view",
      "type": "function"
    },
    {
      "inputs": [],
      "name": "getApprovedUsersCount",
      "outputs": [
        {
          "internalType": "uint256",
          "name": "",
          "type": "uint256"
        }
      ],
      "stateMutability": "view",
      "type": "function"
    },
    {
      "inputs": [
        {
          "internalType": "bytes32",
          "name": "role",
          "type": "bytes32"
        }
      ],
      "name": "getRoleAdmin",
      "outputs": [
        {
          "internalType": "bytes32",
          "name": "",
          "type": "bytes32"
        }
      ],
      "stateMutability": "view",
      "type": "function"
    },
    {
      "inputs": [
        {
          "internalType": "address",
          "name": "user",
          "type": "address"
        }
      ],
      "name": "getUserProfile",
      "outputs": [
        {
          "components": [
            {
              "internalType": "address",
              "name": "userAddress",
              "type": "address"
            },
            {
              "internalType": "enum IUserRegistry.KYCStatus",
              "name": "kycStatus",
              "type": "uint8"
            },
            {
              "internalType": "uint256",
              "name": "investmentLimit",
              "type": "uint256"
            },
            {
              "internalType": "enum IUserRegistry.RiskLevel",
              "name": "riskLevel",
              "type": "uint8"
            },
            {
              "internalType": "uint256",
              "name": "kycCompletedAt",
              "type": "uint256"
            },
            {
              "internalType": "uint256",
              "name": "kycExpiresAt",
              "type": "uint256"
            }
          ],
          "internalType": "struct IUserRegistry.UserProfile",
          "name": "",
          "type": "tuple"
        }
      ],
      "stateMutability": "view",
      "type": "function"
    },
    {
      "inputs": [
        {
          "internalType": "bytes32",
          "name": "role",
          "type": "bytes32"
        },
        {
          "internalType": "address",
          "name": "account",
          "type": "address"
        }
      ],
      "name": "grantRole",
      "outputs": [],
      "stateMutability": "nonpayable",
      "type": "function"
    },
    {
      "inputs": [
        {
          "internalType": "bytes32",
          "name": "role",
          "type": "bytes32"
        },
        {
          "internalType": "address",
          "name": "account",
          "type": "address"
        }
      ],
      "name": "hasRole",
      "outputs": [
        {
          "internalType": "bool",
          "name": "",
          "type": "bool"
        }
      ],
      "stateMutability": "view",
      "type": "function"
    },
    {
      "inputs": [
        {
          "internalType": "address",
          "name": "user",
          "type": "address"
        }
      ],
      "name": "isKYCApproved",
      "outputs": [
        {
          "internalType": "bool",
          "name": "",
          "type": "bool"
        }
      ],
      "stateMutability": "view",
      "type": "function"
    },
    {
      "inputs": [
        {
          "internalType": "address",
          "name": "user",
          "type": "address"
        },
        {
          "internalType": "string",
          "name": "reason",
          "type": "string"
        }
      ],
      "name": "rejectKYC",
      "outputs": [],
      "stateMutability": "nonpayable",
      "type": "function"
    },
    {
      "inputs": [
        {
          "internalType": "bytes32",
          "name": "role",
          "type": "bytes32"
        },
        {
          "internalType": "address",
          "name": "account",
          "type": "address"
        }
      ],
      "name": "renounceRole",
      "outputs": [],
      "stateMutability": "nonpayable",
      "type": "function"
    },
    {
      "inputs": [
        {
          "internalType": "bytes32",
          "name": "role",
          "type": "bytes32"
        },
        {
          "internalType": "address",
          "name": "account",
          "type": "address"
        }
      ],
      "name": "revokeRole",
      "outputs": [],
      "stateMutability": "nonpayable",
      "type": "function"
    },
    {
      "inputs": [
        {
          "internalType": "enum IUserRegistry.RiskLevel",
          "name": "",
          "type": "uint8"
        }
      ],
      "name": "riskLimits",
      "outputs": [
        {
          "internalType": "uint256",
          "name": "",
          "type": "uint256"
        }
      ],
      "stateMutability": "view",
      "type": "function"
    },
    {
      "inputs": [
        {
          "internalType": "bytes4",
          "name": "interfaceId",
          "type": "bytes4"
        }
      ],
      "name": "supportsInterface",
      "outputs": [
        {
          "internalType": "bool",
          "name": "",
          "type": "bool"
        }
      ],
      "stateMutability": "view",
      "type": "function"
    },
    {
      "inputs": [],
      "name": "systemConfig",
      "outputs": [
        {
          "internalType": "address",
          "name": "",
          "type": "address"
        }
      ],
      "stateMutability": "view",
      "type": "function"
    },
    {
      "inputs": [
        {
          "internalType": "address",
          "name": "user",
          "type": "address"
        },
        {
          "internalType": "uint256",
          "name": "newLimit",
          "type": "uint256"
        }
      ],
      "name": "updateInvestmentLimit",
      "outputs": [],
      "stateMutability": "nonpayable",
      "type": "function"
    },
    {
      "inputs": [
        {
          "internalType": "enum IUserRegistry.RiskLevel",
          "name": "level",
          "type": "uint8"
        },
        {
          "internalType": "uint256",
          "name": "limit",
          "type": "uint256"
        }
      ],
      "name": "updateRiskLimits",
      "outputs": [],
      "stateMutability": "nonpayable",
      "type": "function"
    },
    {
      "inputs": [
        {
          "internalType": "address",
          "name": "",
          "type": "address"
        }
      ],
      "name": "userProfiles",
      "outputs": [
        {
          "internalType": "address",
          "name": "userAddress",
          "type": "address"
        },
        {
          "internalType": "enum IUserRegistry.KYCStatus",
          "name": "kycStatus",
          "type": "uint8"
        },
        {
          "internalType": "uint256",
          "name": "investmentLimit",
          "type": "uint256"
        },
        {
          "internalType": "enum IUserRegistry.RiskLevel",
          "name": "riskLevel",
          "type": "uint8"
        },
        {
          "internalType": "uint256",
          "name": "kycCompletedAt",
          "type": "uint256"
        },
        {
          "internalType": "uint256",
          "name": "kycExpiresAt",
          "type": "uint256"
        }
      ],
      "stateMutability": "view",
      "type": "function"
    },
    {
      "inputs": [
        {
          "internalType": "address",
          "name": "",
          "type": "address"
        }
      ],
      "name": "whitelistedUsers",
      "outputs": [
        {
          "internalType": "bool",
          "name": "",
          "type": "bool"
        }
      ],
      "stateMutability": "view",
      "type": "function"
    }
  ],
  "bytecode": "0x60806040523480156200001157600080fd5b506040516200174e3803806200174e8339810160408190526200003491620001ed565b60018055620000456000336200014c565b620000717f97667070c54ef182b0f5858b034beac1b6f3089aa2d3188bb1e8929f4fa9b929336200014c565b600680546001600160a01b0319166001600160a01b03929092169190911790556005602052690a968163f0a57b4000007f05b8ccbb9d4d8fb16ea74ce3c29a41f1b461fbdaff4714a0d9a8eb05499746bc55692a5a058fc295ed0000007f1471eb6eb2c5e789fc3de43f8ce62938c7d1836ec861730447e2ada8fd81017b5569d3c21bcecceda10000007f89832631fb3c3307a103ba2c84ab569c64d6182a18893dcd163f0f1c2090733a55600360009081527fa9bc9a3a348c357ba16b37005d7e6b3236198c0e939f4af8c5f19b8deeb8ebc0556200021f565b6000828152602081815260408083206001600160a01b038516845290915290205460ff16620001e9576000828152602081815260408083206001600160a01b03851684529091529020805460ff19166001179055620001a83390565b6001600160a01b0316816001600160a01b0316837f2f8788117e7eff1d82e926ec794901d17c78024a50270940304540a733656f0d60405160405180910390a45b5050565b6000602082840312156200020057600080fd5b81516001600160a01b03811681146200021857600080fd5b9392505050565b61151f806200022f6000396000f3fe608060405234801561001057600080fd5b50600436106101375760003560e01c806391d14854116100b8578063d547741f1161007c578063d547741f146102ed578063def49d1214610300578063e77db23214610320578063f08ab47214610333578063f5b541a614610353578063f621cc481461036857600080fd5b806391d148541461028c578063987ee1561461029f578063a217fddf146102bf578063c607833e146102c7578063cfc4260e146102da57600080fd5b80632f2ff15d116100ff5780632f2ff15d146101d9578063332d56d7146101ec57806333d7e2bd1461025357806336568abe14610266578063461914af1461027957600080fd5b806301ffc9a71461013c57806314f58c9e14610164578063238b651c14610176578063248a9ca31461018b5780632c302bf6146101ae575b600080fd5b61014f61014a366004610f34565b61038b565b60405190151581526020015b60405180910390f35b6004545b60405190815260200161015b565b610189610184366004610fc1565b6103c2565b005b610168610199366004611067565b60009081526020819052604090206001015490565b6101c16101bc366004611067565b610447565b6040516001600160a01b03909116815260200161015b565b6101896101e7366004611080565b610471565b6102416101fa3660046110ac565b6002602081905260009182526040909120805460018201549282015460038301546004909301546001600160a01b03831694600160a01b90930460ff908116949216919086565b60405161015b96959493929190611101565b6006546101c1906001600160a01b031681565b610189610274366004611080565b61049b565b610189610287366004611154565b61051e565b61014f61029a366004611080565b610567565b6102b26102ad3660046110ac565b610590565b60405161015b919061117e565b610168600081565b6101896102d53660046111da565b610682565b6101896102e83660046111f6565b610737565b6101896102fb366004611080565b61099a565b61031361030e366004611220565b6109bf565b60405161015b91906112cd565b61014f61032e3660046110ac565b610b51565b610168610341366004611313565b60056020526000908152604090205481565b6101686000805160206114ca83398151915281565b61014f6103763660046110ac565b60036020526000908152604090205460ff1681565b60006001600160e01b03198216637965db0b60e01b14806103bc57506301ffc9a760e01b6001600160e01b03198316145b92915050565b6000805160206114ca8339815191526103da81610c37565b6001600160a01b03831660008181526002602052604090819020805460ff60a01b1916600360a01b17815590519091907f62def9457b5fed66536492a8710dfdb58bc3152da6d752c5a3d5e5671850524790610439908690429061137e565b60405180910390a250505050565b6004818154811061045757600080fd5b6000918252602090912001546001600160a01b0316905081565b60008281526020819052604090206001015461048c81610c37565b6104968383610c44565b505050565b6001600160a01b03811633146105105760405162461bcd60e51b815260206004820152602f60248201527f416363657373436f6e74726f6c3a2063616e206f6e6c792072656e6f756e636560448201526e103937b632b9903337b91039b2b63360891b60648201526084015b60405180910390fd5b61051a8282610cc8565b5050565b600061052981610c37565b8160056000856003811115610540576105406110c7565b6003811115610551576105516110c7565b8152602081019190915260400160002055505050565b6000918252602082815260408084206001600160a01b0393909316845291905290205460ff1690565b6105c96040805160c081018252600080825260208201819052918101829052906060820190815260200160008152602001600081525090565b6001600160a01b03828116600090815260026020908152604091829020825160c0810190935280549384168352919290830190600160a01b900460ff166004811115610617576106176110c7565b6004811115610628576106286110c7565b815260018201546020820152600282015460409091019060ff166003811115610653576106536110c7565b6003811115610664576106646110c7565b81526003820154602082015260049091015460409091015292915050565b6000805160206114ca83398151915261069a81610c37565b600082116106da5760405162461bcd60e51b815260206004820152600d60248201526c125b9d985b1a59081b1a5b5a5d609a1b6044820152606401610507565b6001600160a01b03831660008181526002602052604090819020600101849055517f82f391d970a8c4e614f3675d2f35d90f3e59dd680154f0873a3ff08a161fa2869061072a9085815260200190565b60405180910390a2505050565b6000805160206114ca83398151915261074f81610c37565b6001600160a01b0380841660009081526002602052604090208054909116610870576040805160c0810182526001600160a01b03868116808352600060208085018281527f1471eb6eb2c5e789fc3de43f8ce62938c7d1836ec861730447e2ada8fd81017b5486880152600160608701526080860183905260a0860183905292825260029052939093208251815492166001600160a01b03198316811782559351929390929183916001600160a81b031990911617600160a01b83600481111561081b5761081b6110c7565b02179055506040820151816001015560608201518160020160006101000a81548160ff02191690836003811115610854576108546110c7565b02179055506080820151600382015560a0909101516004909101555b805460ff60a01b1916600160a11b17815560028101805484919060ff191660018360038111156108a2576108a26110c7565b0217905550600560008460038111156108bd576108bd6110c7565b60038111156108ce576108ce6110c7565b8152602081019190915260400160002054600182015542600382018190556108fa906301e133806113b6565b6004808301919091556001600160a01b038516600081815260036020526040808220805460ff1916600190811790915584549081018555939091527f8a35acfbc15ff81a39ae7d344fd709f28e8600b4aa8c65c6b64bfe7fe36bd19b90920180546001600160a01b0319168217905590517f9079dc8f9700d1841ae1ec3159a55a39e7b6d750355bf358bb9ebeda18e776029061043990869042906113c9565b6000828152602081905260409020600101546109b581610c37565b6104968383610cc8565b60606000825167ffffffffffffffff8111156109dd576109dd610f7a565b604051908082528060200260200182016040528015610a06578160200160208202803683370190505b50905060005b8351811015610b4a57600060026000868481518110610a2d57610a2d6113e4565b6020908102919091018101516001600160a01b039081168352828201939093526040918201600020825160c0810190935280549384168352919290830190600160a01b900460ff166004811115610a8657610a866110c7565b6004811115610a9757610a976110c7565b815260018201546020820152600282015460409091019060ff166003811115610ac257610ac26110c7565b6003811115610ad357610ad36110c7565b8152600382015460208201526004909101546040909101529050600281602001516004811115610b0557610b056110c7565b148015610b155750428160a00151115b838381518110610b2757610b276113e4565b911515602092830291909101909101525080610b42816113fa565b915050610a0c565b5092915050565b6001600160a01b038181166000908152600260209081526040808320815160c0810190925280549485168252929384939192830190600160a01b900460ff166004811115610ba157610ba16110c7565b6004811115610bb257610bb26110c7565b815260018201546020820152600282015460409091019060ff166003811115610bdd57610bdd6110c7565b6003811115610bee57610bee6110c7565b8152600382015460208201526004909101546040909101529050600281602001516004811115610c2057610c206110c7565b148015610c305750428160a00151115b9392505050565b610c418133610d2d565b50565b610c4e8282610567565b61051a576000828152602081815260408083206001600160a01b03851684529091529020805460ff19166001179055610c843390565b6001600160a01b0316816001600160a01b0316837f2f8788117e7eff1d82e926ec794901d17c78024a50270940304540a733656f0d60405160405180910390a45050565b610cd28282610567565b1561051a576000828152602081815260408083206001600160a01b0385168085529252808320805460ff1916905551339285917ff6391f5c32d9c69d2a47ea670b442974b53935d1edc7fd64eb21e047a839171b9190a45050565b610d378282610567565b61051a57610d4481610d86565b610d4f836020610d98565b604051602001610d60929190611413565b60408051601f198184030181529082905262461bcd60e51b825261050791600401611488565b60606103bc6001600160a01b03831660145b60606000610da783600261149b565b610db29060026113b6565b67ffffffffffffffff811115610dca57610dca610f7a565b6040519080825280601f01601f191660200182016040528015610df4576020820181803683370190505b509050600360fc1b81600081518110610e0f57610e0f6113e4565b60200101906001600160f81b031916908160001a905350600f60fb1b81600181518110610e3e57610e3e6113e4565b60200101906001600160f81b031916908160001a9053506000610e6284600261149b565b610e6d9060016113b6565b90505b6001811115610ee5576f181899199a1a9b1b9c1cb0b131b232b360811b85600f1660108110610ea157610ea16113e4565b1a60f81b828281518110610eb757610eb76113e4565b60200101906001600160f81b031916908160001a90535060049490941c93610ede816114b2565b9050610e70565b508315610c305760405162461bcd60e51b815260206004820181905260248201527f537472696e67733a20686578206c656e67746820696e73756666696369656e746044820152606401610507565b600060208284031215610f4657600080fd5b81356001600160e01b031981168114610c3057600080fd5b80356001600160a01b0381168114610f7557600080fd5b919050565b634e487b7160e01b600052604160045260246000fd5b604051601f8201601f1916810167ffffffffffffffff81118282101715610fb957610fb9610f7a565b604052919050565b60008060408385031215610fd457600080fd5b610fdd83610f5e565b915060208084013567ffffffffffffffff80821115610ffb57600080fd5b818601915086601f83011261100f57600080fd5b81358181111561102157611021610f7a565b611033601f8201601f19168501610f90565b9150808252878482850101111561104957600080fd5b80848401858401376000848284010152508093505050509250929050565b60006020828403121561107957600080fd5b5035919050565b6000806040838503121561109357600080fd5b823591506110a360208401610f5e565b90509250929050565b6000602082840312156110be57600080fd5b610c3082610f5e565b634e487b7160e01b600052602160045260246000fd5b600581106110ed576110ed6110c7565b9052565b600481106110ed576110ed6110c7565b6001600160a01b038716815260c0810161111e60208301886110dd565b85604083015261113160608301866110f1565b608082019390935260a00152949350505050565b803560048110610f7557600080fd5b6000806040838503121561116757600080fd5b61117083611145565b946020939093013593505050565b81516001600160a01b0316815260208083015160c08301916111a2908401826110dd565b506040830151604083015260608301516111bf60608401826110f1565b506080830151608083015260a083015160a083015292915050565b600080604083850312156111ed57600080fd5b61117083610f5e565b6000806040838503121561120957600080fd5b61121283610f5e565b91506110a360208401611145565b6000602080838503121561123357600080fd5b823567ffffffffffffffff8082111561124b57600080fd5b818501915085601f83011261125f57600080fd5b81358181111561127157611271610f7a565b8060051b9150611282848301610f90565b818152918301840191848101908884111561129c57600080fd5b938501935b838510156112c1576112b285610f5e565b825293850193908501906112a1565b98975050505050505050565b6020808252825182820181905260009190848201906040850190845b818110156113075783511515835292840192918401916001016112e9565b50909695505050505050565b60006020828403121561132557600080fd5b610c3082611145565b60005b83811015611349578181015183820152602001611331565b50506000910152565b6000815180845261136a81602086016020860161132e565b601f01601f19169290920160200192915050565b6040815260006113916040830185611352565b90508260208301529392505050565b634e487b7160e01b600052601160045260246000fd5b808201808211156103bc576103bc6113a0565b604081016113d782856110f1565b8260208301529392505050565b634e487b7160e01b600052603260045260246000fd5b60006001820161140c5761140c6113a0565b5060010190565b7f416363657373436f6e74726f6c3a206163636f756e742000000000000000000081526000835161144b81601785016020880161132e565b7001034b99036b4b9b9b4b733903937b6329607d1b601791840191820152835161147c81602884016020880161132e565b01602801949350505050565b602081526000610c306020830184611352565b80820281158282048414176103bc576103bc6113a0565b6000816114c1576114c16113a0565b50600019019056fe97667070c54ef182b0f5858b034beac1b6f3089aa2d3188bb1e8929f4fa9b929a2646970667358221220e857731747a9a9e5bdbe7f8b6e356ad1aab6b381c9c6ebce5b3d6934bf9f4b0964736f6c63430008130033",
  "linkReferences": {},
  "deployedLinkReferences": {}
}