{
  "_format": "hh-sol-artifact-1",
  "contractName": "PropertyTokenFactory",
  "sourceName": "contracts/PropertyTokenFactory.sol",
  "abi": [
    {
      "inputs": [
        {
          "internalType": "address",
          "name": "_userRegistry",
          "type": "address"
        },
        {
          "internalType": "address",
          "name": "_systemConfig",
          "type": "address"
        }
      ],
      "stateMutability": "nonpayable",
      "type": "constructor"
    },
    {
      "inputs": [
        {
          "internalType": "uint256",
          "name": "available",
          "type": "uint256"
        },
        {
          "internalType": "uint256",
          "name": "requested",
          "type": "uint256"
        }
      ],
      "name": "InsufficientTokenBalance",
      "type": "error"
    },
    {
      "inputs": [],
      "name": "InvalidAmount",
      "type": "error"
    },
    {
      "inputs": [],
      "name": "InvalidCountryCode",
      "type": "error"
    },
    {
      "inputs": [
        {
          "internalType": "uint8",
          "name": "digit",
          "type": "uint8"
        }
      ],
      "name": "InvalidDigit",
      "type": "error"
    },
    {
      "inputs": [
        {
          "internalType": "uint256",
          "name": "length",
          "type": "uint256"
        },
        {
          "internalType": "uint256",
          "name": "expectedLength",
          "type": "uint256"
        }
      ],
      "name": "InvalidPropertyCodeLength",
      "type": "error"
    },
    {
      "inputs": [],
      "name": "InvalidRecipientAddress",
      "type": "error"
    },
    {
      "inputs": [
        {
          "internalType": "uint256",
          "name": "length",
          "type": "uint256"
        },
        {
          "internalType": "uint256",
          "name": "expectedLength",
          "type": "uint256"
        }
      ],
      "name": "InvalidServerIdLength",
      "type": "error"
    },
    {
      "inputs": [
        {
          "internalType": "enum PropertyTokenFactory.PropertyStatus",
          "name": "from",
          "type": "uint8"
        },
        {
          "internalType": "enum PropertyTokenFactory.PropertyStatus",
          "name": "to",
          "type": "uint8"
        }
      ],
      "name": "InvalidStatusTransition",
      "type": "error"
    },
    {
      "inputs": [],
      "name": "InvalidTokenAddress",
      "type": "error"
    },
    {
      "inputs": [
        {
          "internalType": "string",
          "name": "propertyCode",
          "type": "string"
        }
      ],
      "name": "PropertyCodeAlreadyUsed",
      "type": "error"
    },
    {
      "inputs": [],
      "name": "ServerIdMustBe10Characters",
      "type": "error"
    },
    {
      "inputs": [
        {
          "internalType": "uint256",
          "name": "supply",
          "type": "uint256"
        },
        {
          "internalType": "uint256",
          "name": "maxSupply",
          "type": "uint256"
        }
      ],
      "name": "TokenSupplyTooLarge",
      "type": "error"
    },
    {
      "inputs": [],
      "name": "TokenSupplyZero",
      "type": "error"
    },
    {
      "inputs": [
        {
          "internalType": "uint256",
          "name": "valuation",
          "type": "uint256"
        },
        {
          "internalType": "uint256",
          "name": "maxValuation",
          "type": "uint256"
        }
      ],
      "name": "ValuationTooHigh",
      "type": "error"
    },
    {
      "inputs": [
        {
          "internalType": "uint256",
          "name": "valuation",
          "type": "uint256"
        },
        {
          "internalType": "uint256",
          "name": "minValuation",
          "type": "uint256"
        }
      ],
      "name": "ValuationTooLow",
      "type": "error"
    },
    {
      "anonymous": false,
      "inputs": [
        {
          "indexed": true,
          "internalType": "address",
          "name": "tokenAddress",
          "type": "address"
        },
        {
          "indexed": true,
          "internalType": "address",
          "name": "to",
          "type": "address"
        },
        {
          "indexed": false,
          "internalType": "uint256",
          "name": "amount",
          "type": "uint256"
        },
        {
          "indexed": true,
          "internalType": "address",
          "name": "operator",
          "type": "address"
        }
      ],
      "name": "ERC20Withdrawn",
      "type": "event"
    },
    {
      "anonymous": false,
      "inputs": [
        {
          "indexed": true,
          "internalType": "string",
          "name": "serverId",
          "type": "string"
        },
        {
          "indexed": false,
          "internalType": "enum PropertyTokenFactory.PropertyStatus",
          "name": "oldStatus",
          "type": "uint8"
        },
        {
          "indexed": false,
          "internalType": "enum PropertyTokenFactory.PropertyStatus",
          "name": "newStatus",
          "type": "uint8"
        }
      ],
      "name": "PropertyStatusUpdated",
      "type": "event"
    },
    {
      "anonymous": false,
      "inputs": [
        {
          "indexed": true,
          "internalType": "string",
          "name": "serverId",
          "type": "string"
        },
        {
          "indexed": true,
          "internalType": "address",
          "name": "tokenAddress",
          "type": "address"
        },
        {
          "indexed": true,
          "internalType": "address",
          "name": "owner",
          "type": "address"
        },
        {
          "indexed": false,
          "internalType": "string",
          "name": "propertyCode",
          "type": "string"
        },
        {
          "indexed": false,
          "internalType": "uint256",
          "name": "valuation",
          "type": "uint256"
        },
        {
          "indexed": false,
          "internalType": "uint256",
          "name": "tokenSupply",
          "type": "uint256"
        }
      ],
      "name": "PropertyTokenCreated",
      "type": "event"
    },
    {
      "anonymous": false,
      "inputs": [
        {
          "indexed": true,
          "internalType": "address",
          "name": "tokenAddress",
          "type": "address"
        },
        {
          "indexed": true,
          "internalType": "address",
          "name": "paymentToken",
          "type": "address"
        },
        {
          "indexed": true,
          "internalType": "address",
          "name": "operator",
          "type": "address"
        }
      ],
      "name": "PropertyTokenPaymentUpdated",
      "type": "event"
    },
    {
      "anonymous": false,
      "inputs": [
        {
          "indexed": true,
          "internalType": "bytes32",
          "name": "role",
          "type": "bytes32"
        },
        {
          "indexed": true,
          "internalType": "bytes32",
          "name": "previousAdminRole",
          "type": "bytes32"
        },
        {
          "indexed": true,
          "internalType": "bytes32",
          "name": "newAdminRole",
          "type": "bytes32"
        }
      ],
      "name": "RoleAdminChanged",
      "type": "event"
    },
    {
      "anonymous": false,
      "inputs": [
        {
          "indexed": true,
          "internalType": "bytes32",
          "name": "role",
          "type": "bytes32"
        },
        {
          "indexed": true,
          "internalType": "address",
          "name": "account",
          "type": "address"
        },
        {
          "indexed": true,
          "internalType": "address",
          "name": "sender",
          "type": "address"
        }
      ],
      "name": "RoleGranted",
      "type": "event"
    },
    {
      "anonymous": false,
      "inputs": [
        {
          "indexed": true,
          "internalType": "bytes32",
          "name": "role",
          "type": "bytes32"
        },
        {
          "indexed": true,
          "internalType": "address",
          "name": "account",
          "type": "address"
        },
        {
          "indexed": true,
          "internalType": "address",
          "name": "sender",
          "type": "address"
        }
      ],
      "name": "RoleRevoked",
      "type": "event"
    },
    {
      "inputs": [],
      "name": "DEFAULT_ADMIN_ROLE",
      "outputs": [
        {
          "internalType": "bytes32",
          "name": "",
          "type": "bytes32"
        }
      ],
      "stateMutability": "view",
      "type": "function"
    },
    {
      "inputs": [],
      "name": "LOCKED_PERCENTAGE",
      "outputs": [
        {
          "internalType": "uint256",
          "name": "",
          "type": "uint256"
        }
      ],
      "stateMutability": "view",
      "type": "function"
    },
    {
      "inputs": [],
      "name": "OPERATOR_ROLE",
      "outputs": [
        {
          "internalType": "bytes32",
          "name": "",
          "type": "bytes32"
        }
      ],
      "stateMutability": "view",
      "type": "function"
    },
    {
      "inputs": [
        {
          "internalType": "string",
          "name": "serverId",
          "type": "string"
        }
      ],
      "name": "activateProperty",
      "outputs": [],
      "stateMutability": "nonpayable",
      "type": "function"
    },
    {
      "inputs": [
        {
          "internalType": "string",
          "name": "name",
          "type": "string"
        },
        {
          "internalType": "string",
          "name": "symbol",
          "type": "string"
        },
        {
          "internalType": "uint256",
          "name": "valuation",
          "type": "uint256"
        },
        {
          "internalType": "uint256",
          "name": "tokenSupply",
          "type": "uint256"
        },
        {
          "internalType": "string",
          "name": "ipfsHash",
          "type": "string"
        },
        {
          "components": [
            {
              "internalType": "string",
              "name": "countryCode",
              "type": "string"
            },
            {
              "internalType": "string",
              "name": "cityCode",
              "type": "string"
            },
            {
              "internalType": "string",
              "name": "propertyType",
              "type": "string"
            }
          ],
          "internalType": "struct PropertyTokenFactory.PropertyLocation",
          "name": "location",
          "type": "tuple"
        },
        {
          "internalType": "string",
          "name": "serverId",
          "type": "string"
        },
        {
          "internalType": "address",
          "name": "defaultPaymentToken",
          "type": "address"
        }
      ],
      "name": "createPropertyToken",
      "outputs": [
        {
          "internalType": "address",
          "name": "tokenAddress",
          "type": "address"
        }
      ],
      "stateMutability": "nonpayable",
      "type": "function"
    },
    {
      "inputs": [
        {
          "internalType": "string",
          "name": "serverId",
          "type": "string"
        }
      ],
      "name": "getPropertyInfo",
      "outputs": [
        {
          "components": [
            {
              "internalType": "string",
              "name": "serverId",
              "type": "string"
            },
            {
              "internalType": "address",
              "name": "tokenAddress",
              "type": "address"
            },
            {
              "internalType": "address",
              "name": "propertyOwner",
              "type": "address"
            },
            {
              "internalType": "uint256",
              "name": "propertyValuation",
              "type": "uint256"
            },
            {
              "internalType": "uint256",
              "name": "issuePrice",
              "type": "uint256"
            },
            {
              "internalType": "string",
              "name": "propertyCode",
              "type": "string"
            },
            {
              "internalType": "string",
              "name": "ipfsHash",
              "type": "string"
            },
            {
              "internalType": "string",
              "name": "countryCode",
              "type": "string"
            },
            {
              "internalType": "enum PropertyTokenFactory.PropertyStatus",
              "name": "status",
              "type": "uint8"
            },
            {
              "internalType": "uint256",
              "name": "createdAt",
              "type": "uint256"
            },
            {
              "internalType": "uint256",
              "name": "updatedAt",
              "type": "uint256"
            }
          ],
          "internalType": "struct PropertyTokenFactory.PropertyInfo",
          "name": "",
          "type": "tuple"
        }
      ],
      "stateMutability": "view",
      "type": "function"
    },
    {
      "inputs": [
        {
          "internalType": "address",
          "name": "tokenAddress",
          "type": "address"
        }
      ],
      "name": "getPropertyTokenDefaultPayment",
      "outputs": [
        {
          "internalType": "address",
          "name": "",
          "type": "address"
        }
      ],
      "stateMutability": "view",
      "type": "function"
    },
    {
      "inputs": [
        {
          "internalType": "bytes32",
          "name": "role",
          "type": "bytes32"
        }
      ],
      "name": "getRoleAdmin",
      "outputs": [
        {
          "internalType": "bytes32",
          "name": "",
          "type": "bytes32"
        }
      ],
      "stateMutability": "view",
      "type": "function"
    },
    {
      "inputs": [],
      "name": "getTotalProperties",
      "outputs": [
        {
          "internalType": "uint256",
          "name": "",
          "type": "uint256"
        }
      ],
      "stateMutability": "view",
      "type": "function"
    },
    {
      "inputs": [
        {
          "internalType": "bytes32",
          "name": "role",
          "type": "bytes32"
        },
        {
          "internalType": "address",
          "name": "account",
          "type": "address"
        }
      ],
      "name": "grantRole",
      "outputs": [],
      "stateMutability": "nonpayable",
      "type": "function"
    },
    {
      "inputs": [
        {
          "internalType": "bytes32",
          "name": "role",
          "type": "bytes32"
        },
        {
          "internalType": "address",
          "name": "account",
          "type": "address"
        }
      ],
      "name": "hasRole",
      "outputs": [
        {
          "internalType": "bool",
          "name": "",
          "type": "bool"
        }
      ],
      "stateMutability": "view",
      "type": "function"
    },
    {
      "inputs": [
        {
          "internalType": "string",
          "name": "propertyCode",
          "type": "string"
        }
      ],
      "name": "parsePropertyCode",
      "outputs": [
        {
          "internalType": "uint256",
          "name": "chainId",
          "type": "uint256"
        },
        {
          "internalType": "string",
          "name": "countryCode",
          "type": "string"
        },
        {
          "internalType": "string",
          "name": "cityCode",
          "type": "string"
        },
        {
          "internalType": "string",
          "name": "propertyType",
          "type": "string"
        },
        {
          "internalType": "uint256",
          "name": "year",
          "type": "uint256"
        },
        {
          "internalType": "string",
          "name": "serverId",
          "type": "string"
        },
        {
          "internalType": "string",
          "name": "checksum",
          "type": "string"
        }
      ],
      "stateMutability": "pure",
      "type": "function"
    },
    {
      "inputs": [
        {
          "internalType": "string",
          "name": "serverId",
          "type": "string"
        }
      ],
      "name": "pauseProperty",
      "outputs": [],
      "stateMutability": "nonpayable",
      "type": "function"
    },
    {
      "inputs": [
        {
          "internalType": "string",
          "name": "",
          "type": "string"
        }
      ],
      "name": "properties",
      "outputs": [
        {
          "internalType": "string",
          "name": "serverId",
          "type": "string"
        },
        {
          "internalType": "address",
          "name": "tokenAddress",
          "type": "address"
        },
        {
          "internalType": "address",
          "name": "propertyOwner",
          "type": "address"
        },
        {
          "internalType": "uint256",
          "name": "propertyValuation",
          "type": "uint256"
        },
        {
          "internalType": "uint256",
          "name": "issuePrice",
          "type": "uint256"
        },
        {
          "internalType": "string",
          "name": "propertyCode",
          "type": "string"
        },
        {
          "internalType": "string",
          "name": "ipfsHash",
          "type": "string"
        },
        {
          "internalType": "string",
          "name": "countryCode",
          "type": "string"
        },
        {
          "internalType": "enum PropertyTokenFactory.PropertyStatus",
          "name": "status",
          "type": "uint8"
        },
        {
          "internalType": "uint256",
          "name": "createdAt",
          "type": "uint256"
        },
        {
          "internalType": "uint256",
          "name": "updatedAt",
          "type": "uint256"
        }
      ],
      "stateMutability": "view",
      "type": "function"
    },
    {
      "inputs": [],
      "name": "propertyTokenImplementation",
      "outputs": [
        {
          "internalType": "address",
          "name": "",
          "type": "address"
        }
      ],
      "stateMutability": "view",
      "type": "function"
    },
    {
      "inputs": [
        {
          "internalType": "bytes32",
          "name": "role",
          "type": "bytes32"
        },
        {
          "internalType": "address",
          "name": "account",
          "type": "address"
        }
      ],
      "name": "renounceRole",
      "outputs": [],
      "stateMutability": "nonpayable",
      "type": "function"
    },
    {
      "inputs": [
        {
          "internalType": "bytes32",
          "name": "role",
          "type": "bytes32"
        },
        {
          "internalType": "address",
          "name": "account",
          "type": "address"
        }
      ],
      "name": "revokeRole",
      "outputs": [],
      "stateMutability": "nonpayable",
      "type": "function"
    },
    {
      "inputs": [],
      "name": "rwaExchange",
      "outputs": [
        {
          "internalType": "address",
          "name": "",
          "type": "address"
        }
      ],
      "stateMutability": "view",
      "type": "function"
    },
    {
      "inputs": [
        {
          "internalType": "address",
          "name": "_rwaExchange",
          "type": "address"
        }
      ],
      "name": "setRWAExchange",
      "outputs": [],
      "stateMutability": "nonpayable",
      "type": "function"
    },
    {
      "inputs": [
        {
          "internalType": "bytes4",
          "name": "interfaceId",
          "type": "bytes4"
        }
      ],
      "name": "supportsInterface",
      "outputs": [
        {
          "internalType": "bool",
          "name": "",
          "type": "bool"
        }
      ],
      "stateMutability": "view",
      "type": "function"
    },
    {
      "inputs": [],
      "name": "systemConfig",
      "outputs": [
        {
          "internalType": "address",
          "name": "",
          "type": "address"
        }
      ],
      "stateMutability": "view",
      "type": "function"
    },
    {
      "inputs": [],
      "name": "totalProperties",
      "outputs": [
        {
          "internalType": "uint256",
          "name": "",
          "type": "uint256"
        }
      ],
      "stateMutability": "view",
      "type": "function"
    },
    {
      "inputs": [
        {
          "internalType": "string",
          "name": "serverId",
          "type": "string"
        },
        {
          "internalType": "enum PropertyTokenFactory.PropertyStatus",
          "name": "newStatus",
          "type": "uint8"
        }
      ],
      "name": "updatePropertyStatus",
      "outputs": [],
      "stateMutability": "nonpayable",
      "type": "function"
    },
    {
      "inputs": [
        {
          "internalType": "string",
          "name": "",
          "type": "string"
        }
      ],
      "name": "usedPropertyCodes",
      "outputs": [
        {
          "internalType": "bool",
          "name": "",
          "type": "bool"
        }
      ],
      "stateMutability": "view",
      "type": "function"
    },
    {
      "inputs": [],
      "name": "userRegistry",
      "outputs": [
        {
          "internalType": "address",
          "name": "",
          "type": "address"
        }
      ],
      "stateMutability": "view",
      "type": "function"
    },
    {
      "inputs": [
        {
          "internalType": "string",
          "name": "propertyCode",
          "type": "string"
        }
      ],
      "name": "validatePropertyCode",
      "outputs": [
        {
          "internalType": "bool",
          "name": "",
          "type": "bool"
        }
      ],
      "stateMutability": "pure",
      "type": "function"
    },
    {
      "inputs": [
        {
          "internalType": "address",
          "name": "tokenAddress",
          "type": "address"
        },
        {
          "internalType": "address",
          "name": "to",
          "type": "address"
        },
        {
          "internalType": "uint256",
          "name": "amount",
          "type": "uint256"
        }
      ],
      "name": "withdrawERC20ToUser",
      "outputs": [],
      "stateMutability": "nonpayable",
      "type": "function"
    }
  ],
  "bytecode": "0x608034620001c55762005e4c906001600160401b03601f38849003908101601f191683019082821184831017620001ca5780849160409687948552833981010312620001c5576200005082620001e0565b91620000606020809201620001e0565b916001805560009182600455828052828152858320338452815260ff8684205416156200018d575b7f97667070c54ef182b0f5858b034beac1b6f3089aa2d3188bb1e8929f4fa9b92990818452838152868420338552815260ff87852054161562000152575b505060018060a01b0380938160018060a01b0319961686600654161760065516846007541617600755845190612c3d80830191838310908311176200013e57908291620031ef8339039082f09081156200013357501690600554161760055551612ff99081620001f68239f35b8451903d90823e3d90fd5b634e487b7160e01b84526041600452602484fd5b818452838152868420338086529152868420805460ff1916600117905590819060008051602062005e2c8339815191528580a43880620000c6565b8280528281528583203384528152858320600160ff1982541617905533338460008051602062005e2c8339815191528180a462000088565b600080fd5b634e487b7160e01b600052604160045260246000fd5b51906001600160a01b0382168203620001c55756fe608080604052600436101561001357600080fd5b600090813560e01c90816301ffc9a7146123c3575080630b3bce20146123a557806317aaf5ed146123a55780632186993214612259578063248a9ca31461222d5780632ac3062614611ff65780632f2ff15d14611f4857806333d7e2bd14611f1f57806336568abe14611e8c5780635c7460d614611e6357806363ceb67d14611e015780637386eeea14611beb578063882e3e0414611b0257806391d1485414611ab7578063981d1a2c146117345780639be8f2a6146115f65780639e3d202c146114c9578063a217fddf146114ad578063b3f561cd14610472578063b65c736314610433578063b9e0dd051461038a578063d328c0f614610236578063d547741f146101f6578063d693620f146101cd578063ea2b1839146101b0578063f0f216a8146101875763f5b541a61461014a57600080fd5b3461018457806003193601126101845760206040517f97667070c54ef182b0f5858b034beac1b6f3089aa2d3188bb1e8929f4fa9b9298152f35b80fd5b50346101845780600319360112610184576005546040516001600160a01b039091168152602090f35b503461018457806003193601126101845760206040516101518152f35b50346101845780600319360112610184576008546040516001600160a01b039091168152602090f35b50346101845760403660031901126101845761023360043561021661256b565b908084528360205261022e6001604086200154612829565b612933565b80f35b5034610184576020366003190112610184576004356001600160401b038111610386576102679036906004016124b9565b61026f612677565b60405160208183516102848183858801612500565b8101600281520301902090600882019182549260ff8416936102a585612c5a565b156103605760ff1916600190811790915542600a83015501546001600160a01b0316803b1561035b5760008091602460405180948193638ab43e9760e01b8352600160048401525af1801561034f577f39aeb5385f856ce44d9fc3cc968fdd5d4c1e59c380c0a4c0923513423f0513db9260409261032892610340575b50612b5f565b9261033582518092612548565b60016020820152a280f35b61034990612434565b38610322565b6040513d6000823e3d90fd5b600080fd5b60405163e3962ba360e01b815260449061037d6004820188612548565b60016024820152fd5b5080fd5b5034610184576020366003190112610184576001600160a01b03806103ad612581565b16908115610421576020600492604051938480926332090b9f60e11b82525afa91821561041657602093926103e7575b5060405191168152f35b610408919250833d811161040f575b610400818361247d565b810190612b28565b90386103dd565b503d6103f6565b6040513d85823e3d90fd5b604051630f58058360e11b8152600490fd5b503461018457602036600319011261018457600435906001600160401b038211610184576020601b61046836600486016124b9565b5114604051908152f35b503461018457610100366003190112610184576004356001600160401b038111610386576104a49036906004016124b9565b6024356001600160401b0381116114a9576104c39036906004016124b9565b6084356001600160401b038111611154576104e29036906004016124b9565b9260a435916001600160401b03831161038657606060031984360301126103865760405192606084018481106001600160401b0382111761143b5760405280600401356001600160401b0381116111545761054390600436918401016124b9565b845260248101356001600160401b0381116111545761056890600436918401016124b9565b602085015260448101356001600160401b0381116111545761058f913691016004016124b9565b604084015260c4356001600160401b0381116114a9576105b39036906004016124b9565b9460e4356001600160a01b038116900361035b576002600154146114645760026001556105de612677565b600754604051630807006960e31b81529060a090829060049082906001600160a01b03165afa9081156114595784916113b6575b50805180604435106113965750602001518060443511611376575060643515611364576b033b2e3c9fd0803ce8000000806064351161134457508551600a81036113255750835151156113135760e4356001600160a01b0316158015611250575b50600a86510361123e5761068960644606612d30565b936107b26301e133804204810181116111c6576106ad906301e13380420401612df1565b948151610747602080850151928b8a604088015160405196879489516106d9818c8a808b019101612500565b86016106ed825180938a8085019101612500565b0161070082518093898085019101612500565b0161071382518093888085019101612500565b0161072682518093878085019101612500565b61073a835180948780868601019101612500565b010103808452018261247d565b80516020909101206040519060f01b6001600160f01b03191661076982612447565b601082526f181899199a1a9b1b9c1ca0a121a222a360811b60208301526040519161079383612447565b60028352602036818501376001600160f81b03196107b9838a1a60041c600f16836129e6565b5116881a83511561122a57906107e39160208501536001600160f81b031992891a600f16906129e6565b5116861a8151600110156112165791816108a393602160209401538a855199848701516040880151906040519c866108248f985180928b808c019101612500565b8701610838825180938b8085019101612500565b0161084b825180938a8085019101612500565b0161085e82518093898085019101612500565b0161087182518093888085019101612500565b0161088482518093878085019101612500565b0161089782518093868085019101612500565b0103808852018661247d565b60ff60405160208188516108ba8183858d01612500565b60038183015281010301902054166111f05760ff6108d960e435612ba7565b16604d81116111c657600a0a60443581604435020481146044351517156111da5761090b9060643590604435026129a7565b92836000198101116111c657600554608881901c62ffffff16763d602d80600a3d3981f3363d3d373d3d3d363d7300000017865260781b6effffffffffffffffffffffffffffff19166e5af43d82803e903d91602b57fd5bf3176020526001600160a01b036037600987f016968715611188576007546040516316649c1160e21b8152906001600160a01b0316602082600481845afa91821561117d57889261115c575b506006546001600160a01b0316918a3b156111585791889391610a4e610a2e6109fb958f610a0d6040519a8b998a9963d282c91b60e01b8b5261016060048c01526101648b0190612523565b8981036003190160248b015290612523565b6001600160a01b039092166044880152868203600319016064880152612523565b6064356000198c010460848601528481036003190160a48601528c612523565b913060c485015260e484015261010483015260643561012483015260018060a01b0360e435166101448301520381838b5af1801561113557908591611140575b50506007546040516316649c1160e21b815293929190602090859060049082906001600160a01b03165afa938415611135578594611114575b50519160405193610ad785612418565b88855287602086015260018060a01b03166040850152604435606085015260643590600019010460808401528460a084015260c083015260e08201528161010082015242610120820152426101408201526040516020818751610b3d8183858c01612500565b810160028152030190209181518051906001600160401b038211610eab578190610b678654612597565b601f81116110c7575b50602090601f831160011461105e578492611053575b50508160011b916000199060031b1c19161783555b60208201516001840180546001600160a01b039283166001600160a01b0319918216179091556040840151600286018054919093169116179055606082015160038401556080820151600484015560a08201518051906001600160401b038211610eab578190610c0e6005870154612597565b601f8111611003575b50602090601f8311600114610f94578492610f89575b50508160011b916000199060031b1c19161760058401555b60c08201518051906001600160401b038211610eab578190610c6a6006870154612597565b601f8111610f39575b50602090601f8311600114610eca578492610ebf575b50508160011b916000199060031b1c19161760068401555b60e08201518051906001600160401b038211610eab578190610cc66007870154612597565b601f8111610e5b575b50602090601f8311600114610dec578492610de1575b50508160011b916000199060031b1c19161760078401555b610100820151906006821015610dcd57509482600a610140610d6794610d2960209a60088b9901612b47565b6101208101516009850155015191015560405186818651610d4d8183858b01612500565b81016003815203019020600160ff19825416179055612b5f565b7f46a43e9b7a61974fce8b5a512b4af51f9d183dff9bc2084c2367c609d43842a7610d9d60405194606086526060860190612523565b936044358782015260643560408201528033950390a4610dbe600454612b7f565b60045560018055604051908152f35b634e487b7160e01b81526021600452602490fd5b015190503880610ce5565b9250600786018452602084209084935b601f1984168510610e40576001945083601f19811610610e27575b505050811b016007840155610cfd565b015160001960f88460031b161c19169055388080610e17565b81810151835560209485019460019093019290910190610dfc565b90915060078601845260208420601f840160051c810160208510610ea4575b90849392915b601f830160051c82018110610e96575050610ccf565b868155859450600101610e80565b5080610e7a565b634e487b7160e01b83526041600452602483fd5b015190503880610c89565b9250600686018452602084209084935b601f1984168510610f1e576001945083601f19811610610f05575b505050811b016006840155610ca1565b015160001960f88460031b161c19169055388080610ef5565b81810151835560209485019460019093019290910190610eda565b90915060068601845260208420601f840160051c810160208510610f82575b90849392915b601f830160051c82018110610f74575050610c73565b868155859450600101610f5e565b5080610f58565b015190503880610c2d565b9250600586018452602084209084935b601f1984168510610fe8576001945083601f19811610610fcf575b505050811b016005840155610c45565b015160001960f88460031b161c19169055388080610fbf565b81810151835560209485019460019093019290910190610fa4565b90915060058601845260208420601f840160051c81016020851061104c575b90849392915b601f830160051c8201811061103e575050610c17565b868155859450600101611028565b5080611022565b015190503880610b86565b9250858452602084209084935b601f19841685106110ac576001945083601f19811610611093575b505050811b018355610b9b565b015160001960f88460031b161c19169055388080611086565b8181015183556020948501946001909301929091019061106b565b90915085845260208420601f840160051c81016020851061110d575b90849392915b601f830160051c820181106110ff575050610b70565b8681558594506001016110e9565b50806110e3565b61112e91945060203d60201161040f57610400818361247d565b9238610ac7565b6040513d87823e3d90fd5b61114990612434565b611154578338610a8e565b8380fd5b8880fd5b61117691925060203d60201161040f57610400818361247d565b90386109af565b6040513d8a823e3d90fd5b60405162461bcd60e51b8152602060048201526016602482015275115490cc4c4d8dce8818dc99585d194819985a5b195960521b6044820152606490fd5b634e487b7160e01b85526011600452602485fd5b634e487b7160e01b600052601160045260246000fd5b604051630a94781b60e11b815260206004820152806112126024820188612523565b0390fd5b634e487b7160e01b87526032600452602487fd5b634e487b7160e01b89526032600452602489fd5b6040516303ed109360e11b8152600490fd5b610421576040516318160ddd60e01b815260208160048160e4356001600160a01b03165afa90816112e8575b5061129357604051630f58058360e11b8152600490fd5b60405163313ce56760e01b815260208160048160e4356001600160a01b03165afa15610673576112da9060203d6020116112e1575b6112d2818361247d565b810190612b8e565b5038610673565b503d6112c8565b602090813d831161130c575b6112fe818361247d565b81010312611154573861127c565b503d6112f4565b6040516304e7559960e21b8152600490fd5b604490604051906365f5e65760e01b82526004820152600a6024820152fd5b604490604051906328cac44960e21b825260643560048301526024820152fd5b60405163f33e561f60e01b8152600490fd5b6040516372a8756960e01b81526044803560048301526024820192909252fd5b60405163a7f43c4560e01b81526044803560048301526024820192909252fd5b905060a0813d60a011611451575b816113d160a0938361247d565b8101031261115457604051908160a08101106001600160401b0360a08401111761143b5760809060a08301604052805183526020810151602084015260408101516040840152606081015160608401520151801515810361143757608082015238610612565b8480fd5b634e487b7160e01b600052604160045260246000fd5b3d91506113c4565b6040513d86823e3d90fd5b60405162461bcd60e51b815260206004820152601f60248201527f5265656e7472616e637947756172643a207265656e7472616e742063616c6c006044820152606490fd5b8280fd5b5034610184578060031936011261018457602090604051908152f35b5034610184576020366003190112610184576004356001600160401b038111610386576114fa9036906004016124b9565b611502612677565b60405160208183516115178183858801612500565b8101600281520301902090600882019182549260ff84169361153885612c0b565b156115d05760ff1916600217905542600a820155600101546001600160a01b0316803b1561035b5760008091602460405180948193638ab43e9760e01b83528160048401525af1801561034f577f39aeb5385f856ce44d9fc3cc968fdd5d4c1e59c380c0a4c0923513423f0513db926040926115b8926103405750612b5f565b926115c582518092612548565b60026020820152a280f35b60405163e3962ba360e01b81526044906115ed6004820188612548565b60026024820152fd5b503461018457602036600319011261018457600435906001600160401b03821161018457506116299036906004016124b9565b604051818180935160208193019161164092612500565b810160028152036020019020611655816125d1565b60018201546002830154600384015460048501546001600160a01b039283169590939192909116611688600583016125d1565b611694600684016125d1565b906116a1600785016125d1565b92600885015460ff1696600986015495600a0154966040519a8b9a610160808d528c016116cd91612523565b9360208c015260408b015260608a0152608089015287810360a08901526116f391612523565b86810360c088015261170491612523565b85810360e087015261171591612523565b92610100850161172491612548565b6101208401526101408301520390f35b5034610184576020908160031936011261018457600435906001600160401b03821161018457506117699036906004016124b9565b8051601b8103611a985750600090815b60028110611a46575060405161178e81612447565b60039081815284368183013760005b828110611a0d5750604051916117b283612447565b80835285368185013760005b8181106119d45750604051906117d382612447565b80825286368184013760005b81811061199b575050600092835b6004811061192457506040519261180384612447565b600a80855288368187013760005b8181106118eb5750506040519561182787612447565b60028088528936818a013760005b8181106118ac575050506118a895949261187961189a959361186b6118879460e06040519d8e9d8e528d015260e08c0190612523565b908a820360408c0152612523565b9088820360608a0152612523565b91608087015285820360a0870152612523565b9083820360c0850152612523565b0390f35b6019908082018092116111da576118e6916001600160f81b0319906118d190866129e6565b511660001a6118e0828c6129e6565b53612b7f565b611835565b600f908082018092116111da5761191f916001600160f81b031990611910908b6129e6565b511660001a6118e082896129e6565b611811565b93600b8581018091116111da5761193e602f1991886129e6565b5160f81c0160ff908181116111da5716906009821161198257600a908181029181830414901517156111da5761197d91611977916129a7565b94612b7f565b6117ed565b604051634c8d7d4960e11b815260048101839052602490fd5b6008908082018092116111da576119cf916001600160f81b0319906119c090896129e6565b511660001a6118e082866129e6565b6117df565b6005908082018092116111da57611a08916001600160f81b0319906119f990886129e6565b511660001a6118e082876129e6565b6117be565b6002908082018092116111da57611a41916001600160f81b031990611a3290876129e6565b511660001a6118e082856129e6565b61179d565b91602f19611a5484846129e6565b5160f81c0160ff908181116111da5716906009821161198257600a908181029181830414901517156111da57611a9391611a8d916129a7565b92612b7f565b611779565b604490604051906307a03a8d60e11b82526004820152601b6024820152fd5b5034610184576040366003190112610184576040611ad361256b565b91600435815280602052209060018060a01b0316600052602052602060ff604060002054166040519015158152f35b503461018457606036600319011261018457611b1c612581565b611b2461256b565b60443591611b30612677565b6001600160a01b039081169182156104215716908115611bd9578215611bc757803b15611154576040516307f57da760e11b8152826004820152836024820152848160448183865af1801561113557611bb4575b506040519283527fa96614c318e15abef3c2bb730688f3dbda373ce46b0dc591742cf50c4af9aab460203394a480f35b611bc090949194612434565b9238611b84565b60405163162908e360e11b8152600490fd5b60405163226ccff560e11b8152600490fd5b50346101845760208060031936011261038657611c06612581565b9082805282815260408320338452815260ff60408420541615611c47575060018060a01b03166bffffffffffffffffffffffff60a01b600854161760085580f35b9050611c5233612a0d565b918060405190611c6182612462565b60428252838201926060368537825115611ded5760308453825190600191821015611ded5790607860218501536041915b818311611d7f57505050611d3c57611d0c93611d1b9260489260405196879376020b1b1b2b9b9a1b7b73a3937b61d1030b1b1b7bab73a1604d1b88860152611ce3815180928a603789019101612500565b8401917001034b99036b4b9b9b4b733903937b6329607d1b603784015251809386840190612500565b0103602881018552018361247d565b61121260405192839262461bcd60e51b845260048401526024830190612523565b6064836040519062461bcd60e51b825280600483015260248201527f537472696e67733a20686578206c656e67746820696e73756666696369656e746044820152fd5b909192600f81166010811015611dd9576f181899199a1a9b1b9c1cb0b131b232b360811b901a611daf85876129e6565b5360041c928015611dc557600019019190611c92565b634e487b7160e01b82526011600452602482fd5b634e487b7160e01b83526032600452602483fd5b634e487b7160e01b81526032600452602490fd5b503461018457602036600319011261018457600435906001600160401b03821161018457602060ff611e4d82611e3a36600488016124b9565b8160405193828580945193849201612500565b8101600381520301902054166040519015158152f35b50346101845780600319360112610184576006546040516001600160a01b039091168152602090f35b503461018457604036600319011261018457611ea661256b565b336001600160a01b03821603611ec25761023390600435612933565b60405162461bcd60e51b815260206004820152602f60248201527f416363657373436f6e74726f6c3a2063616e206f6e6c792072656e6f756e636560448201526e103937b632b9903337b91039b2b63360891b6064820152608490fd5b50346101845780600319360112610184576007546040516001600160a01b039091168152602090f35b503461018457604036600319011261018457600435611f6561256b565b81835282602052611f7c6001604085200154612829565b818352602083815260408085206001600160a01b039093168086529290915283205460ff1615611faa578280f35b818352826020526040832081845260205260408320600160ff1982541617905533917f2f8788117e7eff1d82e926ec794901d17c78024a50270940304540a733656f0d8480a438808280f35b5034610184576020366003190112610184576004356001600160401b03811161038657602061202c61208f9236906004016124b9565b8361014060405161203c81612418565b606081528285820152826040820152826060820152826080820152606060a0820152606060c0820152606060e0820152826101008201528261012082015201528160405193828580945193849201612500565b81016002815203019020604051906120a682612418565b6120af816125d1565b825260018101546001600160a01b039081166020840152600282015416604083015260038101546060830152600481015460808301526120f1600582016125d1565b60a0830152612102600682016125d1565b60c0830152612113600782016125d1565b60e083015260ff60088201541660068110156122195790600a91610100840152600981015461012084015201546101408201526040518091602082526101406121ee61216d83516101606020870152610180860190612523565b60018060a01b03602085015116604086015260018060a01b03604085015116606086015260608401516080860152608084015160a08601526121d86121c460a086015192601f1993848983030160c08a0152612523565b60c0860151838883030160e0890152612523565b9060e08501519086830301610100870152612523565b91612203610100820151610120860190612548565b6101208101518285015201516101608301520390f35b634e487b7160e01b84526021600452602484fd5b503461018457602036600319011261018457600160406020926004358152808452200154604051908152f35b5034610184576040366003190112610184576004356001600160401b0381116103865761228a9036906004016124b9565b6024359060068210156114a95761229f612677565b60405160208183516122b48183858801612500565b81016002815203019020600881019060ff825416916122d38584612c8a565b1561237857906122e68587959493612b47565b42600a820155600101546001600160a01b0316803b15611154578390602460405180968193638ab43e9760e01b835260018a1460048401525af19283156111355761235d604093612374927f39aeb5385f856ce44d9fc3cc968fdd5d4c1e59c380c0a4c0923513423f0513db966103405750612b5f565b9461236a84518094612548565b6020830190612548565ba280f35b60405163e3962ba360e01b81526044906123a3876123996004840188612548565b6024830190612548565bfd5b50346101845780600319360112610184576020600454604051908152f35b9050346103865760203660031901126103865760043563ffffffff60e01b81168091036114a95760209250637965db0b60e01b8114908115612407575b5015158152f35b6301ffc9a760e01b14905038612400565b61016081019081106001600160401b0382111761143b57604052565b6001600160401b03811161143b57604052565b604081019081106001600160401b0382111761143b57604052565b608081019081106001600160401b0382111761143b57604052565b90601f801991011681019081106001600160401b0382111761143b57604052565b6001600160401b03811161143b57601f01601f191660200190565b81601f8201121561035b578035906124d08261249e565b926124de604051948561247d565b8284526020838301011161035b57816000926020809301838601378301015290565b60005b8381106125135750506000910152565b8181015183820152602001612503565b9060209161253c81518092818552858086019101612500565b601f01601f1916010190565b9060068210156125555752565b634e487b7160e01b600052602160045260246000fd5b602435906001600160a01b038216820361035b57565b600435906001600160a01b038216820361035b57565b90600182811c921680156125c7575b60208310146125b157565b634e487b7160e01b600052602260045260246000fd5b91607f16916125a6565b90604051918260008254926125e584612597565b9081845260019485811690816000146126545750600114612611575b505061260f9250038361247d565b565b9093915060005260209081600020936000915b81831061263c57505061260f93508201013880612601565b85548884018501529485019487945091830191612624565b91505061260f94506020925060ff191682840152151560051b8201013880612601565b3360009081527fee57cd81e84075558e8fcc182a1f4393f91fc97f963a136e66b7f949a62f319f602090815260408083205490927f97667070c54ef182b0f5858b034beac1b6f3089aa2d3188bb1e8929f4fa9b9299160ff16156126db5750505050565b6126e433612a0d565b918451906126f182612462565b60428252848201926060368537825115611ded5760308453825190600191821015611ded5790607860218501536041915b8183116127e3575050506127a157604861121293869361278593612776985198899376020b1b1b2b9b9a1b7b73a3937b61d1030b1b1b7bab73a1604d1b8a860152611ce3815180928c603789019101612500565b0103602881018752018561247d565b5192839262461bcd60e51b845260048401526024830190612523565b60648486519062461bcd60e51b825280600483015260248201527f537472696e67733a20686578206c656e67746820696e73756666696369656e746044820152fd5b909192600f81166010811015611dd9576f181899199a1a9b1b9c1cb0b131b232b360811b901a61281385876129e6565b5360041c928015611dc557600019019190612722565b600090808252602090828252604092838120338252835260ff8482205416156128525750505050565b61285b33612a0d565b9184519061286882612462565b60428252848201926060368537825115611ded5760308453825190600191821015611ded5790607860218501536041915b8183116128ed575050506127a157604861121293869361278593612776985198899376020b1b1b2b9b9a1b7b73a3937b61d1030b1b1b7bab73a1604d1b8a860152611ce3815180928c603789019101612500565b909192600f81166010811015611dd9576f181899199a1a9b1b9c1cb0b131b232b360811b901a61291d85876129e6565b5360041c928015611dc557600019019190612899565b9060009180835282602052604083209160018060a01b03169182845260205260ff60408420541661296357505050565b80835282602052604083208284526020526040832060ff1981541690557ff6391f5c32d9c69d2a47ea670b442974b53935d1edc7fd64eb21e047a839171b339380a4565b919082018092116111da57565b906129be8261249e565b6129cb604051918261247d565b82815280926129dc601f199161249e565b0190602036910137565b9081518110156129f7570160200190565b634e487b7160e01b600052603260045260246000fd5b60405190606082018281106001600160401b0382111761143b57604052602a82526020820160403682378251156129f7576030905381516001908110156129f757607860218401536029905b808211612aad575050612a695790565b606460405162461bcd60e51b815260206004820152602060248201527f537472696e67733a20686578206c656e67746820696e73756666696369656e746044820152fd5b9091600f81166010811015612b06576f181899199a1a9b1b9c1cb0b131b232b360811b901a612adc84866129e6565b5360041c918015612af1576000190190612a59565b60246000634e487b7160e01b81526011600452fd5b60246000634e487b7160e01b81526032600452fd5b919082039182116111da57565b9081602091031261035b57516001600160a01b038116810361035b5790565b9060068110156125555760ff80198354169116179055565b612b7790602060405192828480945193849201612500565b810103902090565b60001981146111da5760010190565b9081602091031261035b575160ff8116810361035b5790565b6001600160a01b03168015612c055760206004916040519283809263313ce56760e01b82525afa60009181612be5575b50612be25750600690565b90565b612bfe91925060203d81116112e1576112d2818361247d565b9038612bd7565b50600690565b60068110156125555780612c1f5750600190565b60018103612c2d5750600190565b60028103612c3b5750600090565b60038103612c495750600090565b600414612c5557600090565b600090565b60068110156125555780612c6e5750600190565b60018103612c7c5750600090565b60028103612c3b5750600190565b600690818110156125555780612cb957508110156125555760018114908115612cb1575090565b600291501490565b60018103612ce057508110156125555760028114908115612cd8575090565b600391501490565b60028103612cff57508110156125555760018114908115612cd8575090565b60038103612d1557508110156125555760041490565b600414612d23575050600090565b8110156125555760051490565b8015612dce5780816000925b612dba575080612d4b836129b4565b92915b612d5d575050612be290612eb2565b60001982019182116111da5781600a808304928184029184830414841517156111da57612d8d60ff928392612b1b565b166030019081116111da5760f81b6001600160f81b03191660001a90612db390856129e6565b5380612d4e565b91612dc6600a91612b7f565b920480612d3c565b50612be2604051612dde81612447565b60018152600360fc1b6020820152612eb2565b8015612e8f5780816000925b612e7b575080612e0c836129b4565b92915b612e1e575050612be290612f4b565b60001982019182116111da5781600a808304928184029184830414841517156111da57612e4e60ff928392612b1b565b166030019081116111da5760f81b6001600160f81b03191660001a90612e7490856129e6565b5380612e0f565b91612e87600a91612b7f565b920480612dfd565b50612be2604051612e9f81612447565b60018152600360fc1b6020820152612f4b565b9060028251101561260f57604051612ec981612447565b60028152602036818301378251600203600281116111da57600093845b828110612f365750845b8151811015612f2e57612f29906001600160f81b0319612f1082856129e6565b51166118e0612f1f83876129a7565b91891a91876129e6565b612ef0565b509193505050565b8060306118e0612f4693876129e6565b612ee6565b9060048251101561260f57604051612f6281612447565b60048152602036818301378251600403600481116111da57600093845b828110612fae5750845b8151811015612f2e57612fa9906001600160f81b0319612f1082856129e6565b612f89565b8060306118e0612fbe93876129e6565b612f7f56fea2646970667358221220aa128299a8706ea68810b7462cf6592eb96792098a1641208e8c824e2110cdcd64736f6c63430008130033608060405234620002e95762000014620002ee565b6200001e620002ee565b815190916001600160401b03808311620001e957600380546001948582811c9216948515620002de575b60209586841014620002c8578190601f9384811162000272575b5086908483116001146200020b57600092620001ff575b505060001982851b1c191690861b1782555b8551928311620001e95760049384548681811c91168015620001de575b82821014620001c9578281116200017e575b50809184116001146200011057508293949560009362000104575b505082851b92600019911b1c19161790555b60065560ff196007541660075560405161292a9081620003138239f35b015191503880620000d5565b9190601f198416968560005283600020936000905b89821062000166575050848798979697106200014b575b50505050811b019055620000e7565b01519060f884600019921b161c19169055388080806200013c565b80898597829496860151815501960193019062000125565b85600052816000208380870160051c820192848810620001bf575b0160051c019087905b828110620001b2575050620000ba565b60008155018790620001a2565b9250819262000199565b602286634e487b7160e01b6000525260246000fd5b90607f1690620000a8565b634e487b7160e01b600052604160045260246000fd5b01519050388062000079565b90889350601f1983169186600052886000209260005b8a8282106200025b575050841162000242575b505050811b0182556200008b565b015160001983871b60f8161c1916905538808062000234565b8385015186558c9790950194938401930162000221565b90915084600052866000208480850160051c820192898610620002be575b918a91869594930160051c01915b828110620002ae57505062000062565b600081558594508a91016200029e565b9250819262000290565b634e487b7160e01b600052602260045260246000fd5b91607f169162000048565b600080fd5b60405190602082016001600160401b03811183821017620001e9576040526000825256fe608080604052600436101561001357600080fd5b60003560e01c90816301ffc9a714611b7d5750806304a0fb1714611b4257806306fdde0314611aae578063095ea7b314611a885780630feafb4e146119f357806318160ddd146119d557806323b872dd14611917578063248a9ca3146118e8578063286e098f146118ad5780632f2ff15d1461180c578063313ce567146117f057806333d7e2bd146117c757806333f33eb3146117a057806336568abe1461170e57806339509351146116bd5780633f4ba83a1461160c578063504cceac1461122a5780635c2c20051461120c5780635c7460d6146111e35780635c975abb146111c05780635de5f3be1461114d5780636412173e146111245780636d4d2749146110fe57806370a08231146110bd5780638456cb591461100d5780638a2c8a5114610ff15780638ab43e9714610f6757806391d1485414610f1a57806395d89b4114610e5e578063a162f01914610e38578063a217fddf14610e1c578063a457c2d714610d75578063a9059cbb14610d44578063be079d7314610d10578063c45a015514610ce7578063d282c91b14610341578063d547741f14610300578063dd62ed3e146102af578063f446c38f146102865763f74b059e146101d757600080fd5b34610281576020366003190112610281576101f0611c18565b336000908152600080516020612895833981519152602052604090205460ff161561026f576001600160a01b0316801561025d57600f80546001600160a01b031916821790557f1e771517fc81dffcfb56e933898a569cc1fc731d8a0510c4bdf0ba9b4450ae81600080a2005b6040516337021e9960e11b8152600490fd5b60405163011a72f560e11b8152600490fd5b600080fd5b3461028157600036600319011261028157600b546040516001600160a01b039091168152602090f35b34610281576040366003190112610281576102c8611c18565b6102d0611c2e565b9060018060a01b038091166000526001602052604060002091166000526020526020604060002054604051908152f35b346102815760403660031901126102815761033f60043561031f611c2e565b9080600052600560205261033a600160406000200154611e36565b61216c565b005b34610281576101603660031901126102815760043567ffffffffffffffff811161028157610373903690600401611def565b60243567ffffffffffffffff811161028157610393903690600401611def565b604435916001600160a01b039081841684036102815760643567ffffffffffffffff8111610281576103c9903690600401611def565b9060a43567ffffffffffffffff8111610281576103ea903690600401611def565b9060c4359484861686036102815760e435938585168503610281576101043591868316830361028157610144359387851685036102815760405160035481600061043383611c44565b8083529260018116908115610cc85750600114610c67575b61045792500382611c7e565b51610c5657878a1615610c445787891615610c325780519067ffffffffffffffff821161094357819061048b601054611c44565b601f8111610bbe575b50602090601f8311600114610b4a57600092610b3f575b50508160011b916000199060031b1c1916176010555b80519067ffffffffffffffff82116109435781906104e0601154611c44565b601f8111610acb575b50602090601f8311600114610a5757600092610a4c575b50508160011b916000199060031b1c1916176011555b80519067ffffffffffffffff8211610943578190610535600854611c44565b601f81116109d8575b50602090601f831160011461096457600092610959575b50508160011b916000199060031b1c1916176008555b608435600955825167ffffffffffffffff811161094357859361058f600a54611c44565b601f81116108c7575b50602090601f831160011461084e578593929160009183610843575b50508160011b916000199060031b1c191617600a555b816bffffffffffffffffffffffff60a01b95818a1687600b541617600b5581891687600c541617600c551685600d541617600d551683600e541617600e551690600f541617600f556000805260059182602052604060002082821660005260205260ff6040600020541615610806575b7fdfbefbf47cfe66b701d8cfdbce1de81c821590819cb07e71cb01b6602fb0ee278060005283602052604060002083831660005260205260ff60406000205416156107c1575b50507ffeb983a7695463ef5b6eb7089f94f157c3c925417d08e4762b54797793ffd028918260005280602052604060002082851660005260205260ff604060002054161561077c575b50505050301561073757610124356106e3816002546121e2565b600255306000526000602052604060002081815401905560405190815260007fddf252ad1be2c89b69c2b068fc378daa952ba7f163c4a11628f55a4df523b3ef60203093a3600f805460ff60a01b19169055005b60405162461bcd60e51b815260206004820152601f60248201527f45524332303a206d696e7420746f20746865207a65726f2061646472657373006044820152606490fd5b8260005260205260406000208184166000526020526040600020600160ff1982541617905533921690600080516020612835833981519152600080a4808080806106c9565b806000528360205260406000208383166000526020526040600020600160ff198254161790558233921690600080516020612835833981519152600080a48380610680565b60008080526020848152604080832084861680855292528220805460ff1916600117905533916000805160206128358339815191528180a461063a565b015190508a806105b4565b90600a600052600080516020612855833981519152916000601f198516905b8181106108ac57509160019391858997969410610893575b505050811b01600a556105ca565b015160001960f88460031b161c191690558a8080610885565b8284015185558a98506001909401936020938401930161086d565b909192939450600a600052601f830160051c600080516020612855833981519152016020841061092e575b90601f889695949392910160051c60008051602061285583398151915201905b81811061091f5750610598565b60008155889650600101610912565b506000805160206128558339815191526108f2565b634e487b7160e01b600052604160045260246000fd5b015190508980610555565b600860009081526000805160206128b58339815191529350601f198516905b8181106109c057509084600195949392106109a7575b505050811b0160085561056b565b015160001960f88460031b161c19169055898080610999565b92936020600181928786015181550195019301610983565b9091506008600052601f830160051c6000805160206128b58339815191520160208410610a37575b908392915b601f820160051c6000805160206128b5833981519152018110610a28575061053e565b60008155849350600101610a05565b506000805160206128b5833981519152610a00565b015190508a80610500565b601160009081526000805160206128758339815191529350601f198516905b818110610ab35750908460019594939210610a9a575b505050811b01601155610516565b015160001960f88460031b161c191690558a8080610a8c565b92936020600181928786015181550195019301610a76565b9091506011600052601f830160051c6000805160206128758339815191520160208410610b2a575b908392915b601f820160051c600080516020612875833981519152018110610b1b57506104e9565b60008155849350600101610af8565b50600080516020612875833981519152610af3565b015190508b806104ab565b601060009081526000805160206128d58339815191529350601f198516905b818110610ba65750908460019594939210610b8d575b505050811b016010556104c1565b015160001960f88460031b161c191690558b8080610b7f565b92936020600181928786015181550195019301610b69565b9091506010600052601f830160051c6000805160206128d58339815191520160208410610c1d575b908392915b601f820160051c6000805160206128d5833981519152018110610c0e5750610494565b60008155849350600101610beb565b506000805160206128d5833981519152610be6565b604051637a44db9560e01b8152600490fd5b604051636e4d5d7360e11b8152600490fd5b60405162dc149f60e41b8152600490fd5b509060036000527fc2575a0e9e593c00f959f8c92f12db2869c3395a3b0502d05e2516446f71f85b906000915b818310610cac5750509060206104579282010161044b565b6020919350806001915483858801015201910190918392610c94565b6020925061045794915060ff191682840152151560051b82010161044b565b3461028157600036600319011261028157600c546040516001600160a01b039091168152602090f35b3461028157600036600319011261028157610d40610d2c611ca0565b604051918291602083526020830190611bf3565b0390f35b3461028157604036600319011261028157610d6a610d60611c18565b60243590336121ef565b602060405160018152f35b3461028157604036600319011261028157610d8e611c18565b60243590336000526001602052604060002060018060a01b03821660005260205260406000205491808310610dc957610d6a9203903361235d565b60405162461bcd60e51b815260206004820152602560248201527f45524332303a2064656372656173656420616c6c6f77616e63652062656c6f77604482015264207a65726f60d81b6064820152608490fd5b3461028157600036600319011261028157602060405160008152f35b3461028157600036600319011261028157602060ff600f5460a01c166040519015158152f35b34610281576000366003190112610281576040516000601154610e8081611c44565b80845290600190818116908115610ef35750600114610eaa575b610d4084610d2c81860382611c7e565b6011600090815292506000805160206128758339815191525b828410610edb575050508101602001610d2c82610e9a565b80546020858701810191909152909301928101610ec3565b60ff191660208087019190915292151560051b85019092019250610d2c9150839050610e9a565b3461028157604036600319011261028157610f33611c2e565b600435600052600560205260406000209060018060a01b0316600052602052602060ff604060002054166040519015158152f35b346102815760203660031901126102815760043580151580910361028157336000908152600080516020612895833981519152602052604090205460ff161561026f57600f805460ff60a01b191660a083901b60ff60a01b161790556040519081527fedffa4ddf1b5cc6ab889ab92401ec44a0db5b6cdd8b11ab64808336eac8268b590602090a1005b3461028157600036600319011261028157610d40610d2c611d4c565b3461028157600036600319011261028157336000908152600080516020612895833981519152602052604090205460ff161561026f5760075460ff81166110855760019060ff1916176007557f62e78cea01bee320cd4e420270b5ea74000d11b0c9f74754ebdbfc544b05a2586020604051338152a1005b60405162461bcd60e51b815260206004820152601060248201526f14185d5cd8589b194e881c185d5cd95960821b6044820152606490fd5b346102815760203660031901126102815760206110f66110db611c18565b6001600160a01b031660009081526020819052604090205490565b604051908152f35b346102815760403660031901126102815760206110f661111c611c2e565b6004356126d1565b3461028157600036600319011261028157600f546040516001600160a01b039091168152602090f35b3461028157600036600319011261028157600954600b5460025461119e92916001600160a01b0316906111b1611181611ca0565b9361118a611d4c565b60405196879660a0885260a0880190611bf3565b9160208701528582036040870152611bf3565b91606084015260808301520390f35b3461028157600036600319011261028157602060ff600754166040519015158152f35b3461028157600036600319011261028157600d546040516001600160a01b039091168152602090f35b34610281576000366003190112610281576020600954604051908152f35b3461028157604036600319011261028157600435611246611c2e565b6002600654146115c757600260065560ff600f5460a01c16156115b55781156115a3576001600160a01b0390808216801561025d5782600d54169160405180936373bed91960e11b825233600483015281602460209687935afa90811561147c57600091611576575b5015611564576112bf90856126d1565b9081156115525730600052600083528460406000205410611540576040516370a0823160e01b81523360048201528381602481855afa801561147c57839160009161150f575b50106114fd57604051636eb1769f60e11b81523360048201523060248201528381604481855afa801561147c5783916000916114cc575b50106114ba576205161582026205161419838204016114a457620f424090049261136684846124b1565b9461137186866121e2565b848110611488575b5060048282600e5416604051928380926379022a9f60e01b82525afa90811561147c57600091611446575b5081811615611434578580611422575b5050858061140c575b50506040519586528501526040840152606083015260808201524260a082015230907fa91f3c820d9f62038898f5315f0fef4275ddcf7b3d727ab14d026f432910ac2260c03392a36001600655005b61141b91600b541633856124be565b86856113bd565b61142d9133866124be565b87856113b4565b60405163cfe2ea6360e01b8152600490fd5b90508281813d8311611475575b61145d8183611c7e565b810103126102815751818116810361028157886113a4565b503d611453565b6040513d6000823e3d90fd5b9561149761149d9297866124b1565b906121e2565b9487611379565b634e487b7160e01b600052601160045260246000fd5b6040516379d550f560e01b8152600490fd5b809250858092503d83116114f6575b6114e58183611c7e565b81010312610281578290518761133c565b503d6114db565b6040516352ad5e8b60e01b8152600490fd5b809250858092503d8311611539575b6115288183611c7e565b810103126102815782905187611305565b503d61151e565b604051632783839d60e01b8152600490fd5b6040516324aedff360e11b8152600490fd5b60405163532fc80960e01b8152600490fd5b6115969150843d861161159c575b61158e8183611c7e565b810190612499565b866112af565b503d611584565b604051635e85ae7360e01b8152600490fd5b6040516313f9241360e21b8152600490fd5b60405162461bcd60e51b815260206004820152601f60248201527f5265656e7472616e637947756172643a207265656e7472616e742063616c6c006044820152606490fd5b3461028157600036600319011261028157336000908152600080516020612895833981519152602052604090205460ff161561026f5760075460ff8116156116815760ff19166007557f5db9ee0a495bf2e6ff9c91a7834c1ba4fdd244a5e8aa4e537bd38aeae4b073aa6020604051338152a1005b60405162461bcd60e51b815260206004820152601460248201527314185d5cd8589b194e881b9bdd081c185d5cd95960621b6044820152606490fd5b3461028157604036600319011261028157610d6a6116d9611c18565b336000526001602052604060002060018060a01b0382166000526020526117076024356040600020546121e2565b903361235d565b3461028157604036600319011261028157611727611c2e565b336001600160a01b038216036117435761033f9060043561216c565b60405162461bcd60e51b815260206004820152602f60248201527f416363657373436f6e74726f6c3a2063616e206f6e6c792072656e6f756e636560448201526e103937b632b9903337b91039b2b63360891b6064820152608490fd5b346102815760003660031901126102815730600090815260208181526040909120546110f6565b3461028157600036600319011261028157600e546040516001600160a01b039091168152602090f35b3461028157600036600319011261028157602060405160128152f35b3461028157604036600319011261028157600435611828611c2e565b816000526005602052611842600160406000200154611e36565b81600052600560205260406000209060018060a01b0316908160005260205260ff604060002054161561187157005b8160005260056020526040600020816000526020526040600020600160ff198254161790553391600080516020612835833981519152600080a4005b346102815760003660031901126102815760206040517ffeb983a7695463ef5b6eb7089f94f157c3c925417d08e4762b54797793ffd0288152f35b346102815760203660031901126102815760043560005260056020526020600160406000200154604051908152f35b3461028157606036600319011261028157611930611c18565b611938611c2e565b6044359060018060a01b0383166000526001602052604060002033600052602052604060002054926000198403611974575b610d6a93506121ef565b8284106119905761198b83610d6a9503338361235d565b61196a565b60405162461bcd60e51b815260206004820152601d60248201527f45524332303a20696e73756666696369656e7420616c6c6f77616e63650000006044820152606490fd5b34610281576000366003190112610281576020600254604051908152f35b3461028157604036600319011261028157611a0c611c18565b33600090815260008051602061289583398151915260205260409020546024359060ff161561026f576001600160a01b0382161561025d5780156115a357306000526000602052604060002054818110611a6b575061033f91306121ef565b6044916040519163b7ddd88b60e01b835260048301526024820152fd5b3461028157604036600319011261028157610d6a611aa4611c18565b602435903361235d565b34610281576000366003190112610281576040516000601054611ad081611c44565b80845290600190818116908115610ef35750600114611af957610d4084610d2c81860382611c7e565b6010600090815292506000805160206128d58339815191525b828410611b2a575050508101602001610d2c82610e9a565b80546020858701810191909152909301928101611b12565b346102815760003660031901126102815760206040517fdfbefbf47cfe66b701d8cfdbce1de81c821590819cb07e71cb01b6602fb0ee278152f35b34610281576020366003190112610281576004359063ffffffff60e01b821680920361028157602091637965db0b60e01b8114908115611bbf575b5015158152f35b6301ffc9a760e01b14905083611bb8565b60005b838110611be35750506000910152565b8181015183820152602001611bd3565b90602091611c0c81518092818552858086019101611bd0565b601f01601f1916010190565b600435906001600160a01b038216820361028157565b602435906001600160a01b038216820361028157565b90600182811c92168015611c74575b6020831014611c5e57565b634e487b7160e01b600052602260045260246000fd5b91607f1691611c53565b90601f8019910116810190811067ffffffffffffffff82111761094357604052565b6040519060008260085491611cb483611c44565b80835292600190818116908115611d2a5750600114611cdd575b50611cdb92500383611c7e565b565b6008600090815291506000805160206128b58339815191525b848310611d0f5750611cdb935050810160200138611cce565b81935090816020925483858a01015201910190918592611cf6565b905060209250611cdb94915060ff191682840152151560051b82010138611cce565b60405190600082600a5491611d6083611c44565b80835292600190818116908115611d2a5750600114611d865750611cdb92500383611c7e565b600a600090815291506000805160206128558339815191525b848310611db85750611cdb935050810160200138611cce565b81935090816020925483858a01015201910190918592611d9f565b67ffffffffffffffff811161094357601f01601f191660200190565b81601f8201121561028157803590611e0682611dd3565b92611e146040519485611c7e565b8284526020838301011161028157816000926020809301838601378301015290565b60009080825260209060058252604092838120338252835260ff848220541615611e605750505050565b83519167ffffffffffffffff90336060850183811186821017612158578752602a855285850191873684378551156121445760308353855191600192831015612130576078602188015360295b8381116120c6575061208457908751936080850190858210908211176120705788526042845286840194606036873784511561205c5760308653845182101561205c5790607860218601536041915b818311611fee57505050611fac57611fa8938693611f8c93611f7d604894611f549a519a8b957f416363657373436f6e74726f6c3a206163636f756e74200000000000000000008c8801525180926037880190611bd0565b8401917001034b99036b4b9b9b4b733903937b6329607d1b603784015251809386840190611bd0565b01036028810187520185611c7e565b5192839262461bcd60e51b845260048401526024830190611bf3565b0390fd5b60648587519062461bcd60e51b825280600483015260248201527f537472696e67733a20686578206c656e67746820696e73756666696369656e746044820152fd5b909192600f81166010811015612048576f181899199a1a9b1b9c1cb0b131b232b360811b901a61201e8588612472565b5360041c92801561203457600019019190611efc565b634e487b7160e01b82526011600452602482fd5b634e487b7160e01b83526032600452602483fd5b634e487b7160e01b81526032600452602490fd5b634e487b7160e01b86526041600452602486fd5b60648789519062461bcd60e51b825280600483015260248201527f537472696e67733a20686578206c656e67746820696e73756666696369656e746044820152fd5b90600f8116601081101561211c576f181899199a1a9b1b9c1cb0b131b232b360811b901a6120f4838a612472565b5360041c9080156121085760001901611ead565b634e487b7160e01b87526011600452602487fd5b634e487b7160e01b88526032600452602488fd5b634e487b7160e01b86526032600452602486fd5b634e487b7160e01b85526032600452602485fd5b634e487b7160e01b85526041600452602485fd5b906000918083526005602052604083209160018060a01b03169182845260205260ff60408420541661219d57505050565b8083526005602052604083208284526020526040832060ff1981541690557ff6391f5c32d9c69d2a47ea670b442974b53935d1edc7fd64eb21e047a839171b339380a4565b919082018092116114a457565b6001600160a01b0390811691821561230a57169182156122b95760008281528060205260408120549180831061226557604082827fddf252ad1be2c89b69c2b068fc378daa952ba7f163c4a11628f55a4df523b3ef958760209652828652038282205586815220818154019055604051908152a3565b60405162461bcd60e51b815260206004820152602660248201527f45524332303a207472616e7366657220616d6f756e7420657863656564732062604482015265616c616e636560d01b6064820152608490fd5b60405162461bcd60e51b815260206004820152602360248201527f45524332303a207472616e7366657220746f20746865207a65726f206164647260448201526265737360e81b6064820152608490fd5b60405162461bcd60e51b815260206004820152602560248201527f45524332303a207472616e736665722066726f6d20746865207a65726f206164604482015264647265737360d81b6064820152608490fd5b6001600160a01b0390811691821561240e57169182156123be5760207f8c5be1e5ebec7d5bd14f71427d1e84f3dd0314c0f7b2291e5b200ac8c7c3b925918360005260018252604060002085600052825280604060002055604051908152a3565b60405162461bcd60e51b815260206004820152602260248201527f45524332303a20617070726f766520746f20746865207a65726f206164647265604482015261737360f01b6064820152608490fd5b60405162461bcd60e51b8152602060048201526024808201527f45524332303a20617070726f76652066726f6d20746865207a65726f206164646044820152637265737360e01b6064820152608490fd5b818102929181159184041417156114a457565b908151811015612483570160200190565b634e487b7160e01b600052603260045260246000fd5b90816020910312610281575180151581036102815790565b919082039182116114a457565b6040516323b872dd60e01b60208083019182526001600160a01b039485166024840152948416604483015260648083019690965294815292939260a081019267ffffffffffffffff928385118386101761094357169160e0820190811184821017610943576040528483527f5361666545524332303a206c6f772d6c6576656c2063616c6c206661696c656460c08201525161258a93600091829182855af13d15612612573d9161256e83611dd3565b9261257c6040519485611c7e565b83523d60008785013e612616565b8051908282159283156125fa575b505050156125a35750565b6084906040519062461bcd60e51b82526004820152602a60248201527f5361666545524332303a204552433230206f7065726174696f6e20646964206e6044820152691bdd081cdd58d8d9595960b21b6064820152fd5b61260a9350820181019101612499565b388281612598565b6060915b91929015612678575081511561262a575090565b3b156126335790565b60405162461bcd60e51b815260206004820152601d60248201527f416464726573733a2063616c6c20746f206e6f6e2d636f6e74726163740000006044820152606490fd5b82519091501561268b5750805190602001fd5b60405162461bcd60e51b815260206004820152908190611fa8906024830190611bf3565b9060ff8091169116039060ff82116114a457565b604d81116114a457600a0a90565b600954908115612757578160001904811161279d576126ef836127af565b9160018060a01b03670de0b6b3a764000061271882600f541693612712856127af565b9561245f565b04941614801561278e575b6127895760ff811660ff83161060001461276d5761274661274c9260ff926126af565b166126c3565b908115612757570490565b634e487b7160e01b600052601260045260246000fd5b60ff6127466127809261278695946126af565b9061245f565b90565b505090565b5060ff811660ff831614612723565b604051636be580af60e11b8152600490fd5b6001600160a01b0316801561282e5760206004916040519283809263313ce56760e01b82525afa80916000916127ec575b50906127865750600690565b6020813d8211612826575b8161280460209383611c7e565b8101031261282257519060ff8216820361281f5750386127e0565b80fd5b5080fd5b3d91506127f7565b5060069056fe2f8788117e7eff1d82e926ec794901d17c78024a50270940304540a733656f0dc65a7bb8d6351c1cf70c95a316cc6a92839c986682d98bc35f958f4883f9d2a831ecc21a745e3968a04e9570e4425bc18fa8019c68028196b546d1669c200c68e95a9b683b92666d9d797e8627c0dc38b1c77c37da9fff26b230498928bc79f5f3f7a9fe364faab93b216da50a3214154f22a0a2b415b23a84c8169e8b636ee31b6847dc741a1b0cd08d278845f9d819d87b734759afb55fe2de5cb82a9ae672a2646970667358221220fbd3a70e94bbd63b24e706426f554fec45f954563f0428247c98cb49eb36048064736f6c634300081300332f8788117e7eff1d82e926ec794901d17c78024a50270940304540a733656f0d",
  "linkReferences": {},
  "deployedLinkReferences": {}
}