{
  "_format": "hh-sol-artifact-1",
  "contractName": "PropertyTokenFactory",
  "sourceName": "contracts/PropertyTokenFactory.sol",
  "abi": [
    {
      "inputs": [
        {
          "internalType": "address",
          "name": "_userRegistry",
          "type": "address"
        },
        {
          "internalType": "address",
          "name": "_systemConfig",
          "type": "address"
        }
      ],
      "stateMutability": "nonpayable",
      "type": "constructor"
    },
    {
      "anonymous": false,
      "inputs": [
        {
          "indexed": true,
          "internalType": "string",
          "name": "serverId",
          "type": "string"
        },
        {
          "indexed": false,
          "internalType": "enum PropertyTokenFactory.PropertyStatus",
          "name": "oldStatus",
          "type": "uint8"
        },
        {
          "indexed": false,
          "internalType": "enum PropertyTokenFactory.PropertyStatus",
          "name": "newStatus",
          "type": "uint8"
        }
      ],
      "name": "PropertyStatusUpdated",
      "type": "event"
    },
    {
      "anonymous": false,
      "inputs": [
        {
          "indexed": true,
          "internalType": "string",
          "name": "serverId",
          "type": "string"
        },
        {
          "indexed": true,
          "internalType": "address",
          "name": "tokenAddress",
          "type": "address"
        },
        {
          "indexed": true,
          "internalType": "address",
          "name": "owner",
          "type": "address"
        },
        {
          "indexed": false,
          "internalType": "string",
          "name": "propertyCode",
          "type": "string"
        },
        {
          "indexed": false,
          "internalType": "uint256",
          "name": "valuation",
          "type": "uint256"
        },
        {
          "indexed": false,
          "internalType": "uint256",
          "name": "tokenSupply",
          "type": "uint256"
        }
      ],
      "name": "PropertyTokenCreated",
      "type": "event"
    },
    {
      "anonymous": false,
      "inputs": [
        {
          "indexed": true,
          "internalType": "bytes32",
          "name": "role",
          "type": "bytes32"
        },
        {
          "indexed": true,
          "internalType": "bytes32",
          "name": "previousAdminRole",
          "type": "bytes32"
        },
        {
          "indexed": true,
          "internalType": "bytes32",
          "name": "newAdminRole",
          "type": "bytes32"
        }
      ],
      "name": "RoleAdminChanged",
      "type": "event"
    },
    {
      "anonymous": false,
      "inputs": [
        {
          "indexed": true,
          "internalType": "bytes32",
          "name": "role",
          "type": "bytes32"
        },
        {
          "indexed": true,
          "internalType": "address",
          "name": "account",
          "type": "address"
        },
        {
          "indexed": true,
          "internalType": "address",
          "name": "sender",
          "type": "address"
        }
      ],
      "name": "RoleGranted",
      "type": "event"
    },
    {
      "anonymous": false,
      "inputs": [
        {
          "indexed": true,
          "internalType": "bytes32",
          "name": "role",
          "type": "bytes32"
        },
        {
          "indexed": true,
          "internalType": "address",
          "name": "account",
          "type": "address"
        },
        {
          "indexed": true,
          "internalType": "address",
          "name": "sender",
          "type": "address"
        }
      ],
      "name": "RoleRevoked",
      "type": "event"
    },
    {
      "inputs": [],
      "name": "DEFAULT_ADMIN_ROLE",
      "outputs": [
        {
          "internalType": "bytes32",
          "name": "",
          "type": "bytes32"
        }
      ],
      "stateMutability": "view",
      "type": "function"
    },
    {
      "inputs": [],
      "name": "LOCKED_PERCENTAGE",
      "outputs": [
        {
          "internalType": "uint256",
          "name": "",
          "type": "uint256"
        }
      ],
      "stateMutability": "view",
      "type": "function"
    },
    {
      "inputs": [],
      "name": "OPERATOR_ROLE",
      "outputs": [
        {
          "internalType": "bytes32",
          "name": "",
          "type": "bytes32"
        }
      ],
      "stateMutability": "view",
      "type": "function"
    },
    {
      "inputs": [
        {
          "internalType": "string",
          "name": "serverId",
          "type": "string"
        }
      ],
      "name": "activateProperty",
      "outputs": [],
      "stateMutability": "nonpayable",
      "type": "function"
    },
    {
      "inputs": [
        {
          "internalType": "string",
          "name": "serverId",
          "type": "string"
        }
      ],
      "name": "approveProperty",
      "outputs": [],
      "stateMutability": "nonpayable",
      "type": "function"
    },
    {
      "inputs": [
        {
          "internalType": "string",
          "name": "name",
          "type": "string"
        },
        {
          "internalType": "string",
          "name": "symbol",
          "type": "string"
        },
        {
          "internalType": "uint256",
          "name": "valuation",
          "type": "uint256"
        },
        {
          "internalType": "uint256",
          "name": "tokenSupply",
          "type": "uint256"
        },
        {
          "internalType": "string",
          "name": "ipfsHash",
          "type": "string"
        },
        {
          "components": [
            {
              "internalType": "string",
              "name": "countryCode",
              "type": "string"
            },
            {
              "internalType": "string",
              "name": "cityCode",
              "type": "string"
            },
            {
              "internalType": "string",
              "name": "propertyType",
              "type": "string"
            }
          ],
          "internalType": "struct PropertyTokenFactory.PropertyLocation",
          "name": "location",
          "type": "tuple"
        },
        {
          "internalType": "string",
          "name": "serverId",
          "type": "string"
        }
      ],
      "name": "createPropertyToken",
      "outputs": [
        {
          "internalType": "address",
          "name": "tokenAddress",
          "type": "address"
        }
      ],
      "stateMutability": "nonpayable",
      "type": "function"
    },
    {
      "inputs": [
        {
          "internalType": "string",
          "name": "serverId",
          "type": "string"
        }
      ],
      "name": "getPropertyInfo",
      "outputs": [
        {
          "components": [
            {
              "internalType": "string",
              "name": "serverId",
              "type": "string"
            },
            {
              "internalType": "address",
              "name": "tokenAddress",
              "type": "address"
            },
            {
              "internalType": "address",
              "name": "propertyOwner",
              "type": "address"
            },
            {
              "internalType": "uint256",
              "name": "propertyValuation",
              "type": "uint256"
            },
            {
              "internalType": "uint256",
              "name": "issuePrice",
              "type": "uint256"
            },
            {
              "internalType": "string",
              "name": "propertyCode",
              "type": "string"
            },
            {
              "internalType": "string",
              "name": "ipfsHash",
              "type": "string"
            },
            {
              "internalType": "string",
              "name": "countryCode",
              "type": "string"
            },
            {
              "internalType": "enum PropertyTokenFactory.PropertyStatus",
              "name": "status",
              "type": "uint8"
            },
            {
              "internalType": "uint256",
              "name": "createdAt",
              "type": "uint256"
            },
            {
              "internalType": "uint256",
              "name": "updatedAt",
              "type": "uint256"
            }
          ],
          "internalType": "struct PropertyTokenFactory.PropertyInfo",
          "name": "",
          "type": "tuple"
        }
      ],
      "stateMutability": "view",
      "type": "function"
    },
    {
      "inputs": [
        {
          "internalType": "bytes32",
          "name": "role",
          "type": "bytes32"
        }
      ],
      "name": "getRoleAdmin",
      "outputs": [
        {
          "internalType": "bytes32",
          "name": "",
          "type": "bytes32"
        }
      ],
      "stateMutability": "view",
      "type": "function"
    },
    {
      "inputs": [],
      "name": "getTotalProperties",
      "outputs": [
        {
          "internalType": "uint256",
          "name": "",
          "type": "uint256"
        }
      ],
      "stateMutability": "view",
      "type": "function"
    },
    {
      "inputs": [
        {
          "internalType": "bytes32",
          "name": "role",
          "type": "bytes32"
        },
        {
          "internalType": "address",
          "name": "account",
          "type": "address"
        }
      ],
      "name": "grantRole",
      "outputs": [],
      "stateMutability": "nonpayable",
      "type": "function"
    },
    {
      "inputs": [
        {
          "internalType": "bytes32",
          "name": "role",
          "type": "bytes32"
        },
        {
          "internalType": "address",
          "name": "account",
          "type": "address"
        }
      ],
      "name": "hasRole",
      "outputs": [
        {
          "internalType": "bool",
          "name": "",
          "type": "bool"
        }
      ],
      "stateMutability": "view",
      "type": "function"
    },
    {
      "inputs": [
        {
          "internalType": "string",
          "name": "propertyCode",
          "type": "string"
        }
      ],
      "name": "parsePropertyCode",
      "outputs": [
        {
          "internalType": "uint256",
          "name": "chainId",
          "type": "uint256"
        },
        {
          "internalType": "string",
          "name": "countryCode",
          "type": "string"
        },
        {
          "internalType": "string",
          "name": "cityCode",
          "type": "string"
        },
        {
          "internalType": "string",
          "name": "propertyType",
          "type": "string"
        },
        {
          "internalType": "uint256",
          "name": "year",
          "type": "uint256"
        },
        {
          "internalType": "string",
          "name": "serverId",
          "type": "string"
        },
        {
          "internalType": "string",
          "name": "checksum",
          "type": "string"
        }
      ],
      "stateMutability": "pure",
      "type": "function"
    },
    {
      "inputs": [
        {
          "internalType": "string",
          "name": "serverId",
          "type": "string"
        }
      ],
      "name": "pauseProperty",
      "outputs": [],
      "stateMutability": "nonpayable",
      "type": "function"
    },
    {
      "inputs": [
        {
          "internalType": "string",
          "name": "",
          "type": "string"
        }
      ],
      "name": "properties",
      "outputs": [
        {
          "internalType": "string",
          "name": "serverId",
          "type": "string"
        },
        {
          "internalType": "address",
          "name": "tokenAddress",
          "type": "address"
        },
        {
          "internalType": "address",
          "name": "propertyOwner",
          "type": "address"
        },
        {
          "internalType": "uint256",
          "name": "propertyValuation",
          "type": "uint256"
        },
        {
          "internalType": "uint256",
          "name": "issuePrice",
          "type": "uint256"
        },
        {
          "internalType": "string",
          "name": "propertyCode",
          "type": "string"
        },
        {
          "internalType": "string",
          "name": "ipfsHash",
          "type": "string"
        },
        {
          "internalType": "string",
          "name": "countryCode",
          "type": "string"
        },
        {
          "internalType": "enum PropertyTokenFactory.PropertyStatus",
          "name": "status",
          "type": "uint8"
        },
        {
          "internalType": "uint256",
          "name": "createdAt",
          "type": "uint256"
        },
        {
          "internalType": "uint256",
          "name": "updatedAt",
          "type": "uint256"
        }
      ],
      "stateMutability": "view",
      "type": "function"
    },
    {
      "inputs": [],
      "name": "propertyTokenImplementation",
      "outputs": [
        {
          "internalType": "address",
          "name": "",
          "type": "address"
        }
      ],
      "stateMutability": "view",
      "type": "function"
    },
    {
      "inputs": [
        {
          "internalType": "bytes32",
          "name": "role",
          "type": "bytes32"
        },
        {
          "internalType": "address",
          "name": "account",
          "type": "address"
        }
      ],
      "name": "renounceRole",
      "outputs": [],
      "stateMutability": "nonpayable",
      "type": "function"
    },
    {
      "inputs": [
        {
          "internalType": "bytes32",
          "name": "role",
          "type": "bytes32"
        },
        {
          "internalType": "address",
          "name": "account",
          "type": "address"
        }
      ],
      "name": "revokeRole",
      "outputs": [],
      "stateMutability": "nonpayable",
      "type": "function"
    },
    {
      "inputs": [],
      "name": "rwaExchange",
      "outputs": [
        {
          "internalType": "address",
          "name": "",
          "type": "address"
        }
      ],
      "stateMutability": "view",
      "type": "function"
    },
    {
      "inputs": [
        {
          "internalType": "address",
          "name": "_rwaExchange",
          "type": "address"
        }
      ],
      "name": "setRWAExchange",
      "outputs": [],
      "stateMutability": "nonpayable",
      "type": "function"
    },
    {
      "inputs": [
        {
          "internalType": "bytes4",
          "name": "interfaceId",
          "type": "bytes4"
        }
      ],
      "name": "supportsInterface",
      "outputs": [
        {
          "internalType": "bool",
          "name": "",
          "type": "bool"
        }
      ],
      "stateMutability": "view",
      "type": "function"
    },
    {
      "inputs": [],
      "name": "systemConfig",
      "outputs": [
        {
          "internalType": "address",
          "name": "",
          "type": "address"
        }
      ],
      "stateMutability": "view",
      "type": "function"
    },
    {
      "inputs": [],
      "name": "totalProperties",
      "outputs": [
        {
          "internalType": "uint256",
          "name": "",
          "type": "uint256"
        }
      ],
      "stateMutability": "view",
      "type": "function"
    },
    {
      "inputs": [
        {
          "internalType": "string",
          "name": "serverId",
          "type": "string"
        },
        {
          "internalType": "enum PropertyTokenFactory.PropertyStatus",
          "name": "newStatus",
          "type": "uint8"
        }
      ],
      "name": "updatePropertyStatus",
      "outputs": [],
      "stateMutability": "nonpayable",
      "type": "function"
    },
    {
      "inputs": [
        {
          "internalType": "string",
          "name": "",
          "type": "string"
        }
      ],
      "name": "usedPropertyCodes",
      "outputs": [
        {
          "internalType": "bool",
          "name": "",
          "type": "bool"
        }
      ],
      "stateMutability": "view",
      "type": "function"
    },
    {
      "inputs": [],
      "name": "userRegistry",
      "outputs": [
        {
          "internalType": "address",
          "name": "",
          "type": "address"
        }
      ],
      "stateMutability": "view",
      "type": "function"
    },
    {
      "inputs": [
        {
          "internalType": "string",
          "name": "propertyCode",
          "type": "string"
        }
      ],
      "name": "validatePropertyCode",
      "outputs": [
        {
          "internalType": "bool",
          "name": "",
          "type": "bool"
        }
      ],
      "stateMutability": "pure",
      "type": "function"
    }
  ],
  "bytecode": "0x608060405260006004553480156200001657600080fd5b5060405162005577380380620055778339810160408190526200003991620001c7565b600180556200004a600033620000fb565b620000767f97667070c54ef182b0f5858b034beac1b6f3089aa2d3188bb1e8929f4fa9b92933620000fb565b600680546001600160a01b038085166001600160a01b0319928316179092556007805492841692909116919091179055604051620000b4906200019c565b604051809103906000f080158015620000d1573d6000803e3d6000fd5b50600580546001600160a01b0319166001600160a01b039290921691909117905550620001ff9050565b6000828152602081815260408083206001600160a01b038516845290915290205460ff1662000198576000828152602081815260408083206001600160a01b03851684529091529020805460ff19166001179055620001573390565b6001600160a01b0316816001600160a01b0316837f2f8788117e7eff1d82e926ec794901d17c78024a50270940304540a733656f0d60405160405180910390a45b5050565b61275a8062002e1d83390190565b80516001600160a01b0381168114620001c257600080fd5b919050565b60008060408385031215620001db57600080fd5b620001e683620001aa565b9150620001f660208401620001aa565b90509250929050565b612c0e806200020f6000396000f3fe608060405234801561001057600080fd5b506004361061018e5760003560e01c806391d14854116100de578063b65c736311610097578063d693620f11610071578063d693620f146103b6578063ea2b1839146103c9578063f0f216a8146103d2578063f5b541a6146103e557600080fd5b8063b65c73631461037b578063d328c0f614610390578063d547741f146103a357600080fd5b806391d14854146102ea57806396530199146102fd578063981d1a2c146103105780639be8f2a6146103365780639e3d202c14610360578063a217fddf1461037357600080fd5b80632f2ff15d1161014b5780635c7460d6116101255780635c7460d61461028357806363ceb67d146102965780637386eeea146102c457806374bd5a97146102d757600080fd5b80632f2ff15d1461023257806333d7e2bd1461024557806336568abe1461027057600080fd5b806301ffc9a7146101935780630b3bce20146101bb57806317aaf5ed146101d257806321869932146101da578063248a9ca3146101ef5780632ac3062614610212575b600080fd5b6101a66101a136600461204d565b6103fa565b60405190151581526020015b60405180910390f35b6101c460045481565b6040519081526020016101b2565b6004546101c4565b6101ed6101e836600461211a565b610431565b005b6101c46101fd366004612170565b60009081526020819052604090206001015490565b610225610220366004612189565b610458565b6040516101b2919061224e565b6101ed610240366004612356565b610757565b600754610258906001600160a01b031681565b6040516001600160a01b0390911681526020016101b2565b6101ed61027e366004612356565b61077c565b600654610258906001600160a01b031681565b6101a66102a4366004612189565b805160208183018101805160038252928201919093012091525460ff1681565b6101ed6102d236600461237b565b6107ff565b6102586102e5366004612447565b61082d565b6101a66102f8366004612356565b610c44565b6101ed61030b366004612189565b610c6d565b61032361031e366004612189565b610c90565b6040516101b2979695949392919061252c565b610349610344366004612189565b610d63565b6040516101b29b9a999897969594939291906125a7565b6101ed61036e366004612189565b610ff8565b6101c4600081565b6101a6610389366004612189565b51601b1490565b6101ed61039e366004612189565b61101b565b6101ed6103b1366004612356565b61103e565b600854610258906001600160a01b031681565b6101c461015181565b600554610258906001600160a01b031681565b6101c4600080516020612bb983398151915281565b60006001600160e01b03198216637965db0b60e01b148061042b57506301ffc9a760e01b6001600160e01b03198316145b92915050565b600080516020612bb983398151915261044981611063565b6104538383611070565b505050565b610460611fd0565b6002826040516104709190612648565b90815260200160405180910390206040518061016001604052908160008201805461049a90612664565b80601f01602080910402602001604051908101604052809291908181526020018280546104c690612664565b80156105135780601f106104e857610100808354040283529160200191610513565b820191906000526020600020905b8154815290600101906020018083116104f657829003601f168201915b505050918352505060018201546001600160a01b0390811660208301526002830154166040820152600382015460608201526004820154608082015260058201805460a09092019161056490612664565b80601f016020809104026020016040519081016040528092919081815260200182805461059090612664565b80156105dd5780601f106105b2576101008083540402835291602001916105dd565b820191906000526020600020905b8154815290600101906020018083116105c057829003601f168201915b505050505081526020016006820180546105f690612664565b80601f016020809104026020016040519081016040528092919081815260200182805461062290612664565b801561066f5780601f106106445761010080835404028352916020019161066f565b820191906000526020600020905b81548152906001019060200180831161065257829003601f168201915b5050505050815260200160078201805461068890612664565b80601f01602080910402602001604051908101604052809291908181526020018280546106b490612664565b80156107015780601f106106d657610100808354040283529160200191610701565b820191906000526020600020905b8154815290600101906020018083116106e457829003601f168201915b5050509183525050600882015460209091019060ff16600681111561072857610728612216565b600681111561073957610739612216565b815260098201546020820152600a9091015460409091015292915050565b60008281526020819052604090206001015461077281611063565b61045383836111ea565b6001600160a01b03811633146107f15760405162461bcd60e51b815260206004820152602f60248201527f416363657373436f6e74726f6c3a2063616e206f6e6c792072656e6f756e636560448201526e103937b632b9903337b91039b2b63360891b60648201526084015b60405180910390fd5b6107fb828261126e565b5050565b600061080a81611063565b50600880546001600160a01b0319166001600160a01b0392909216919091179055565b60006108376112d3565b600080516020612bb983398151915261084f81611063565b61085b8787868661132c565b6000610867858561157d565b90506003816040516108799190612648565b9081526040519081900360200190205460ff16156108d95760405162461bcd60e51b815260206004820152601a60248201527f50726f706572747920636f646520616c7265616479207573656400000000000060448201526064016107e8565b6000876001816108ec8c620f42406126b4565b6108f691906126cb565b61090091906126de565b61090a9190612707565b600554909150610922906001600160a01b0316611679565b93506109aa848c8c600760009054906101000a90046001600160a01b03166001600160a01b031663599270446040518163ffffffff1660e01b8152600401602060405180830381865afa15801561097d573d6000803e3d6000fd5b505050506040513d601f19601f820116820180604052508101906109a1919061271b565b8986888f611713565b604051806101600160405280868152602001856001600160a01b03168152602001600760009054906101000a90046001600160a01b03166001600160a01b031663599270446040518163ffffffff1660e01b8152600401602060405180830381865afa158015610a1e573d6000803e3d6000fd5b505050506040513d601f19601f82011682018060405250810190610a42919061271b565b6001600160a01b03168152602081018b9052604081018390526060810184905260808101899052875160a082015260c0016000815260200142815260200142815250600286604051610a949190612648565b90815260405190819003602001902081518190610ab19082612786565b5060208201516001820180546001600160a01b039283166001600160a01b0319918216179091556040840151600284018054919093169116179055606082015160038201556080820151600482015560a08201516005820190610b149082612786565b5060c08201516006820190610b299082612786565b5060e08201516007820190610b3e9082612786565b5061010082015160088201805460ff19166001836006811115610b6357610b63612216565b0217905550610120820151816009015561014082015181600a01559050506001600383604051610b939190612648565b908152604051908190036020019020805491151560ff19909216919091179055336001600160a01b0316846001600160a01b031686604051610bd59190612648565b60405180910390207f46a43e9b7a61974fce8b5a512b4af51f9d183dff9bc2084c2367c609d43842a7858d8d604051610c1093929190612846565b60405180910390a460048054906000610c288361286b565b9190505550505050610c3960018055565b979650505050505050565b6000918252602082815260408084206001600160a01b0393909316845291905290205460ff1690565b600080516020612bb9833981519152610c8581611063565b6107fb826001611070565b6000606080606060006060808751601b14610ced5760405162461bcd60e51b815260206004820152601c60248201527f496e76616c69642070726f706572747920636f6465206c656e6774680000000060448201526064016107e8565b87610cfb8160006002611797565b9750610d0a8160026003611855565b9650610d198160056003611855565b9550610d288160086003611855565b9450610d3781600b6004611797565b9350610d4681600f600a611855565b9250610d558160196002611855565b915050919395979092949650565b8051602081830181018051600282529282019190930120915280548190610d8990612664565b80601f0160208091040260200160405190810160405280929190818152602001828054610db590612664565b8015610e025780601f10610dd757610100808354040283529160200191610e02565b820191906000526020600020905b815481529060010190602001808311610de557829003601f168201915b505050600184015460028501546003860154600487015460058801805497986001600160a01b03958616989490951696509194509291610e4190612664565b80601f0160208091040260200160405190810160405280929190818152602001828054610e6d90612664565b8015610eba5780601f10610e8f57610100808354040283529160200191610eba565b820191906000526020600020905b815481529060010190602001808311610e9d57829003601f168201915b505050505090806006018054610ecf90612664565b80601f0160208091040260200160405190810160405280929190818152602001828054610efb90612664565b8015610f485780601f10610f1d57610100808354040283529160200191610f48565b820191906000526020600020905b815481529060010190602001808311610f2b57829003601f168201915b505050505090806007018054610f5d90612664565b80601f0160208091040260200160405190810160405280929190818152602001828054610f8990612664565b8015610fd65780601f10610fab57610100808354040283529160200191610fd6565b820191906000526020600020905b815481529060010190602001808311610fb957829003601f168201915b5050505060088301546009840154600a90940154929360ff909116929091508b565b600080516020612bb983398151915261101081611063565b6107fb826003611070565b600080516020612bb983398151915261103381611063565b6107fb826002611070565b60008281526020819052604090206001015461105981611063565b610453838361126e565b61106d813361190b565b50565b60006002836040516110829190612648565b908152604051908190036020019020600881015490915060ff166110a68184611964565b6110f25760405162461bcd60e51b815260206004820152601960248201527f496e76616c696420737461747573207472616e736974696f6e0000000000000060448201526064016107e8565b60088201805484919060ff1916600183600681111561111357611113612216565b021790555042600a83015560018201546001600160a01b0316638ab43e97600285600681111561114557611145612216565b6040516001600160e01b031960e085901b16815291146004820152602401600060405180830381600087803b15801561117d57600080fd5b505af1158015611191573d6000803e3d6000fd5b50505050836040516111a39190612648565b60405180910390207f39aeb5385f856ce44d9fc3cc968fdd5d4c1e59c380c0a4c0923513423f0513db82856040516111dc929190612884565b60405180910390a250505050565b6111f48282610c44565b6107fb576000828152602081815260408083206001600160a01b03851684529091529020805460ff1916600117905561122a3390565b6001600160a01b0316816001600160a01b0316837f2f8788117e7eff1d82e926ec794901d17c78024a50270940304540a733656f0d60405160405180910390a45050565b6112788282610c44565b156107fb576000828152602081815260408083206001600160a01b0385168085529252808320805460ff1916905551339285917ff6391f5c32d9c69d2a47ea670b442974b53935d1edc7fd64eb21e047a839171b9190a45050565b6002600154036113255760405162461bcd60e51b815260206004820152601f60248201527f5265656e7472616e637947756172643a207265656e7472616e742063616c6c0060448201526064016107e8565b6002600155565b60075460408051630807006960e31b815290516000926001600160a01b03169163403803489160048083019260a09291908290030181865afa158015611376573d6000803e3d6000fd5b505050506040513d601f19601f8201168201806040525081019061139a919061289f565b80519091508510156113e25760405162461bcd60e51b815260206004820152601160248201527056616c756174696f6e20746f6f206c6f7760781b60448201526064016107e8565b806020015185111561142b5760405162461bcd60e51b81526020600482015260126024820152710acc2d8eac2e8d2dedc40e8dede40d0d2ced60731b60448201526064016107e8565b6000841161148a5760405162461bcd60e51b815260206004820152602660248201527f546f6b656e20737570706c79206d7573742062652067726561746572207468616044820152656e207a65726f60d01b60648201526084016107e8565b6b033b2e3c9fd0803ce80000008411156114df5760405162461bcd60e51b8152602060048201526016602482015275546f6b656e20737570706c7920746f6f206c6172676560501b60448201526064016107e8565b8151600a146115305760405162461bcd60e51b815260206004820152601860248201527f496e76616c696420736572766572204944206c656e677468000000000000000060448201526064016107e8565b8251516115765760405162461bcd60e51b8152602060048201526014602482015273496e76616c696420636f756e74727920636f646560601b60448201526064016107e8565b5050505050565b60608151600a146115d05760405162461bcd60e51b815260206004820152601f60248201527f536572766572204944206d75737420626520313020636861726163746572730060448201526064016107e8565b60006115dd60644661291a565b905060006115ec826002611a7d565b905060006115fe6301e1338042612707565b61160a906107b26126cb565b90506000611619826004611a7d565b905060006116378489600001518a602001518b60400151868c611bb0565b88516020808b01516040808d0151905194955061165d9489949388918e9189910161292e565b6040516020818303038152906040529550505050505092915050565b6000763d602d80600a3d3981f3363d3d373d3d3d363d730000008260601b60e81c176000526e5af43d82803e903d91602b57fd5bf38260781b17602052603760096000f090506001600160a01b03811661170e5760405162461bcd60e51b8152602060048201526016602482015275115490cc4c4d8dce8818dc99585d194819985a5b195960521b60448201526064016107e8565b919050565b600654600754604051638c5cde2f60e01b81526001600160a01b03808c1693638c5cde2f9361175b938d938d938d938d938d938d933093908216929116908d906004016129c0565b600060405180830381600087803b15801561177557600080fd5b505af1158015611789573d6000803e3d6000fd5b505050505050505050505050565b600080805b8381101561184a5760006030876117b384896126cb565b815181106117c3576117c3612a52565b01602001516117d5919060f81c612a68565b905060098160ff16111561181b5760405162461bcd60e51b815260206004820152600d60248201526c125b9d985b1a5908191a59da5d609a1b60448201526064016107e8565b60ff811661182a84600a6126b4565b61183491906126cb565b92505080806118429061286b565b91505061179c565b5090505b9392505050565b606060008267ffffffffffffffff81111561187257611872612077565b6040519080825280601f01601f19166020018201604052801561189c576020820181803683370190505b50905060005b8381101561184a57856118b582876126cb565b815181106118c5576118c5612a52565b602001015160f81c60f81b8282815181106118e2576118e2612a52565b60200101906001600160f81b031916908160001a905350806119038161286b565b9150506118a2565b6119158282610c44565b6107fb5761192281611ce9565b61192d836020611cfb565b60405160200161193e929190612a81565b60408051601f198184030181529082905262461bcd60e51b82526107e891600401612af6565b60008083600681111561197957611979612216565b036119b85760015b82600681111561199357611993612216565b14806119b1575060035b8260068111156119af576119af612216565b145b905061042b565b60018360068111156119cc576119cc612216565b036119d8576002611981565b60028360068111156119ec576119ec612216565b03611a145760035b826006811115611a0657611a06612216565b14806119b15750600461199d565b6003836006811115611a2857611a28612216565b03611a345760026119f4565b6004836006811115611a4857611a48612216565b03611a5457600561199d565b6005836006811115611a6857611a68612216565b03611a7457600661199d565b50600092915050565b606082600003611aaa576119b1604051806040016040528060018152602001600360fc1b81525083611e97565b8260005b8115611ad45780611abe8161286b565b9150611acd9050600a83612707565b9150611aae565b60008167ffffffffffffffff811115611aef57611aef612077565b6040519080825280601f01601f191660200182016040528015611b19576020820181803683370190505b509050815b8615611ba657611b2f6001826126de565b90506000611b3e600a89612707565b611b4990600a6126b4565b611b5390896126de565b611b5e906030612b09565b905060008160f81b905080848481518110611b7b57611b7b612a52565b60200101906001600160f81b031916908160001a905350611b9d600a8a612707565b98505050611b1e565b610c398287611e97565b60606000878787878787604051602001611bcf96959493929190612b22565b60408051601f1981840301815282825280516020808301919091208484018452601085526f181899199a1a9b1b9c1ca0a121a222a360811b82860152835160028082528186019095529295509360f085901b93909260009290919082018180368337505083519192508391600086901a60041c600f1691508110611c5557611c55612a52565b602001015160f81c60f81b81600081518110611c7357611c73612a52565b60200101906001600160f81b031916908160001a90535081836000825191901a600f16908110611ca557611ca5612a52565b602001015160f81c60f81b81600181518110611cc357611cc3612a52565b60200101906001600160f81b031916908160001a9053509b9a5050505050505050505050565b606061042b6001600160a01b03831660145b60606000611d0a8360026126b4565b611d159060026126cb565b67ffffffffffffffff811115611d2d57611d2d612077565b6040519080825280601f01601f191660200182016040528015611d57576020820181803683370190505b509050600360fc1b81600081518110611d7257611d72612a52565b60200101906001600160f81b031916908160001a905350600f60fb1b81600181518110611da157611da1612a52565b60200101906001600160f81b031916908160001a9053506000611dc58460026126b4565b611dd09060016126cb565b90505b6001811115611e48576f181899199a1a9b1b9c1cb0b131b232b360811b85600f1660108110611e0457611e04612a52565b1a60f81b828281518110611e1a57611e1a612a52565b60200101906001600160f81b031916908160001a90535060049490941c93611e4181612ba1565b9050611dd3565b50831561184e5760405162461bcd60e51b815260206004820181905260248201527f537472696e67733a20686578206c656e67746820696e73756666696369656e7460448201526064016107e8565b6060600083905082815110611eaf578391505061042b565b60008367ffffffffffffffff811115611eca57611eca612077565b6040519080825280601f01601f191660200182016040528015611ef4576020820181803683370190505b5090506000825185611f0691906126de565b905060005b81811015611f5357600360fc1b838281518110611f2a57611f2a612a52565b60200101906001600160f81b031916908160001a90535080611f4b8161286b565b915050611f0b565b5060005b8351811015611fc557838181518110611f7257611f72612a52565b01602001516001600160f81b03191683611f8c83856126cb565b81518110611f9c57611f9c612a52565b60200101906001600160f81b031916908160001a90535080611fbd8161286b565b915050611f57565b509095945050505050565b6040518061016001604052806060815260200160006001600160a01b0316815260200160006001600160a01b0316815260200160008152602001600081526020016060815260200160608152602001606081526020016000600681111561203957612039612216565b815260200160008152602001600081525090565b60006020828403121561205f57600080fd5b81356001600160e01b03198116811461184e57600080fd5b634e487b7160e01b600052604160045260246000fd5b600082601f83011261209e57600080fd5b813567ffffffffffffffff808211156120b9576120b9612077565b604051601f8301601f19908116603f011681019082821181831017156120e1576120e1612077565b816040528381528660208588010111156120fa57600080fd5b836020870160208301376000602085830101528094505050505092915050565b6000806040838503121561212d57600080fd5b823567ffffffffffffffff81111561214457600080fd5b6121508582860161208d565b92505060208301356007811061216557600080fd5b809150509250929050565b60006020828403121561218257600080fd5b5035919050565b60006020828403121561219b57600080fd5b813567ffffffffffffffff8111156121b257600080fd5b6121be8482850161208d565b949350505050565b60005b838110156121e15781810151838201526020016121c9565b50506000910152565b600081518084526122028160208601602086016121c6565b601f01601f19169290920160200192915050565b634e487b7160e01b600052602160045260246000fd5b6007811061224a57634e487b7160e01b600052602160045260246000fd5b9052565b602081526000825161016080602085015261226d6101808501836121ea565b9150602085015161228960408601826001600160a01b03169052565b5060408501516001600160a01b03811660608601525060608501516080850152608085015160a085015260a0850151601f19808685030160c08701526122cf84836121ea565b935060c08701519150808685030160e08701526122ec84836121ea565b935060e0870151915061010081878603018188015261230b85846121ea565b945080880151925050506101206123248187018361222c565b860151610140868101919091529095015193019290925250919050565b6001600160a01b038116811461106d57600080fd5b6000806040838503121561236957600080fd5b82359150602083013561216581612341565b60006020828403121561238d57600080fd5b813561184e81612341565b6000606082840312156123aa57600080fd5b6040516060810167ffffffffffffffff82821081831117156123ce576123ce612077565b8160405282935084359150808211156123e657600080fd5b6123f28683870161208d565b8352602085013591508082111561240857600080fd5b6124148683870161208d565b6020840152604085013591508082111561242d57600080fd5b5061243a8582860161208d565b6040830152505092915050565b600080600080600080600060e0888a03121561246257600080fd5b873567ffffffffffffffff8082111561247a57600080fd5b6124868b838c0161208d565b985060208a013591508082111561249c57600080fd5b6124a88b838c0161208d565b975060408a0135965060608a0135955060808a01359150808211156124cc57600080fd5b6124d88b838c0161208d565b945060a08a01359150808211156124ee57600080fd5b6124fa8b838c01612398565b935060c08a013591508082111561251057600080fd5b5061251d8a828b0161208d565b91505092959891949750929550565b87815260e06020820152600061254560e08301896121ea565b828103604084015261255781896121ea565b9050828103606084015261256b81886121ea565b905085608084015282810360a084015261258581866121ea565b905082810360c084015261259981856121ea565b9a9950505050505050505050565b60006101608083526125bb8184018f6121ea565b6001600160a01b038e811660208601528d166040850152606084018c9052608084018b905283810360a085015290506125f4818a6121ea565b905082810360c084015261260881896121ea565b905082810360e084015261261c81886121ea565b91505061262d61010083018661222c565b61012082019390935261014001529998505050505050505050565b6000825161265a8184602087016121c6565b9190910192915050565b600181811c9082168061267857607f821691505b60208210810361269857634e487b7160e01b600052602260045260246000fd5b50919050565b634e487b7160e01b600052601160045260246000fd5b808202811582820484141761042b5761042b61269e565b8082018082111561042b5761042b61269e565b8181038181111561042b5761042b61269e565b634e487b7160e01b600052601260045260246000fd5b600082612716576127166126f1565b500490565b60006020828403121561272d57600080fd5b815161184e81612341565b601f82111561045357600081815260208120601f850160051c8101602086101561275f5750805b601f850160051c820191505b8181101561277e5782815560010161276b565b505050505050565b815167ffffffffffffffff8111156127a0576127a0612077565b6127b4816127ae8454612664565b84612738565b602080601f8311600181146127e957600084156127d15750858301515b600019600386901b1c1916600185901b17855561277e565b600085815260208120601f198616915b82811015612818578886015182559484019460019091019084016127f9565b50858210156128365787850151600019600388901b60f8161c191681555b5050505050600190811b01905550565b60608152600061285960608301866121ea565b60208301949094525060400152919050565b60006001820161287d5761287d61269e565b5060010190565b60408101612892828561222c565b61184e602083018461222c565b600060a082840312156128b157600080fd5b60405160a0810181811067ffffffffffffffff821117156128d4576128d4612077565b8060405250825181526020830151602082015260408301516040820152606083015160608201526080830151801515811461290e57600080fd5b60808201529392505050565b600082612929576129296126f1565b500690565b6000885160206129418285838e016121c6565b8951918401916129548184848e016121c6565b89519201916129668184848d016121c6565b88519201916129788184848c016121c6565b875192019161298a8184848b016121c6565b865192019161299c8184848a016121c6565b85519201916129ae81848489016121c6565b919091019a9950505050505050505050565b60006101408083526129d48184018e6121ea565b905082810360208401526129e8818d6121ea565b6001600160a01b038c811660408601528482036060860152909150612a0d828c6121ea565b915089608085015283820360a0850152612a27828a6121ea565b97811660c085015295861660e084015250509190921661010082015261012001529695505050505050565b634e487b7160e01b600052603260045260246000fd5b60ff828116828216039081111561042b5761042b61269e565b7f416363657373436f6e74726f6c3a206163636f756e7420000000000000000000815260008351612ab98160178501602088016121c6565b7001034b99036b4b9b9b4b733903937b6329607d1b6017918401918201528351612aea8160288401602088016121c6565b01602801949350505050565b60208152600061184e60208301846121ea565b60ff818116838216019081111561042b5761042b61269e565b600087516020612b358285838d016121c6565b885191840191612b488184848d016121c6565b8851920191612b5a8184848c016121c6565b8751920191612b6c8184848b016121c6565b8651920191612b7e8184848a016121c6565b8551920191612b9081848489016121c6565b919091019998505050505050505050565b600081612bb057612bb061269e565b50600019019056fe97667070c54ef182b0f5858b034beac1b6f3089aa2d3188bb1e8929f4fa9b929a2646970667358221220798d5c918b1fd10f6b4a5ddfb3d8174047dc39a5fb636efc109efc53874a4bea64736f6c6343000813003360806040523480156200001157600080fd5b506040805160208082018352600080835283519182019093529182529060036200003c838262000108565b5060046200004b828262000108565b50506001600655506007805460ff19169055620001d4565b634e487b7160e01b600052604160045260246000fd5b600181811c908216806200008e57607f821691505b602082108103620000af57634e487b7160e01b600052602260045260246000fd5b50919050565b601f8211156200010357600081815260208120601f850160051c81016020861015620000de5750805b601f850160051c820191505b81811015620000ff57828155600101620000ea565b5050505b505050565b81516001600160401b0381111562000124576200012462000063565b6200013c8162000135845462000079565b84620000b5565b602080601f8311600181146200017457600084156200015b5750858301515b600019600386901b1c1916600185901b178555620000ff565b600085815260208120601f198616915b82811015620001a55788860151825594840194600190910190840162000184565b5085821015620001c45787850151600019600388901b60f8161c191681555b5050505050600190811b01905550565b61257680620001e46000396000f3fe608060405234801561001057600080fd5b506004361061021c5760003560e01c80635c975abb11610125578063a162f019116100ad578063be079d731161007c578063be079d731461049a578063c45a0155146104a2578063d547741f146104b5578063dd62ed3e146104c8578063f446c38f146104db57600080fd5b8063a162f01914610458578063a217fddf1461046c578063a457c2d714610474578063a9059cbb1461048757600080fd5b80638a2c8a51116100f45780638a2c8a511461040f5780638ab43e97146104175780638c5cde2f1461042a57806391d148541461043d57806395d89b411461045057600080fd5b80635c975abb146103ba5780635de5f3be146103c557806370a08231146103de5780638456cb591461040757600080fd5b8063313ce567116101a8578063395093511161017757806339509351146103705780633f4ba83a14610383578063504cceac1461038b5780635c2c20051461039e5780635c7460d6146103a757600080fd5b8063313ce5671461030e57806333d7e2bd1461031d57806333f33eb31461034857806336568abe1461035d57600080fd5b806318160ddd116101ef57806318160ddd1461029457806323b872dd1461029c578063248a9ca3146102af578063286e098f146102d25780632f2ff15d146102f957600080fd5b806301ffc9a71461022157806304a0fb171461024957806306fdde031461026c578063095ea7b314610281575b600080fd5b61023461022f366004611e54565b6104ee565b60405190151581526020015b60405180910390f35b61025e60008051602061252183398151915281565b604051908152602001610240565b610274610525565b6040516102409190611ece565b61023461028f366004611f06565b6105b7565b60025461025e565b6102346102aa366004611f32565b6105cf565b61025e6102bd366004611f73565b60009081526005602052604090206001015490565b61025e7ffeb983a7695463ef5b6eb7089f94f157c3c925417d08e4762b54797793ffd02881565b61030c610307366004611f8c565b6105f3565b005b60405160128152602001610240565b600e54610330906001600160a01b031681565b6040516001600160a01b039091168152602001610240565b3060009081526020819052604090205461025e565b61030c61036b366004611f8c565b61061d565b61023461037e366004611f06565b6106a0565b61030c6106c2565b61030c610399366004611f8c565b610700565b61025e60095481565b600d54610330906001600160a01b031681565b60075460ff16610234565b6103cd610cce565b604051610240959493929190611fbc565b61025e6103ec366004612005565b6001600160a01b031660009081526020819052604090205490565b61030c610e26565b610274610e62565b61030c610425366004612030565b610ef0565b61030c6104383660046120f0565b610f7c565b61023461044b366004611f8c565b611152565b61027461117d565b600e5461023490600160a01b900460ff1681565b61025e600081565b610234610482366004611f06565b61118c565b610234610495366004611f06565b611207565b610274611215565b600c54610330906001600160a01b031681565b61030c6104c3366004611f8c565b611222565b61025e6104d63660046121f5565b611247565b600b54610330906001600160a01b031681565b60006001600160e01b03198216637965db0b60e01b148061051f57506301ffc9a760e01b6001600160e01b03198316145b92915050565b6060600f805461053490612223565b80601f016020809104026020016040519081016040528092919081815260200182805461056090612223565b80156105ad5780601f10610582576101008083540402835291602001916105ad565b820191906000526020600020905b81548152906001019060200180831161059057829003601f168201915b5050505050905090565b6000336105c5818585611272565b5060019392505050565b6000336105dd858285611396565b6105e8858585611410565b506001949350505050565b60008281526005602052604090206001015461060e816115b4565b61061883836115c1565b505050565b6001600160a01b03811633146106925760405162461bcd60e51b815260206004820152602f60248201527f416363657373436f6e74726f6c3a2063616e206f6e6c792072656e6f756e636560448201526e103937b632b9903337b91039b2b63360891b60648201526084015b60405180910390fd5b61069c8282611647565b5050565b6000336105c58185856106b38383611247565b6106bd9190612273565b611272565b6106da60008051602061252183398151915233611152565b6106f65760405162461bcd60e51b815260040161068990612286565b6106fe6116ae565b565b610708611700565b600e54600160a01b900460ff166107585760405162461bcd60e51b8152602060048201526014602482015273141d5c98da185cd9481a5cc8191a5cd8589b195960621b6044820152606401610689565b600082116107a85760405162461bcd60e51b815260206004820152601d60248201527f416d6f756e74206d7573742062652067726561746572207468616e20300000006044820152606401610689565b6001600160a01b0381166107fe5760405162461bcd60e51b815260206004820152601d60248201527f496e76616c6964207061796d656e7420746f6b656e20616464726573730000006044820152606401610689565b600d546040516373bed91960e11b81523360048201526001600160a01b039091169063e77db23290602401602060405180830381865afa158015610846573d6000803e3d6000fd5b505050506040513d601f19601f8201168201806040525081019061086a91906122b5565b6108a95760405162461bcd60e51b815260206004820152601060248201526f12d650c81b9bdd08185c1c1c9bdd995960821b6044820152606401610689565b60006108b483611759565b9050600081116109145760405162461bcd60e51b815260206004820152602560248201527f5061796d656e7420616d6f756e74206d75737420626520677265617465722074604482015264068616e20360dc1b6064820152608401610689565b306000908152602081905260409020548311156109735760405162461bcd60e51b815260206004820152601d60248201527f496e73756666696369656e7420746f6b656e7320617661696c61626c650000006044820152606401610689565b6040516370a0823160e01b8152336004820152829082906001600160a01b038316906370a0823190602401602060405180830381865afa1580156109bb573d6000803e3d6000fd5b505050506040513d601f19601f820116820180604052508101906109df91906122d2565b1015610a385760405162461bcd60e51b815260206004820152602260248201527f496e73756666696369656e74207061796d656e7420746f6b656e2062616c616e604482015261636560f01b6064820152608401610689565b604051636eb1769f60e11b815233600482015230602482015282906001600160a01b0383169063dd62ed3e90604401602060405180830381865afa158015610a84573d6000803e3d6000fd5b505050506040513d601f19601f82011682018060405250810190610aa891906122d2565b1015610b025760405162461bcd60e51b8152602060048201526024808201527f496e73756666696369656e74207061796d656e7420746f6b656e20616c6c6f77604482015263616e636560e01b6064820152608401610689565b6000620f4240610b1562051615856122eb565b610b1f9190612302565b90506000610b2d8285612324565b90506000610b3b8284612273565b905084811015610b5c57610b4f8186612324565b610b599083612273565b91505b600e54604080516379022a9f60e01b815290516000926001600160a01b0316916379022a9f9160048083019260209291908290030181865afa158015610ba6573d6000803e3d6000fd5b505050506040513d601f19601f82011682018060405250810190610bca9190612337565b90506001600160a01b038116610c225760405162461bcd60e51b815260206004820152601860248201527f496e76616c6964207472656173757279206164647265737300000000000000006044820152606401610689565b8315610c3d57610c3d6001600160a01b0386163383876117ed565b8215610c5f57600b54610c5f906001600160a01b0387811691339116866117ed565b604080518981526001600160a01b038916602082015290810187905260608101859052608081018490524260a082015233907f9da440ac0d5504347dd36f662039efcfb9f8b9f6b4de38d0873c7d2d3bddac2b9060c00160405180910390a250505050505061069c6001600655565b6060600060606000806008600954600a600b60009054906101000a90046001600160a01b0316610cfd60025490565b848054610d0990612223565b80601f0160208091040260200160405190810160405280929190818152602001828054610d3590612223565b8015610d825780601f10610d5757610100808354040283529160200191610d82565b820191906000526020600020905b815481529060010190602001808311610d6557829003601f168201915b50505050509450828054610d9590612223565b80601f0160208091040260200160405190810160405280929190818152602001828054610dc190612223565b8015610e0e5780601f10610de357610100808354040283529160200191610e0e565b820191906000526020600020905b815481529060010190602001808311610df157829003601f168201915b50505050509250945094509450945094509091929394565b610e3e60008051602061252183398151915233611152565b610e5a5760405162461bcd60e51b815260040161068990612286565b6106fe611847565b600a8054610e6f90612223565b80601f0160208091040260200160405190810160405280929190818152602001828054610e9b90612223565b8015610ee85780601f10610ebd57610100808354040283529160200191610ee8565b820191906000526020600020905b815481529060010190602001808311610ecb57829003601f168201915b505050505081565b610f0860008051602061252183398151915233611152565b610f245760405162461bcd60e51b815260040161068990612286565b600e8054821515600160a01b0260ff60a01b199091161790556040517fedffa4ddf1b5cc6ab889ab92401ec44a0db5b6cdd8b11ab64808336eac8268b590610f7190831515815260200190565b60405180910390a150565b610f84611884565b5115610fc85760405162461bcd60e51b8152602060048201526013602482015272105b1c9958591e481a5b9a5d1a585b1a5e9959606a1b6044820152606401610689565b6001600160a01b0388166110175760405162461bcd60e51b815260206004820152601660248201527524b73b30b634b210383937b832b93a3c9037bbb732b960511b6044820152606401610689565b6001600160a01b03841661105f5760405162461bcd60e51b815260206004820152600f60248201526e496e76616c696420666163746f727960881b6044820152606401610689565b600f61106b8b826123a2565b5060106110788a826123a2565b50600861108588826123a2565b506009869055600a61109786826123a2565b50600b80546001600160a01b03808b166001600160a01b031992831617909255600c8054878416908316179055600d8054868416908316179055600e8054928516929091169190911790556110ed6000856115c1565b611105600080516020612521833981519152856115c1565b61112f7ffeb983a7695463ef5b6eb7089f94f157c3c925417d08e4762b54797793ffd028896115c1565b6111393082611893565b5050600e805460ff60a01b191690555050505050505050565b60009182526005602090815260408084206001600160a01b0393909316845291905290205460ff1690565b60606010805461053490612223565b6000338161119a8286611247565b9050838110156111fa5760405162461bcd60e51b815260206004820152602560248201527f45524332303a2064656372656173656420616c6c6f77616e63652062656c6f77604482015264207a65726f60d81b6064820152608401610689565b6105e88286868403611272565b6000336105c5818585611410565b60088054610e6f90612223565b60008281526005602052604090206001015461123d816115b4565b6106188383611647565b6001600160a01b03918216600090815260016020908152604080832093909416825291909152205490565b6001600160a01b0383166112d45760405162461bcd60e51b8152602060048201526024808201527f45524332303a20617070726f76652066726f6d20746865207a65726f206164646044820152637265737360e01b6064820152608401610689565b6001600160a01b0382166113355760405162461bcd60e51b815260206004820152602260248201527f45524332303a20617070726f766520746f20746865207a65726f206164647265604482015261737360f01b6064820152608401610689565b6001600160a01b0383811660008181526001602090815260408083209487168084529482529182902085905590518481527f8c5be1e5ebec7d5bd14f71427d1e84f3dd0314c0f7b2291e5b200ac8c7c3b925910160405180910390a3505050565b60006113a28484611247565b9050600019811461140a57818110156113fd5760405162461bcd60e51b815260206004820152601d60248201527f45524332303a20696e73756666696369656e7420616c6c6f77616e63650000006044820152606401610689565b61140a8484848403611272565b50505050565b6001600160a01b0383166114745760405162461bcd60e51b815260206004820152602560248201527f45524332303a207472616e736665722066726f6d20746865207a65726f206164604482015264647265737360d81b6064820152608401610689565b6001600160a01b0382166114d65760405162461bcd60e51b815260206004820152602360248201527f45524332303a207472616e7366657220746f20746865207a65726f206164647260448201526265737360e81b6064820152608401610689565b6001600160a01b0383166000908152602081905260409020548181101561154e5760405162461bcd60e51b815260206004820152602660248201527f45524332303a207472616e7366657220616d6f756e7420657863656564732062604482015265616c616e636560d01b6064820152608401610689565b6001600160a01b03848116600081815260208181526040808320878703905593871680835291849020805487019055925185815290927fddf252ad1be2c89b69c2b068fc378daa952ba7f163c4a11628f55a4df523b3ef910160405180910390a361140a565b6115be8133611952565b50565b6115cb8282611152565b61069c5760008281526005602090815260408083206001600160a01b03851684529091529020805460ff191660011790556116033390565b6001600160a01b0316816001600160a01b0316837f2f8788117e7eff1d82e926ec794901d17c78024a50270940304540a733656f0d60405160405180910390a45050565b6116518282611152565b1561069c5760008281526005602090815260408083206001600160a01b0385168085529252808320805460ff1916905551339285917ff6391f5c32d9c69d2a47ea670b442974b53935d1edc7fd64eb21e047a839171b9190a45050565b6116b66119ab565b6007805460ff191690557f5db9ee0a495bf2e6ff9c91a7834c1ba4fdd244a5e8aa4e537bd38aeae4b073aa335b6040516001600160a01b03909116815260200160405180910390a1565b6002600654036117525760405162461bcd60e51b815260206004820152601f60248201527f5265656e7472616e637947756172643a207265656e7472616e742063616c6c006044820152606401610689565b6002600655565b600060095460001961176b9190612302565b8211156117ba5760405162461bcd60e51b815260206004820152601760248201527f4d756c7469706c69636174696f6e206f766572666c6f770000000000000000006044820152606401610689565b670de0b6b3a7640000600954836117d191906122eb565b6117e390670de0b6b3a763ffff612273565b61051f9190612302565b604080516001600160a01b0385811660248301528416604482015260648082018490528251808303909101815260849091019091526020810180516001600160e01b03166323b872dd60e01b17905261140a9085906119f4565b61184f611ac9565b6007805460ff191660011790557f62e78cea01bee320cd4e420270b5ea74000d11b0c9f74754ebdbfc544b05a2586116e33390565b60606003805461053490612223565b6001600160a01b0382166118e95760405162461bcd60e51b815260206004820152601f60248201527f45524332303a206d696e7420746f20746865207a65726f2061646472657373006044820152606401610689565b80600260008282546118fb9190612273565b90915550506001600160a01b038216600081815260208181526040808320805486019055518481527fddf252ad1be2c89b69c2b068fc378daa952ba7f163c4a11628f55a4df523b3ef910160405180910390a35050565b61195c8282611152565b61069c5761196981611b0f565b611974836020611b21565b604051602001611985929190612462565b60408051601f198184030181529082905262461bcd60e51b825261068991600401611ece565b60075460ff166106fe5760405162461bcd60e51b815260206004820152601460248201527314185d5cd8589b194e881b9bdd081c185d5cd95960621b6044820152606401610689565b6000611a49826040518060400160405280602081526020017f5361666545524332303a206c6f772d6c6576656c2063616c6c206661696c6564815250856001600160a01b0316611cc49092919063ffffffff16565b9050805160001480611a6a575080806020019051810190611a6a91906122b5565b6106185760405162461bcd60e51b815260206004820152602a60248201527f5361666545524332303a204552433230206f7065726174696f6e20646964206e6044820152691bdd081cdd58d8d9595960b21b6064820152608401610689565b60075460ff16156106fe5760405162461bcd60e51b815260206004820152601060248201526f14185d5cd8589b194e881c185d5cd95960821b6044820152606401610689565b606061051f6001600160a01b03831660145b60606000611b308360026122eb565b611b3b906002612273565b67ffffffffffffffff811115611b5357611b5361204d565b6040519080825280601f01601f191660200182016040528015611b7d576020820181803683370190505b509050600360fc1b81600081518110611b9857611b986124d7565b60200101906001600160f81b031916908160001a905350600f60fb1b81600181518110611bc757611bc76124d7565b60200101906001600160f81b031916908160001a9053506000611beb8460026122eb565b611bf6906001612273565b90505b6001811115611c6e576f181899199a1a9b1b9c1cb0b131b232b360811b85600f1660108110611c2a57611c2a6124d7565b1a60f81b828281518110611c4057611c406124d7565b60200101906001600160f81b031916908160001a90535060049490941c93611c67816124ed565b9050611bf9565b508315611cbd5760405162461bcd60e51b815260206004820181905260248201527f537472696e67733a20686578206c656e67746820696e73756666696369656e746044820152606401610689565b9392505050565b6060611cd38484600085611cdb565b949350505050565b606082471015611d3c5760405162461bcd60e51b815260206004820152602660248201527f416464726573733a20696e73756666696369656e742062616c616e636520666f6044820152651c8818d85b1b60d21b6064820152608401610689565b600080866001600160a01b03168587604051611d589190612504565b60006040518083038185875af1925050503d8060008114611d95576040519150601f19603f3d011682016040523d82523d6000602084013e611d9a565b606091505b5091509150611dab87838387611db6565b979650505050505050565b60608315611e25578251600003611e1e576001600160a01b0385163b611e1e5760405162461bcd60e51b815260206004820152601d60248201527f416464726573733a2063616c6c20746f206e6f6e2d636f6e74726163740000006044820152606401610689565b5081611cd3565b611cd38383815115611e3a5781518083602001fd5b8060405162461bcd60e51b81526004016106899190611ece565b600060208284031215611e6657600080fd5b81356001600160e01b031981168114611cbd57600080fd5b60005b83811015611e99578181015183820152602001611e81565b50506000910152565b60008151808452611eba816020860160208601611e7e565b601f01601f19169290920160200192915050565b602081526000611cbd6020830184611ea2565b6001600160a01b03811681146115be57600080fd5b8035611f0181611ee1565b919050565b60008060408385031215611f1957600080fd5b8235611f2481611ee1565b946020939093013593505050565b600080600060608486031215611f4757600080fd5b8335611f5281611ee1565b92506020840135611f6281611ee1565b929592945050506040919091013590565b600060208284031215611f8557600080fd5b5035919050565b60008060408385031215611f9f57600080fd5b823591506020830135611fb181611ee1565b809150509250929050565b60a081526000611fcf60a0830188611ea2565b8660208401528281036040840152611fe78187611ea2565b6001600160a01b039590951660608401525050608001529392505050565b60006020828403121561201757600080fd5b8135611cbd81611ee1565b80151581146115be57600080fd5b60006020828403121561204257600080fd5b8135611cbd81612022565b634e487b7160e01b600052604160045260246000fd5b600082601f83011261207457600080fd5b813567ffffffffffffffff8082111561208f5761208f61204d565b604051601f8301601f19908116603f011681019082821181831017156120b7576120b761204d565b816040528381528660208588010111156120d057600080fd5b836020870160208301376000602085830101528094505050505092915050565b6000806000806000806000806000806101408b8d03121561211057600080fd5b8a3567ffffffffffffffff8082111561212857600080fd5b6121348e838f01612063565b9b5060208d013591508082111561214a57600080fd5b6121568e838f01612063565b9a5061216460408e01611ef6565b995060608d013591508082111561217a57600080fd5b6121868e838f01612063565b985060808d0135975060a08d01359150808211156121a357600080fd5b506121b08d828e01612063565b9550506121bf60c08c01611ef6565b93506121cd60e08c01611ef6565b92506121dc6101008c01611ef6565b91506101208b013590509295989b9194979a5092959850565b6000806040838503121561220857600080fd5b823561221381611ee1565b91506020830135611fb181611ee1565b600181811c9082168061223757607f821691505b60208210810361225757634e487b7160e01b600052602260045260246000fd5b50919050565b634e487b7160e01b600052601160045260246000fd5b8082018082111561051f5761051f61225d565b60208082526015908201527413db9b1e48199858dd1bdc9e4818d85b8818d85b1b605a1b604082015260600190565b6000602082840312156122c757600080fd5b8151611cbd81612022565b6000602082840312156122e457600080fd5b5051919050565b808202811582820484141761051f5761051f61225d565b60008261231f57634e487b7160e01b600052601260045260246000fd5b500490565b8181038181111561051f5761051f61225d565b60006020828403121561234957600080fd5b8151611cbd81611ee1565b601f82111561061857600081815260208120601f850160051c8101602086101561237b5750805b601f850160051c820191505b8181101561239a57828155600101612387565b505050505050565b815167ffffffffffffffff8111156123bc576123bc61204d565b6123d0816123ca8454612223565b84612354565b602080601f83116001811461240557600084156123ed5750858301515b600019600386901b1c1916600185901b17855561239a565b600085815260208120601f198616915b8281101561243457888601518255948401946001909101908401612415565b50858210156124525787850151600019600388901b60f8161c191681555b5050505050600190811b01905550565b7f416363657373436f6e74726f6c3a206163636f756e742000000000000000000081526000835161249a816017850160208801611e7e565b7001034b99036b4b9b9b4b733903937b6329607d1b60179184019182015283516124cb816028840160208801611e7e565b01602801949350505050565b634e487b7160e01b600052603260045260246000fd5b6000816124fc576124fc61225d565b506000190190565b60008251612516818460208701611e7e565b919091019291505056fedfbefbf47cfe66b701d8cfdbce1de81c821590819cb07e71cb01b6602fb0ee27a2646970667358221220b3c3dfd0c206716a1d2904e9ebf43753dc3e34872e66d6cbc8e9286b9e0265d764736f6c63430008130033",
  "linkReferences": {},
  "deployedLinkReferences": {}
}