{
  "_format": "hh-sol-artifact-1",
  "contractName": "SystemConfig",
  "sourceName": "contracts/SystemConfig.sol",
  "abi": [
    {
      "inputs": [
        {
          "internalType": "address",
          "name": "_daoTreasury",
          "type": "address"
        },
        {
          "internalType": "address",
          "name": "_teamWallet",
          "type": "address"
        },
        {
          "internalType": "address",
          "name": "_multiSigWallet",
          "type": "address"
        }
      ],
      "stateMutability": "nonpayable",
      "type": "constructor"
    },
    {
      "inputs": [],
      "name": "InvalidAddresses",
      "type": "error"
    },
    {
      "inputs": [],
      "name": "InvalidInvestmentLimit",
      "type": "error"
    },
    {
      "inputs": [],
      "name": "InvalidMaxValuation",
      "type": "error"
    },
    {
      "inputs": [],
      "name": "InvalidMinValuation",
      "type": "error"
    },
    {
      "inputs": [
        {
          "internalType": "uint256",
          "name": "period",
          "type": "uint256"
        },
        {
          "internalType": "uint256",
          "name": "minPeriod",
          "type": "uint256"
        }
      ],
      "name": "KYCPeriodTooShort",
      "type": "error"
    },
    {
      "inputs": [
        {
          "internalType": "uint256",
          "name": "fee",
          "type": "uint256"
        },
        {
          "internalType": "uint256",
          "name": "maxFee",
          "type": "uint256"
        }
      ],
      "name": "LiquidationFeeTooHigh",
      "type": "error"
    },
    {
      "inputs": [
        {
          "internalType": "uint256",
          "name": "fee",
          "type": "uint256"
        },
        {
          "internalType": "uint256",
          "name": "maxFee",
          "type": "uint256"
        }
      ],
      "name": "ManagementFeeTooHigh",
      "type": "error"
    },
    {
      "inputs": [
        {
          "internalType": "uint256",
          "name": "fee",
          "type": "uint256"
        },
        {
          "internalType": "uint256",
          "name": "maxFee",
          "type": "uint256"
        }
      ],
      "name": "MintFeeTooHigh",
      "type": "error"
    },
    {
      "inputs": [
        {
          "internalType": "uint256",
          "name": "fee",
          "type": "uint256"
        },
        {
          "internalType": "uint256",
          "name": "maxFee",
          "type": "uint256"
        }
      ],
      "name": "TradingFeeTooHigh",
      "type": "error"
    },
    {
      "inputs": [
        {
          "internalType": "uint256",
          "name": "fee",
          "type": "uint256"
        },
        {
          "internalType": "uint256",
          "name": "maxFee",
          "type": "uint256"
        }
      ],
      "name": "WithdrawalFeeTooHigh",
      "type": "error"
    },
    {
      "anonymous": false,
      "inputs": [
        {
          "components": [
            {
              "internalType": "uint256",
              "name": "propertyMintFee",
              "type": "uint256"
            },
            {
              "internalType": "uint256",
              "name": "managementFee",
              "type": "uint256"
            },
            {
              "internalType": "uint256",
              "name": "tradingFee",
              "type": "uint256"
            },
            {
              "internalType": "uint256",
              "name": "withdrawalFee",
              "type": "uint256"
            },
            {
              "internalType": "uint256",
              "name": "liquidationFee",
              "type": "uint256"
            }
          ],
          "indexed": false,
          "internalType": "struct ISystemConfig.FeeConfig",
          "name": "newConfig",
          "type": "tuple"
        }
      ],
      "name": "FeeConfigUpdated",
      "type": "event"
    },
    {
      "anonymous": false,
      "inputs": [
        {
          "indexed": true,
          "internalType": "bytes32",
          "name": "role",
          "type": "bytes32"
        },
        {
          "indexed": true,
          "internalType": "bytes32",
          "name": "previousAdminRole",
          "type": "bytes32"
        },
        {
          "indexed": true,
          "internalType": "bytes32",
          "name": "newAdminRole",
          "type": "bytes32"
        }
      ],
      "name": "RoleAdminChanged",
      "type": "event"
    },
    {
      "anonymous": false,
      "inputs": [
        {
          "indexed": true,
          "internalType": "bytes32",
          "name": "role",
          "type": "bytes32"
        },
        {
          "indexed": true,
          "internalType": "address",
          "name": "account",
          "type": "address"
        },
        {
          "indexed": true,
          "internalType": "address",
          "name": "sender",
          "type": "address"
        }
      ],
      "name": "RoleGranted",
      "type": "event"
    },
    {
      "anonymous": false,
      "inputs": [
        {
          "indexed": true,
          "internalType": "bytes32",
          "name": "role",
          "type": "bytes32"
        },
        {
          "indexed": true,
          "internalType": "address",
          "name": "account",
          "type": "address"
        },
        {
          "indexed": true,
          "internalType": "address",
          "name": "sender",
          "type": "address"
        }
      ],
      "name": "RoleRevoked",
      "type": "event"
    },
    {
      "anonymous": false,
      "inputs": [
        {
          "components": [
            {
              "internalType": "uint256",
              "name": "minPropertyValuation",
              "type": "uint256"
            },
            {
              "internalType": "uint256",
              "name": "maxPropertyValuation",
              "type": "uint256"
            },
            {
              "internalType": "uint256",
              "name": "maxInvestmentPerUser",
              "type": "uint256"
            },
            {
              "internalType": "uint256",
              "name": "kycValidityPeriod",
              "type": "uint256"
            },
            {
              "internalType": "bool",
              "name": "systemPaused",
              "type": "bool"
            }
          ],
          "indexed": false,
          "internalType": "struct ISystemConfig.SystemParams",
          "name": "newParams",
          "type": "tuple"
        }
      ],
      "name": "SystemParamsUpdated",
      "type": "event"
    },
    {
      "anonymous": false,
      "inputs": [
        {
          "indexed": false,
          "internalType": "address",
          "name": "daoTreasury",
          "type": "address"
        },
        {
          "indexed": false,
          "internalType": "address",
          "name": "teamWallet",
          "type": "address"
        }
      ],
      "name": "TreasuryAddressUpdated",
      "type": "event"
    },
    {
      "inputs": [],
      "name": "ADMIN_ROLE",
      "outputs": [
        {
          "internalType": "bytes32",
          "name": "",
          "type": "bytes32"
        }
      ],
      "stateMutability": "view",
      "type": "function"
    },
    {
      "inputs": [],
      "name": "DEFAULT_ADMIN_ROLE",
      "outputs": [
        {
          "internalType": "bytes32",
          "name": "",
          "type": "bytes32"
        }
      ],
      "stateMutability": "view",
      "type": "function"
    },
    {
      "inputs": [],
      "name": "daoTreasury",
      "outputs": [
        {
          "internalType": "address",
          "name": "",
          "type": "address"
        }
      ],
      "stateMutability": "view",
      "type": "function"
    },
    {
      "inputs": [],
      "name": "emergencyPause",
      "outputs": [],
      "stateMutability": "nonpayable",
      "type": "function"
    },
    {
      "inputs": [],
      "name": "feeConfig",
      "outputs": [
        {
          "internalType": "uint256",
          "name": "propertyMintFee",
          "type": "uint256"
        },
        {
          "internalType": "uint256",
          "name": "managementFee",
          "type": "uint256"
        },
        {
          "internalType": "uint256",
          "name": "tradingFee",
          "type": "uint256"
        },
        {
          "internalType": "uint256",
          "name": "withdrawalFee",
          "type": "uint256"
        },
        {
          "internalType": "uint256",
          "name": "liquidationFee",
          "type": "uint256"
        }
      ],
      "stateMutability": "view",
      "type": "function"
    },
    {
      "inputs": [],
      "name": "getFeeConfig",
      "outputs": [
        {
          "components": [
            {
              "internalType": "uint256",
              "name": "propertyMintFee",
              "type": "uint256"
            },
            {
              "internalType": "uint256",
              "name": "managementFee",
              "type": "uint256"
            },
            {
              "internalType": "uint256",
              "name": "tradingFee",
              "type": "uint256"
            },
            {
              "internalType": "uint256",
              "name": "withdrawalFee",
              "type": "uint256"
            },
            {
              "internalType": "uint256",
              "name": "liquidationFee",
              "type": "uint256"
            }
          ],
          "internalType": "struct ISystemConfig.FeeConfig",
          "name": "",
          "type": "tuple"
        }
      ],
      "stateMutability": "view",
      "type": "function"
    },
    {
      "inputs": [
        {
          "internalType": "bytes32",
          "name": "role",
          "type": "bytes32"
        }
      ],
      "name": "getRoleAdmin",
      "outputs": [
        {
          "internalType": "bytes32",
          "name": "",
          "type": "bytes32"
        }
      ],
      "stateMutability": "view",
      "type": "function"
    },
    {
      "inputs": [],
      "name": "getSystemParams",
      "outputs": [
        {
          "components": [
            {
              "internalType": "uint256",
              "name": "minPropertyValuation",
              "type": "uint256"
            },
            {
              "internalType": "uint256",
              "name": "maxPropertyValuation",
              "type": "uint256"
            },
            {
              "internalType": "uint256",
              "name": "maxInvestmentPerUser",
              "type": "uint256"
            },
            {
              "internalType": "uint256",
              "name": "kycValidityPeriod",
              "type": "uint256"
            },
            {
              "internalType": "bool",
              "name": "systemPaused",
              "type": "bool"
            }
          ],
          "internalType": "struct ISystemConfig.SystemParams",
          "name": "",
          "type": "tuple"
        }
      ],
      "stateMutability": "view",
      "type": "function"
    },
    {
      "inputs": [
        {
          "internalType": "bytes32",
          "name": "role",
          "type": "bytes32"
        },
        {
          "internalType": "address",
          "name": "account",
          "type": "address"
        }
      ],
      "name": "grantRole",
      "outputs": [],
      "stateMutability": "nonpayable",
      "type": "function"
    },
    {
      "inputs": [
        {
          "internalType": "bytes32",
          "name": "role",
          "type": "bytes32"
        },
        {
          "internalType": "address",
          "name": "account",
          "type": "address"
        }
      ],
      "name": "hasRole",
      "outputs": [
        {
          "internalType": "bool",
          "name": "",
          "type": "bool"
        }
      ],
      "stateMutability": "view",
      "type": "function"
    },
    {
      "inputs": [],
      "name": "multiSigWallet",
      "outputs": [
        {
          "internalType": "address",
          "name": "",
          "type": "address"
        }
      ],
      "stateMutability": "view",
      "type": "function"
    },
    {
      "inputs": [
        {
          "internalType": "bytes32",
          "name": "role",
          "type": "bytes32"
        },
        {
          "internalType": "address",
          "name": "account",
          "type": "address"
        }
      ],
      "name": "renounceRole",
      "outputs": [],
      "stateMutability": "nonpayable",
      "type": "function"
    },
    {
      "inputs": [
        {
          "internalType": "bytes32",
          "name": "role",
          "type": "bytes32"
        },
        {
          "internalType": "address",
          "name": "account",
          "type": "address"
        }
      ],
      "name": "revokeRole",
      "outputs": [],
      "stateMutability": "nonpayable",
      "type": "function"
    },
    {
      "inputs": [
        {
          "internalType": "bytes4",
          "name": "interfaceId",
          "type": "bytes4"
        }
      ],
      "name": "supportsInterface",
      "outputs": [
        {
          "internalType": "bool",
          "name": "",
          "type": "bool"
        }
      ],
      "stateMutability": "view",
      "type": "function"
    },
    {
      "inputs": [],
      "name": "systemParams",
      "outputs": [
        {
          "internalType": "uint256",
          "name": "minPropertyValuation",
          "type": "uint256"
        },
        {
          "internalType": "uint256",
          "name": "maxPropertyValuation",
          "type": "uint256"
        },
        {
          "internalType": "uint256",
          "name": "maxInvestmentPerUser",
          "type": "uint256"
        },
        {
          "internalType": "uint256",
          "name": "kycValidityPeriod",
          "type": "uint256"
        },
        {
          "internalType": "bool",
          "name": "systemPaused",
          "type": "bool"
        }
      ],
      "stateMutability": "view",
      "type": "function"
    },
    {
      "inputs": [],
      "name": "teamWallet",
      "outputs": [
        {
          "internalType": "address",
          "name": "",
          "type": "address"
        }
      ],
      "stateMutability": "view",
      "type": "function"
    },
    {
      "inputs": [],
      "name": "unpause",
      "outputs": [],
      "stateMutability": "nonpayable",
      "type": "function"
    },
    {
      "inputs": [
        {
          "components": [
            {
              "internalType": "uint256",
              "name": "propertyMintFee",
              "type": "uint256"
            },
            {
              "internalType": "uint256",
              "name": "managementFee",
              "type": "uint256"
            },
            {
              "internalType": "uint256",
              "name": "tradingFee",
              "type": "uint256"
            },
            {
              "internalType": "uint256",
              "name": "withdrawalFee",
              "type": "uint256"
            },
            {
              "internalType": "uint256",
              "name": "liquidationFee",
              "type": "uint256"
            }
          ],
          "internalType": "struct ISystemConfig.FeeConfig",
          "name": "_newConfig",
          "type": "tuple"
        }
      ],
      "name": "updateFeeConfig",
      "outputs": [],
      "stateMutability": "nonpayable",
      "type": "function"
    },
    {
      "inputs": [
        {
          "components": [
            {
              "internalType": "uint256",
              "name": "minPropertyValuation",
              "type": "uint256"
            },
            {
              "internalType": "uint256",
              "name": "maxPropertyValuation",
              "type": "uint256"
            },
            {
              "internalType": "uint256",
              "name": "maxInvestmentPerUser",
              "type": "uint256"
            },
            {
              "internalType": "uint256",
              "name": "kycValidityPeriod",
              "type": "uint256"
            },
            {
              "internalType": "bool",
              "name": "systemPaused",
              "type": "bool"
            }
          ],
          "internalType": "struct ISystemConfig.SystemParams",
          "name": "_newParams",
          "type": "tuple"
        }
      ],
      "name": "updateSystemParams",
      "outputs": [],
      "stateMutability": "nonpayable",
      "type": "function"
    },
    {
      "inputs": [
        {
          "internalType": "address",
          "name": "_daoTreasury",
          "type": "address"
        },
        {
          "internalType": "address",
          "name": "_teamWallet",
          "type": "address"
        }
      ],
      "name": "updateTreasuryAddresses",
      "outputs": [],
      "stateMutability": "nonpayable",
      "type": "function"
    }
  ],
  "bytecode": "0x6080346200022857601f620012ce38819003918201601f191683019291906001600160401b038411838510176200022d5781606092849260409687528339810103126200022857620000518162000263565b6020916200006e846200006685840162000263565b920162000263565b9060018055600093848052848152858520338652815260ff868620541615620001f0575b7fa49807205ce4d355092ef5a8a18f56e8913cf4a201fbe287825b095693c217758086528582528686206001600160a01b03948516808852908352878720549096919060ff1615620001b7575b506080620000ec62000243565b6096815260c884820152601e89820152600a606082015261012c9182910152609660025560c8600355601e600455600a6005556006556200012c62000243565b9169152d02c7e14af68000008084526a084595161401484a000000809285015269d3c21bcecceda100000092838a86015260806301e13380958660608201520152600755600855600955600a5560ff19600b5416600b558160018060a01b0319931683600c541617600c551681600d541617600d55600e541617600e55516110359081620002798239f35b8082528183528782208783528352878220600160ff19825416179055863391600080516020620012ae8339815191528480a438620000df565b8480528481528585203386528152858520600160ff19825416179055333386600080516020620012ae8339815191528180a462000092565b600080fd5b634e487b7160e01b600052604160045260246000fd5b6040519060a082016001600160401b038111838210176200022d57604052565b51906001600160a01b0382168203620002285756fe608060408181526004908136101561001657600080fd5b600092833560e01c90816301ffc9a7146109eb5750806313a19af0146108975780631e5eb1d014610857578063248a9ca31461082d5780632f2ff15d1461078457806336568abe146106f25780633f4ba83a1461067d57806340380348146105ee578063458e8e6b146105a85780634b8feb4f1461057f57806351858e271461050257806359927044146104d95780635fbbc0d21461044f57806375b238fc1461041457806379022a9f146103eb57806391d14854146103a5578063a217fddf1461038a578063b2004964146101ff578063c2a644541461013f5763d547741f1461010057600080fd5b3461013b578060031936011261013b5761013891356101336001610122610aaf565b938387528660205286200154610cfc565b610e2a565b80f35b8280fd5b508290346101fb57806003193601126101fb5782356001600160a01b03818116918290036101f75761016f610aaf565b90610178610aca565b821580156101ed575b6101dd577f430359a6d97ced2b6f93c77a91e7ce9dfd43252eb91e916adba170485cd8a6a49495506bffffffffffffffffffffffff60a01b918383600c541617600c55168091600d541617600d5582519182526020820152a180f35b835163ca07b5fb60e01b81528690fd5b5080821615610181565b8380fd5b5080fd5b503461013b5760a036600319011261013b5780519161021d83610a3f565b803583526020830160249182358252838501604492833582526060870193606435855260808801956084358752610252610aca565b885161012c9081811161037157505082516101f49081811161035857505083516064811161033e575085516032811161032457508651906103e89182811161030b578a516002819055855160035586518855885160055589516006558a519081526020808d0151908201526040808d0151908201526060808d0151908201526080808d0151908201528c907f69d3d20d68a063c9835513f6ea9c2256a6302307a983a1f3301f5d2c8abe2552908060a081015b0390a180f35b8693945089519363082dffc360e11b8552840152820152fd5b85916032918a519363be48888560e01b8552840152820152fd5b85916064918a5193639743535560e01b8552840152820152fd5b8951636e86f7c160e01b81528088019190915291820152fd5b8951631cde311160e01b81528088019190915291820152fd5b8382346101fb57816003193601126101fb5751908152602090f35b50903461013b578160031936011261013b578160209360ff926103c6610aaf565b903582528186528282206001600160a01b039091168252855220549151911615158152f35b8382346101fb57816003193601126101fb57600c5490516001600160a01b039091168152602090f35b8382346101fb57816003193601126101fb57602090517fa49807205ce4d355092ef5a8a18f56e8913cf4a201fbe287825b095693c217758152f35b503461013b578260031936011261013b576104d5925061046d610fd4565b5080519161047a83610a3f565b60025483526003546020840152548183015260055460608301526006546080830152519182918291909160808060a0830194805184526020810151602085015260408101516040850152606081015160608501520151910152565b0390f35b8382346101fb57816003193601126101fb57600d5490516001600160a01b039091168152602090f35b8382346101fb57816003193601126101fb577f8f498d9ed3a968f617348b9b8e4e7a40bf7ec524ac80b3ec91cdbf7553395e959061053e610aca565b600b805460ff191660019081179091559051600754815260085460208201526009546040820152600a54606082015260808101919091528060a08101610305565b8382346101fb57816003193601126101fb57600e5490516001600160a01b039091168152602090f35b8382346101fb57816003193601126101fb5760a0906007549060085490600954600a549160ff600b54169381519586526020860152840152606083015215156080820152f35b8382346101fb57816003193601126101fb576104d59061060c610fd4565b5080519061061982610a3f565b6007548252600854602083015260095481830152600a54606083015260ff600b541615156080830152519182918291909160808060a08301948051845260208101516020850152604081015160408501526060810151606085015201511515910152565b8382346101fb57816003193601126101fb577f8f498d9ed3a968f617348b9b8e4e7a40bf7ec524ac80b3ec91cdbf7553395e95906106b9610aca565b600b805460ff1916905551600754815260085460208201526009546040820152600a546060820152600060808201528060a08101610305565b509190346101fb57826003193601126101fb5761070d610aaf565b90336001600160a01b0383160361072957906101389135610e2a565b608490602085519162461bcd60e51b8352820152602f60248201527f416363657373436f6e74726f6c3a2063616e206f6e6c792072656e6f756e636560448201526e103937b632b9903337b91039b2b63360891b6064820152fd5b50903461013b578160031936011261013b5735906107a0610aaf565b90828452836020526107b760018286200154610cfc565b82845260208481528185206001600160a01b039093168086529290528084205460ff16156107e3578380f35b828452836020528084208285526020528320600160ff1982541617905533917f2f8788117e7eff1d82e926ec794901d17c78024a50270940304540a733656f0d8480a43880808380f35b50903461013b57602036600319011261013b57816020936001923581528085522001549051908152f35b50903461013b578260031936011261013b5760a0925060025491600354915460055491600654938151958652602086015284015260608301526080820152f35b503461013b5760a036600319011261013b578051916108b583610a3f565b803583526020830160243581528284016044358152606085019160643583526084359384151585036109e757608087019485526108f0610aca565b8651156109d6578151875110156109c8578251156109ba5783516301e133809081811061099f57897f8f498d9ed3a968f617348b9b8e4e7a40bf7ec524ac80b3ec91cdbf7553395e956103058b8b8b8b8b8b8551600755516008555160095551600a5551151560ff8019600b5416911617600b55519182918291909160808060a08301948051845260208101516020850152604081015160408501526060810151606085015201511515910152565b8751637ccb640d60e11b815292830152602482015260449150fd5b855163043c295760e41b8152fd5b85516319878cb560e21b8152fd5b8551600162dea22360e01b03198152fd5b8780fd5b8490843461013b57602036600319011261013b573563ffffffff60e01b811680910361013b5760209250637965db0b60e01b8114908115610a2e575b5015158152f35b6301ffc9a760e01b14905083610a27565b60a0810190811067ffffffffffffffff821117610a5b57604052565b634e487b7160e01b600052604160045260246000fd5b6080810190811067ffffffffffffffff821117610a5b57604052565b90601f8019910116810190811067ffffffffffffffff821117610a5b57604052565b602435906001600160a01b0382168203610ac557565b600080fd5b3360009081527f7d7ffb7a348e1c6a02869081a26547b49160dd3df72d1d75a570eb9b698292ec6020908152604080832054909291907fa49807205ce4d355092ef5a8a18f56e8913cf4a201fbe287825b095693c217759060ff1615610b305750505050565b610b3933610ec5565b90845190610b4682610a71565b60428252838201946060368737825115610ce85760308653825190600191821015610ce85790607860218501536041915b818311610c7a57505050610c385784610c066048610c2a936044979851988991610bf78984019876020b1b1b2b9b9a1b7b73a3937b61d1030b1b1b7bab73a1604d1b8a52610bce815180928d603789019101610e07565b8401917001034b99036b4b9b9b4b733903937b6329607d1b603784015251809386840190610e07565b01036028810189520187610a8d565b5194859362461bcd60e51b8552600485015251809281602486015285850190610e07565b601f01601f19168101030190fd5b60648386519062461bcd60e51b825280600483015260248201527f537472696e67733a20686578206c656e67746820696e73756666696369656e746044820152fd5b909192600f81166010811015610cd4576f181899199a1a9b1b9c1cb0b131b232b360811b901a610caa8587610e9e565b5360041c928015610cc057600019019190610b77565b634e487b7160e01b82526011600452602482fd5b634e487b7160e01b83526032600452602483fd5b634e487b7160e01b81526032600452602490fd5b60008181526020818152604092838320338452825260ff848420541615610d235750505050565b610d2c33610ec5565b90845190610d3982610a71565b60428252838201946060368737825115610ce85760308653825190600191821015610ce85790607860218501536041915b818311610dc157505050610c385784610c066048610c2a936044979851988991610bf78984019876020b1b1b2b9b9a1b7b73a3937b61d1030b1b1b7bab73a1604d1b8a52610bce815180928d603789019101610e07565b909192600f81166010811015610cd4576f181899199a1a9b1b9c1cb0b131b232b360811b901a610df18587610e9e565b5360041c928015610cc057600019019190610d6a565b60005b838110610e1a5750506000910152565b8181015183820152602001610e0a565b9060009180835282602052604083209160018060a01b03169182845260205260ff604084205416610e5a57505050565b80835282602052604083208284526020526040832060ff1981541690557ff6391f5c32d9c69d2a47ea670b442974b53935d1edc7fd64eb21e047a839171b339380a4565b908151811015610eaf570160200190565b634e487b7160e01b600052603260045260246000fd5b604051906060820182811067ffffffffffffffff821117610a5b57604052602a8252602082016040368237825115610eaf57603090538151600190811015610eaf57607860218401536029905b808211610f66575050610f225790565b606460405162461bcd60e51b815260206004820152602060248201527f537472696e67733a20686578206c656e67746820696e73756666696369656e746044820152fd5b9091600f81166010811015610fbf576f181899199a1a9b1b9c1cb0b131b232b360811b901a610f958486610e9e565b5360041c918015610faa576000190190610f12565b60246000634e487b7160e01b81526011600452fd5b60246000634e487b7160e01b81526032600452fd5b60405190610fe182610a3f565b6000608083828152826020820152826040820152826060820152015256fea2646970667358221220dcc6b0d4d8efab26b17935925d527f9fd767b761981e841fe127fea52c447dad64736f6c634300081300332f8788117e7eff1d82e926ec794901d17c78024a50270940304540a733656f0d",
  "linkReferences": {},
  "deployedLinkReferences": {}
}