{
  "_format": "hh-sol-artifact-1",
  "contractName": "SystemConfig",
  "sourceName": "contracts/SystemConfig.sol",
  "abi": [
    {
      "inputs": [
        {
          "internalType": "address",
          "name": "_daoTreasury",
          "type": "address"
        },
        {
          "internalType": "address",
          "name": "_teamWallet",
          "type": "address"
        },
        {
          "internalType": "address",
          "name": "_multiSigWallet",
          "type": "address"
        }
      ],
      "stateMutability": "nonpayable",
      "type": "constructor"
    },
    {
      "anonymous": false,
      "inputs": [
        {
          "components": [
            {
              "internalType": "uint256",
              "name": "propertyMintFee",
              "type": "uint256"
            },
            {
              "internalType": "uint256",
              "name": "managementFee",
              "type": "uint256"
            },
            {
              "internalType": "uint256",
              "name": "tradingFee",
              "type": "uint256"
            },
            {
              "internalType": "uint256",
              "name": "withdrawalFee",
              "type": "uint256"
            },
            {
              "internalType": "uint256",
              "name": "liquidationFee",
              "type": "uint256"
            }
          ],
          "indexed": false,
          "internalType": "struct ISystemConfig.FeeConfig",
          "name": "newConfig",
          "type": "tuple"
        }
      ],
      "name": "FeeConfigUpdated",
      "type": "event"
    },
    {
      "anonymous": false,
      "inputs": [
        {
          "indexed": true,
          "internalType": "bytes32",
          "name": "role",
          "type": "bytes32"
        },
        {
          "indexed": true,
          "internalType": "bytes32",
          "name": "previousAdminRole",
          "type": "bytes32"
        },
        {
          "indexed": true,
          "internalType": "bytes32",
          "name": "newAdminRole",
          "type": "bytes32"
        }
      ],
      "name": "RoleAdminChanged",
      "type": "event"
    },
    {
      "anonymous": false,
      "inputs": [
        {
          "indexed": true,
          "internalType": "bytes32",
          "name": "role",
          "type": "bytes32"
        },
        {
          "indexed": true,
          "internalType": "address",
          "name": "account",
          "type": "address"
        },
        {
          "indexed": true,
          "internalType": "address",
          "name": "sender",
          "type": "address"
        }
      ],
      "name": "RoleGranted",
      "type": "event"
    },
    {
      "anonymous": false,
      "inputs": [
        {
          "indexed": true,
          "internalType": "bytes32",
          "name": "role",
          "type": "bytes32"
        },
        {
          "indexed": true,
          "internalType": "address",
          "name": "account",
          "type": "address"
        },
        {
          "indexed": true,
          "internalType": "address",
          "name": "sender",
          "type": "address"
        }
      ],
      "name": "RoleRevoked",
      "type": "event"
    },
    {
      "anonymous": false,
      "inputs": [
        {
          "components": [
            {
              "internalType": "uint256",
              "name": "minPropertyValuation",
              "type": "uint256"
            },
            {
              "internalType": "uint256",
              "name": "maxPropertyValuation",
              "type": "uint256"
            },
            {
              "internalType": "uint256",
              "name": "maxInvestmentPerUser",
              "type": "uint256"
            },
            {
              "internalType": "uint256",
              "name": "kycValidityPeriod",
              "type": "uint256"
            },
            {
              "internalType": "bool",
              "name": "systemPaused",
              "type": "bool"
            }
          ],
          "indexed": false,
          "internalType": "struct ISystemConfig.SystemParams",
          "name": "newParams",
          "type": "tuple"
        }
      ],
      "name": "SystemParamsUpdated",
      "type": "event"
    },
    {
      "anonymous": false,
      "inputs": [
        {
          "indexed": false,
          "internalType": "address",
          "name": "daoTreasury",
          "type": "address"
        },
        {
          "indexed": false,
          "internalType": "address",
          "name": "teamWallet",
          "type": "address"
        }
      ],
      "name": "TreasuryAddressUpdated",
      "type": "event"
    },
    {
      "inputs": [],
      "name": "ADMIN_ROLE",
      "outputs": [
        {
          "internalType": "bytes32",
          "name": "",
          "type": "bytes32"
        }
      ],
      "stateMutability": "view",
      "type": "function"
    },
    {
      "inputs": [],
      "name": "DEFAULT_ADMIN_ROLE",
      "outputs": [
        {
          "internalType": "bytes32",
          "name": "",
          "type": "bytes32"
        }
      ],
      "stateMutability": "view",
      "type": "function"
    },
    {
      "inputs": [],
      "name": "daoTreasury",
      "outputs": [
        {
          "internalType": "address",
          "name": "",
          "type": "address"
        }
      ],
      "stateMutability": "view",
      "type": "function"
    },
    {
      "inputs": [],
      "name": "emergencyPause",
      "outputs": [],
      "stateMutability": "nonpayable",
      "type": "function"
    },
    {
      "inputs": [],
      "name": "feeConfig",
      "outputs": [
        {
          "internalType": "uint256",
          "name": "propertyMintFee",
          "type": "uint256"
        },
        {
          "internalType": "uint256",
          "name": "managementFee",
          "type": "uint256"
        },
        {
          "internalType": "uint256",
          "name": "tradingFee",
          "type": "uint256"
        },
        {
          "internalType": "uint256",
          "name": "withdrawalFee",
          "type": "uint256"
        },
        {
          "internalType": "uint256",
          "name": "liquidationFee",
          "type": "uint256"
        }
      ],
      "stateMutability": "view",
      "type": "function"
    },
    {
      "inputs": [],
      "name": "getFeeConfig",
      "outputs": [
        {
          "components": [
            {
              "internalType": "uint256",
              "name": "propertyMintFee",
              "type": "uint256"
            },
            {
              "internalType": "uint256",
              "name": "managementFee",
              "type": "uint256"
            },
            {
              "internalType": "uint256",
              "name": "tradingFee",
              "type": "uint256"
            },
            {
              "internalType": "uint256",
              "name": "withdrawalFee",
              "type": "uint256"
            },
            {
              "internalType": "uint256",
              "name": "liquidationFee",
              "type": "uint256"
            }
          ],
          "internalType": "struct ISystemConfig.FeeConfig",
          "name": "",
          "type": "tuple"
        }
      ],
      "stateMutability": "view",
      "type": "function"
    },
    {
      "inputs": [
        {
          "internalType": "bytes32",
          "name": "role",
          "type": "bytes32"
        }
      ],
      "name": "getRoleAdmin",
      "outputs": [
        {
          "internalType": "bytes32",
          "name": "",
          "type": "bytes32"
        }
      ],
      "stateMutability": "view",
      "type": "function"
    },
    {
      "inputs": [],
      "name": "getSystemParams",
      "outputs": [
        {
          "components": [
            {
              "internalType": "uint256",
              "name": "minPropertyValuation",
              "type": "uint256"
            },
            {
              "internalType": "uint256",
              "name": "maxPropertyValuation",
              "type": "uint256"
            },
            {
              "internalType": "uint256",
              "name": "maxInvestmentPerUser",
              "type": "uint256"
            },
            {
              "internalType": "uint256",
              "name": "kycValidityPeriod",
              "type": "uint256"
            },
            {
              "internalType": "bool",
              "name": "systemPaused",
              "type": "bool"
            }
          ],
          "internalType": "struct ISystemConfig.SystemParams",
          "name": "",
          "type": "tuple"
        }
      ],
      "stateMutability": "view",
      "type": "function"
    },
    {
      "inputs": [
        {
          "internalType": "bytes32",
          "name": "role",
          "type": "bytes32"
        },
        {
          "internalType": "address",
          "name": "account",
          "type": "address"
        }
      ],
      "name": "grantRole",
      "outputs": [],
      "stateMutability": "nonpayable",
      "type": "function"
    },
    {
      "inputs": [
        {
          "internalType": "bytes32",
          "name": "role",
          "type": "bytes32"
        },
        {
          "internalType": "address",
          "name": "account",
          "type": "address"
        }
      ],
      "name": "hasRole",
      "outputs": [
        {
          "internalType": "bool",
          "name": "",
          "type": "bool"
        }
      ],
      "stateMutability": "view",
      "type": "function"
    },
    {
      "inputs": [],
      "name": "multiSigWallet",
      "outputs": [
        {
          "internalType": "address",
          "name": "",
          "type": "address"
        }
      ],
      "stateMutability": "view",
      "type": "function"
    },
    {
      "inputs": [
        {
          "internalType": "bytes32",
          "name": "role",
          "type": "bytes32"
        },
        {
          "internalType": "address",
          "name": "account",
          "type": "address"
        }
      ],
      "name": "renounceRole",
      "outputs": [],
      "stateMutability": "nonpayable",
      "type": "function"
    },
    {
      "inputs": [
        {
          "internalType": "bytes32",
          "name": "role",
          "type": "bytes32"
        },
        {
          "internalType": "address",
          "name": "account",
          "type": "address"
        }
      ],
      "name": "revokeRole",
      "outputs": [],
      "stateMutability": "nonpayable",
      "type": "function"
    },
    {
      "inputs": [
        {
          "internalType": "bytes4",
          "name": "interfaceId",
          "type": "bytes4"
        }
      ],
      "name": "supportsInterface",
      "outputs": [
        {
          "internalType": "bool",
          "name": "",
          "type": "bool"
        }
      ],
      "stateMutability": "view",
      "type": "function"
    },
    {
      "inputs": [],
      "name": "systemParams",
      "outputs": [
        {
          "internalType": "uint256",
          "name": "minPropertyValuation",
          "type": "uint256"
        },
        {
          "internalType": "uint256",
          "name": "maxPropertyValuation",
          "type": "uint256"
        },
        {
          "internalType": "uint256",
          "name": "maxInvestmentPerUser",
          "type": "uint256"
        },
        {
          "internalType": "uint256",
          "name": "kycValidityPeriod",
          "type": "uint256"
        },
        {
          "internalType": "bool",
          "name": "systemPaused",
          "type": "bool"
        }
      ],
      "stateMutability": "view",
      "type": "function"
    },
    {
      "inputs": [],
      "name": "teamWallet",
      "outputs": [
        {
          "internalType": "address",
          "name": "",
          "type": "address"
        }
      ],
      "stateMutability": "view",
      "type": "function"
    },
    {
      "inputs": [],
      "name": "unpause",
      "outputs": [],
      "stateMutability": "nonpayable",
      "type": "function"
    },
    {
      "inputs": [
        {
          "components": [
            {
              "internalType": "uint256",
              "name": "propertyMintFee",
              "type": "uint256"
            },
            {
              "internalType": "uint256",
              "name": "managementFee",
              "type": "uint256"
            },
            {
              "internalType": "uint256",
              "name": "tradingFee",
              "type": "uint256"
            },
            {
              "internalType": "uint256",
              "name": "withdrawalFee",
              "type": "uint256"
            },
            {
              "internalType": "uint256",
              "name": "liquidationFee",
              "type": "uint256"
            }
          ],
          "internalType": "struct ISystemConfig.FeeConfig",
          "name": "_newConfig",
          "type": "tuple"
        }
      ],
      "name": "updateFeeConfig",
      "outputs": [],
      "stateMutability": "nonpayable",
      "type": "function"
    },
    {
      "inputs": [
        {
          "components": [
            {
              "internalType": "uint256",
              "name": "minPropertyValuation",
              "type": "uint256"
            },
            {
              "internalType": "uint256",
              "name": "maxPropertyValuation",
              "type": "uint256"
            },
            {
              "internalType": "uint256",
              "name": "maxInvestmentPerUser",
              "type": "uint256"
            },
            {
              "internalType": "uint256",
              "name": "kycValidityPeriod",
              "type": "uint256"
            },
            {
              "internalType": "bool",
              "name": "systemPaused",
              "type": "bool"
            }
          ],
          "internalType": "struct ISystemConfig.SystemParams",
          "name": "_newParams",
          "type": "tuple"
        }
      ],
      "name": "updateSystemParams",
      "outputs": [],
      "stateMutability": "nonpayable",
      "type": "function"
    },
    {
      "inputs": [
        {
          "internalType": "address",
          "name": "_daoTreasury",
          "type": "address"
        },
        {
          "internalType": "address",
          "name": "_teamWallet",
          "type": "address"
        }
      ],
      "name": "updateTreasuryAddresses",
      "outputs": [],
      "stateMutability": "nonpayable",
      "type": "function"
    }
  ],
  "bytecode": "0x60806040523480156200001157600080fd5b506040516200148038038062001480833981016040819052620000349162000231565b600180556200004560003362000173565b620000717fa49807205ce4d355092ef5a8a18f56e8913cf4a201fbe287825b095693c217758262000173565b6040805160a08082018352609680835260c86020808501829052601e858701819052600a606080880182905261012c608098890181905260029690965560039490945560049190915560058190556006939093558551938401865269152d02c7e14af68000008085526a084595161401484a00000091850182905269d3c21bcecceda10000009685018790526301e13380928501839052600094909501939093526007939093556008919091556009929092559055600b805460ff19169055600c80546001600160a01b039485166001600160a01b031991821617909155600d805493851693821693909317909255600e80549190931691161790556200027b565b6000828152602081815260408083206001600160a01b038516845290915290205460ff1662000210576000828152602081815260408083206001600160a01b03851684529091529020805460ff19166001179055620001cf3390565b6001600160a01b0316816001600160a01b0316837f2f8788117e7eff1d82e926ec794901d17c78024a50270940304540a733656f0d60405160405180910390a45b5050565b80516001600160a01b03811681146200022c57600080fd5b919050565b6000806000606084860312156200024757600080fd5b620002528462000214565b9250620002626020850162000214565b9150620002726040850162000214565b90509250925092565b6111f5806200028b6000396000f3fe608060405234801561001057600080fd5b506004361061012c5760003560e01c806351858e27116100ad57806391d148541161007157806391d148541461035a578063a217fddf1461036d578063b200496414610375578063c2a6445414610388578063d547741f1461039b57600080fd5b806351858e27146102cd57806359927044146102d55780635fbbc0d2146102e857806375b238fc1461033257806379022a9f1461034757600080fd5b806336568abe116100f457806336568abe146101f45780633f4ba83a14610207578063403803481461020f578063458e8e6b1461025b5780634b8feb4f146102a257600080fd5b806301ffc9a71461013157806313a19af0146101595780631e5eb1d01461016e578063248a9ca3146101b05780632f2ff15d146101e1575b600080fd5b61014461013f366004610eb9565b6103ae565b60405190151581526020015b60405180910390f35b61016c610167366004610f30565b6103e5565b005b600254600354600454600554600654610188949392919085565b604080519586526020860194909452928401919091526060830152608082015260a001610150565b6101d36101be366004610f8b565b60009081526020819052604090206001015490565b604051908152602001610150565b61016c6101ef366004610fc0565b6105e3565b61016c610202366004610fc0565b61060d565b61016c61068b565b610217610708565b6040516101509190600060a0820190508251825260208301516020830152604083015160408301526060830151606083015260808301511515608083015292915050565b600754600854600954600a54600b54610278949392919060ff1685565b6040805195865260208601949094529284019190915260608301521515608082015260a001610150565b600e546102b5906001600160a01b031681565b6040516001600160a01b039091168152602001610150565b61016c610776565b600d546102b5906001600160a01b031681565b6102f06107f3565b6040516101509190600060a082019050825182526020830151602083015260408301516040830152606083015160608301526080830151608083015292915050565b6101d36000805160206111a083398151915281565b600c546102b5906001600160a01b031681565b610144610368366004610fc0565b61085a565b6101d3600081565b61016c610383366004610fec565b610883565b61016c61039636600461103c565b610aa9565b61016c6103a9366004610fc0565b610b90565b60006001600160e01b03198216637965db0b60e01b14806103df57506301ffc9a760e01b6001600160e01b03198316145b92915050565b6000805160206111a08339815191526103fd81610bb5565b81516104485760405162461bcd60e51b815260206004820152601560248201527424b73b30b634b21036b4b7103b30b63ab0ba34b7b760591b60448201526064015b60405180910390fd5b81516020830151116104945760405162461bcd60e51b815260206004820152601560248201527424b73b30b634b21036b0bc103b30b63ab0ba34b7b760591b604482015260640161043f565b60008260400151116104e85760405162461bcd60e51b815260206004820152601860248201527f496e76616c696420696e766573746d656e74206c696d69740000000000000000604482015260640161043f565b6301e13380826060015110156105515760405162461bcd60e51b815260206004820152602860248201527f4b594320706572696f6420746f6f2073686f727420286174206c656173742033604482015267363520646179732960c01b606482015260840161043f565b81516007819055602080840180516008556040808601805160095560608088018051600a556080808a018051600b805460ff191691151591909117905585519889529551968801969096529151928601929092525190840152511515908201527f8f498d9ed3a968f617348b9b8e4e7a40bf7ec524ac80b3ec91cdbf7553395e959060a0015b60405180910390a15050565b6000828152602081905260409020600101546105fe81610bb5565b6106088383610bc2565b505050565b6001600160a01b038116331461067d5760405162461bcd60e51b815260206004820152602f60248201527f416363657373436f6e74726f6c3a2063616e206f6e6c792072656e6f756e636560448201526e103937b632b9903337b91039b2b63360891b606482015260840161043f565b6106878282610c46565b5050565b6000805160206111a08339815191526106a381610bb5565b600b805460ff19169055604080516007548152600854602082015260095491810191909152600a546060820152600060808201527f8f498d9ed3a968f617348b9b8e4e7a40bf7ec524ac80b3ec91cdbf7553395e959060a0015b60405180910390a150565b61073c6040518060a00160405280600081526020016000815260200160008152602001600081526020016000151581525090565b506040805160a0810182526007548152600854602082015260095491810191909152600a546060820152600b5460ff161515608082015290565b6000805160206111a083398151915261078e81610bb5565b600b805460ff19166001908117909155604080516007548152600854602082015260095491810191909152600a54606082015260808101919091527f8f498d9ed3a968f617348b9b8e4e7a40bf7ec524ac80b3ec91cdbf7553395e959060a0016106fd565b6108256040518060a0016040528060008152602001600081526020016000815260200160008152602001600081525090565b506040805160a08101825260025481526003546020820152600454918101919091526005546060820152600654608082015290565b6000918252602082815260408084206001600160a01b0393909316845291905290205460ff1690565b6000805160206111a083398151915261089b81610bb5565b815161012c10156108e25760405162461bcd60e51b815260206004820152601160248201527009ad2dce840cccaca40e8dede40d0d2ced607b1b604482015260640161043f565b6101f4826020015111156109385760405162461bcd60e51b815260206004820152601760248201527f4d616e6167656d656e742066656520746f6f2068696768000000000000000000604482015260640161043f565b6064826040015111156109845760405162461bcd60e51b81526020600482015260146024820152730a8e4c2c8d2dcce40cccaca40e8dede40d0d2ced60631b604482015260640161043f565b6032826060015111156109d95760405162461bcd60e51b815260206004820152601760248201527f5769746864726177616c2066656520746f6f2068696768000000000000000000604482015260640161043f565b6103e882608001511115610a2f5760405162461bcd60e51b815260206004820152601860248201527f4c69717569646174696f6e2066656520746f6f20686967680000000000000000604482015260640161043f565b815160028190556020808401805160035560408086018051600455606080880180516005556080808a0180516006558551988952955196880196909652915192860192909252519084015251908201527f69d3d20d68a063c9835513f6ea9c2256a6302307a983a1f3301f5d2c8abe25529060a0016105d7565b6000805160206111a0833981519152610ac181610bb5565b6001600160a01b03831615801590610ae157506001600160a01b03821615155b610b215760405162461bcd60e51b8152602060048201526011602482015270496e76616c69642061646472657373657360781b604482015260640161043f565b600c80546001600160a01b038581166001600160a01b03199283168117909355600d80549186169190921681179091556040805192835260208301919091527f430359a6d97ced2b6f93c77a91e7ce9dfd43252eb91e916adba170485cd8a6a4910160405180910390a1505050565b600082815260208190526040902060010154610bab81610bb5565b6106088383610c46565b610bbf8133610cab565b50565b610bcc828261085a565b610687576000828152602081815260408083206001600160a01b03851684529091529020805460ff19166001179055610c023390565b6001600160a01b0316816001600160a01b0316837f2f8788117e7eff1d82e926ec794901d17c78024a50270940304540a733656f0d60405160405180910390a45050565b610c50828261085a565b15610687576000828152602081815260408083206001600160a01b0385168085529252808320805460ff1916905551339285917ff6391f5c32d9c69d2a47ea670b442974b53935d1edc7fd64eb21e047a839171b9190a45050565b610cb5828261085a565b61068757610cc281610d04565b610ccd836020610d16565b604051602001610cde92919061108a565b60408051601f198184030181529082905262461bcd60e51b825261043f916004016110ff565b60606103df6001600160a01b03831660145b60606000610d25836002611148565b610d3090600261115f565b67ffffffffffffffff811115610d4857610d48610ee3565b6040519080825280601f01601f191660200182016040528015610d72576020820181803683370190505b509050600360fc1b81600081518110610d8d57610d8d611172565b60200101906001600160f81b031916908160001a905350600f60fb1b81600181518110610dbc57610dbc611172565b60200101906001600160f81b031916908160001a9053506000610de0846002611148565b610deb90600161115f565b90505b6001811115610e63576f181899199a1a9b1b9c1cb0b131b232b360811b85600f1660108110610e1f57610e1f611172565b1a60f81b828281518110610e3557610e35611172565b60200101906001600160f81b031916908160001a90535060049490941c93610e5c81611188565b9050610dee565b508315610eb25760405162461bcd60e51b815260206004820181905260248201527f537472696e67733a20686578206c656e67746820696e73756666696369656e74604482015260640161043f565b9392505050565b600060208284031215610ecb57600080fd5b81356001600160e01b031981168114610eb257600080fd5b634e487b7160e01b600052604160045260246000fd5b60405160a0810167ffffffffffffffff81118282101715610f2a57634e487b7160e01b600052604160045260246000fd5b60405290565b600060a08284031215610f4257600080fd5b610f4a610ef9565b8235815260208301356020820152604083013560408201526060830135606082015260808301358015158114610f7f57600080fd5b60808201529392505050565b600060208284031215610f9d57600080fd5b5035919050565b80356001600160a01b0381168114610fbb57600080fd5b919050565b60008060408385031215610fd357600080fd5b82359150610fe360208401610fa4565b90509250929050565b600060a08284031215610ffe57600080fd5b611006610ef9565b82358152602083013560208201526040830135604082015260608301356060820152608083013560808201528091505092915050565b6000806040838503121561104f57600080fd5b61105883610fa4565b9150610fe360208401610fa4565b60005b83811015611081578181015183820152602001611069565b50506000910152565b7f416363657373436f6e74726f6c3a206163636f756e74200000000000000000008152600083516110c2816017850160208801611066565b7001034b99036b4b9b9b4b733903937b6329607d1b60179184019182015283516110f3816028840160208801611066565b01602801949350505050565b602081526000825180602084015261111e816040850160208701611066565b601f01601f19169190910160400192915050565b634e487b7160e01b600052601160045260246000fd5b80820281158282048414176103df576103df611132565b808201808211156103df576103df611132565b634e487b7160e01b600052603260045260246000fd5b60008161119757611197611132565b50600019019056fea49807205ce4d355092ef5a8a18f56e8913cf4a201fbe287825b095693c21775a2646970667358221220d8fea70a9d6cd207599e7e54f3117dd064659a97ac74701b86ae84418f2c4ba664736f6c63430008130033",
  "linkReferences": {},
  "deployedLinkReferences": {}
}