{
  "_format": "hh-sol-artifact-1",
  "contractName": "PropertyToken",
  "sourceName": "contracts/PropertyToken.sol",
  "abi": [
    {
      "type": "constructor",
      "inputs": [],
      "stateMutability": "nonpayable"
    },
    {
      "type": "function",
      "name": "DEFAULT_ADMIN_ROLE",
      "inputs": [],
      "outputs": [
        {
          "name": "",
          "type": "bytes32",
          "internalType": "bytes32"
        }
      ],
      "stateMutability": "view"
    },
    {
      "type": "function",
      "name": "FACTORY_ROLE",
      "inputs": [],
      "outputs": [
        {
          "name": "",
          "type": "bytes32",
          "internalType": "bytes32"
        }
      ],
      "stateMutability": "view"
    },
    {
      "type": "function",
      "name": "PROPERTY_OWNER_ROLE",
      "inputs": [],
      "outputs": [
        {
          "name": "",
          "type": "bytes32",
          "internalType": "bytes32"
        }
      ],
      "stateMutability": "view"
    },
    {
      "type": "function",
      "name": "allowance",
      "inputs": [
        {
          "name": "owner",
          "type": "address",
          "internalType": "address"
        },
        {
          "name": "spender",
          "type": "address",
          "internalType": "address"
        }
      ],
      "outputs": [
        {
          "name": "",
          "type": "uint256",
          "internalType": "uint256"
        }
      ],
      "stateMutability": "view"
    },
    {
      "type": "function",
      "name": "approve",
      "inputs": [
        {
          "name": "spender",
          "type": "address",
          "internalType": "address"
        },
        {
          "name": "amount",
          "type": "uint256",
          "internalType": "uint256"
        }
      ],
      "outputs": [
        {
          "name": "",
          "type": "bool",
          "internalType": "bool"
        }
      ],
      "stateMutability": "nonpayable"
    },
    {
      "type": "function",
      "name": "balanceOf",
      "inputs": [
        {
          "name": "account",
          "type": "address",
          "internalType": "address"
        }
      ],
      "outputs": [
        {
          "name": "",
          "type": "uint256",
          "internalType": "uint256"
        }
      ],
      "stateMutability": "view"
    },
    {
      "type": "function",
      "name": "calculatePaymentAmount",
      "inputs": [
        {
          "name": "tokenAmount",
          "type": "uint256",
          "internalType": "uint256"
        },
        {
          "name": "",
          "type": "address",
          "internalType": "address"
        }
      ],
      "outputs": [
        {
          "name": "",
          "type": "uint256",
          "internalType": "uint256"
        }
      ],
      "stateMutability": "view"
    },
    {
      "type": "function",
      "name": "decimals",
      "inputs": [],
      "outputs": [
        {
          "name": "",
          "type": "uint8",
          "internalType": "uint8"
        }
      ],
      "stateMutability": "view"
    },
    {
      "type": "function",
      "name": "decreaseAllowance",
      "inputs": [
        {
          "name": "spender",
          "type": "address",
          "internalType": "address"
        },
        {
          "name": "subtractedValue",
          "type": "uint256",
          "internalType": "uint256"
        }
      ],
      "outputs": [
        {
          "name": "",
          "type": "bool",
          "internalType": "bool"
        }
      ],
      "stateMutability": "nonpayable"
    },
    {
      "type": "function",
      "name": "defaultPaymentToken",
      "inputs": [],
      "outputs": [
        {
          "name": "",
          "type": "address",
          "internalType": "address"
        }
      ],
      "stateMutability": "view"
    },
    {
      "type": "function",
      "name": "factory",
      "inputs": [],
      "outputs": [
        {
          "name": "",
          "type": "address",
          "internalType": "address"
        }
      ],
      "stateMutability": "view"
    },
    {
      "type": "function",
      "name": "factoryTransfer",
      "inputs": [
        {
          "name": "to",
          "type": "address",
          "internalType": "address"
        },
        {
          "name": "amount",
          "type": "uint256",
          "internalType": "uint256"
        }
      ],
      "outputs": [],
      "stateMutability": "nonpayable"
    },
    {
      "type": "function",
      "name": "getAvailableForSale",
      "inputs": [],
      "outputs": [
        {
          "name": "",
          "type": "uint256",
          "internalType": "uint256"
        }
      ],
      "stateMutability": "view"
    },
    {
      "type": "function",
      "name": "getPropertyInfo",
      "inputs": [],
      "outputs": [
        {
          "name": "",
          "type": "string",
          "internalType": "string"
        },
        {
          "name": "",
          "type": "uint256",
          "internalType": "uint256"
        },
        {
          "name": "",
          "type": "string",
          "internalType": "string"
        },
        {
          "name": "",
          "type": "address",
          "internalType": "address"
        },
        {
          "name": "",
          "type": "uint256",
          "internalType": "uint256"
        }
      ],
      "stateMutability": "view"
    },
    {
      "type": "function",
      "name": "getPurchaseRatio",
      "inputs": [],
      "outputs": [
        {
          "name": "",
          "type": "uint256",
          "internalType": "uint256"
        }
      ],
      "stateMutability": "view"
    },
    {
      "type": "function",
      "name": "getPurchaseStats",
      "inputs": [],
      "outputs": [
        {
          "name": "purchased",
          "type": "uint256",
          "internalType": "uint256"
        },
        {
          "name": "remaining",
          "type": "uint256",
          "internalType": "uint256"
        },
        {
          "name": "supply",
          "type": "uint256",
          "internalType": "uint256"
        },
        {
          "name": "purchaseRatio",
          "type": "uint256",
          "internalType": "uint256"
        },
        {
          "name": "availableRatio",
          "type": "uint256",
          "internalType": "uint256"
        }
      ],
      "stateMutability": "view"
    },
    {
      "type": "function",
      "name": "getRemainingTokens",
      "inputs": [],
      "outputs": [
        {
          "name": "",
          "type": "uint256",
          "internalType": "uint256"
        }
      ],
      "stateMutability": "view"
    },
    {
      "type": "function",
      "name": "getRevenueStats",
      "inputs": [],
      "outputs": [
        {
          "name": "treasuryRevenue",
          "type": "uint256",
          "internalType": "uint256"
        },
        {
          "name": "propertyOwnerRevenue",
          "type": "uint256",
          "internalType": "uint256"
        },
        {
          "name": "totalRevenue",
          "type": "uint256",
          "internalType": "uint256"
        }
      ],
      "stateMutability": "view"
    },
    {
      "type": "function",
      "name": "getRoleAdmin",
      "inputs": [
        {
          "name": "role",
          "type": "bytes32",
          "internalType": "bytes32"
        }
      ],
      "outputs": [
        {
          "name": "",
          "type": "bytes32",
          "internalType": "bytes32"
        }
      ],
      "stateMutability": "view"
    },
    {
      "type": "function",
      "name": "getTotalPurchased",
      "inputs": [],
      "outputs": [
        {
          "name": "",
          "type": "uint256",
          "internalType": "uint256"
        }
      ],
      "stateMutability": "view"
    },
    {
      "type": "function",
      "name": "grantRole",
      "inputs": [
        {
          "name": "role",
          "type": "bytes32",
          "internalType": "bytes32"
        },
        {
          "name": "account",
          "type": "address",
          "internalType": "address"
        }
      ],
      "outputs": [],
      "stateMutability": "nonpayable"
    },
    {
      "type": "function",
      "name": "hasRole",
      "inputs": [
        {
          "name": "role",
          "type": "bytes32",
          "internalType": "bytes32"
        },
        {
          "name": "account",
          "type": "address",
          "internalType": "address"
        }
      ],
      "outputs": [
        {
          "name": "",
          "type": "bool",
          "internalType": "bool"
        }
      ],
      "stateMutability": "view"
    },
    {
      "type": "function",
      "name": "increaseAllowance",
      "inputs": [
        {
          "name": "spender",
          "type": "address",
          "internalType": "address"
        },
        {
          "name": "addedValue",
          "type": "uint256",
          "internalType": "uint256"
        }
      ],
      "outputs": [
        {
          "name": "",
          "type": "bool",
          "internalType": "bool"
        }
      ],
      "stateMutability": "nonpayable"
    },
    {
      "type": "function",
      "name": "initialize",
      "inputs": [
        {
          "name": "_name",
          "type": "string",
          "internalType": "string"
        },
        {
          "name": "_symbol",
          "type": "string",
          "internalType": "string"
        },
        {
          "name": "_propertyOwner",
          "type": "address",
          "internalType": "address"
        },
        {
          "name": "_serverId",
          "type": "string",
          "internalType": "string"
        },
        {
          "name": "_issuePrice",
          "type": "uint256",
          "internalType": "uint256"
        },
        {
          "name": "_propertyCode",
          "type": "string",
          "internalType": "string"
        },
        {
          "name": "_factory",
          "type": "address",
          "internalType": "address"
        },
        {
          "name": "_userRegistry",
          "type": "address",
          "internalType": "address"
        },
        {
          "name": "_systemConfig",
          "type": "address",
          "internalType": "address"
        },
        {
          "name": "_tokenSupply",
          "type": "uint256",
          "internalType": "uint256"
        },
        {
          "name": "_defaultPaymentToken",
          "type": "address",
          "internalType": "address"
        }
      ],
      "outputs": [],
      "stateMutability": "nonpayable"
    },
    {
      "type": "function",
      "name": "issuePrice",
      "inputs": [],
      "outputs": [
        {
          "name": "",
          "type": "uint256",
          "internalType": "uint256"
        }
      ],
      "stateMutability": "view"
    },
    {
      "type": "function",
      "name": "name",
      "inputs": [],
      "outputs": [
        {
          "name": "",
          "type": "string",
          "internalType": "string"
        }
      ],
      "stateMutability": "view"
    },
    {
      "type": "function",
      "name": "pause",
      "inputs": [],
      "outputs": [],
      "stateMutability": "nonpayable"
    },
    {
      "type": "function",
      "name": "paused",
      "inputs": [],
      "outputs": [
        {
          "name": "",
          "type": "bool",
          "internalType": "bool"
        }
      ],
      "stateMutability": "view"
    },
    {
      "type": "function",
      "name": "propertyCode",
      "inputs": [],
      "outputs": [
        {
          "name": "",
          "type": "string",
          "internalType": "string"
        }
      ],
      "stateMutability": "view"
    },
    {
      "type": "function",
      "name": "propertyOwner",
      "inputs": [],
      "outputs": [
        {
          "name": "",
          "type": "address",
          "internalType": "address"
        }
      ],
      "stateMutability": "view"
    },
    {
      "type": "function",
      "name": "purchaseEnabled",
      "inputs": [],
      "outputs": [
        {
          "name": "",
          "type": "bool",
          "internalType": "bool"
        }
      ],
      "stateMutability": "view"
    },
    {
      "type": "function",
      "name": "purchaseTokens",
      "inputs": [
        {
          "name": "tokenAmount",
          "type": "uint256",
          "internalType": "uint256"
        },
        {
          "name": "paymentToken",
          "type": "address",
          "internalType": "address"
        },
        {
          "name": "deadline",
          "type": "uint256",
          "internalType": "uint256"
        },
        {
          "name": "v",
          "type": "uint8",
          "internalType": "uint8"
        },
        {
          "name": "r",
          "type": "bytes32",
          "internalType": "bytes32"
        },
        {
          "name": "s",
          "type": "bytes32",
          "internalType": "bytes32"
        }
      ],
      "outputs": [],
      "stateMutability": "nonpayable"
    },
    {
      "type": "function",
      "name": "renounceRole",
      "inputs": [
        {
          "name": "role",
          "type": "bytes32",
          "internalType": "bytes32"
        },
        {
          "name": "account",
          "type": "address",
          "internalType": "address"
        }
      ],
      "outputs": [],
      "stateMutability": "nonpayable"
    },
    {
      "type": "function",
      "name": "revokeRole",
      "inputs": [
        {
          "name": "role",
          "type": "bytes32",
          "internalType": "bytes32"
        },
        {
          "name": "account",
          "type": "address",
          "internalType": "address"
        }
      ],
      "outputs": [],
      "stateMutability": "nonpayable"
    },
    {
      "type": "function",
      "name": "serverId",
      "inputs": [],
      "outputs": [
        {
          "name": "",
          "type": "string",
          "internalType": "string"
        }
      ],
      "stateMutability": "view"
    },
    {
      "type": "function",
      "name": "supportsInterface",
      "inputs": [
        {
          "name": "interfaceId",
          "type": "bytes4",
          "internalType": "bytes4"
        }
      ],
      "outputs": [
        {
          "name": "",
          "type": "bool",
          "internalType": "bool"
        }
      ],
      "stateMutability": "view"
    },
    {
      "type": "function",
      "name": "symbol",
      "inputs": [],
      "outputs": [
        {
          "name": "",
          "type": "string",
          "internalType": "string"
        }
      ],
      "stateMutability": "view"
    },
    {
      "type": "function",
      "name": "systemConfig",
      "inputs": [],
      "outputs": [
        {
          "name": "",
          "type": "address",
          "internalType": "address"
        }
      ],
      "stateMutability": "view"
    },
    {
      "type": "function",
      "name": "totalPropertyOwnerRevenue",
      "inputs": [],
      "outputs": [
        {
          "name": "",
          "type": "uint256",
          "internalType": "uint256"
        }
      ],
      "stateMutability": "view"
    },
    {
      "type": "function",
      "name": "totalPurchased",
      "inputs": [],
      "outputs": [
        {
          "name": "",
          "type": "uint256",
          "internalType": "uint256"
        }
      ],
      "stateMutability": "view"
    },
    {
      "type": "function",
      "name": "totalSupply",
      "inputs": [],
      "outputs": [
        {
          "name": "",
          "type": "uint256",
          "internalType": "uint256"
        }
      ],
      "stateMutability": "view"
    },
    {
      "type": "function",
      "name": "totalTreasuryRevenue",
      "inputs": [],
      "outputs": [
        {
          "name": "",
          "type": "uint256",
          "internalType": "uint256"
        }
      ],
      "stateMutability": "view"
    },
    {
      "type": "function",
      "name": "transfer",
      "inputs": [
        {
          "name": "to",
          "type": "address",
          "internalType": "address"
        },
        {
          "name": "amount",
          "type": "uint256",
          "internalType": "uint256"
        }
      ],
      "outputs": [
        {
          "name": "",
          "type": "bool",
          "internalType": "bool"
        }
      ],
      "stateMutability": "nonpayable"
    },
    {
      "type": "function",
      "name": "transferFrom",
      "inputs": [
        {
          "name": "from",
          "type": "address",
          "internalType": "address"
        },
        {
          "name": "to",
          "type": "address",
          "internalType": "address"
        },
        {
          "name": "amount",
          "type": "uint256",
          "internalType": "uint256"
        }
      ],
      "outputs": [
        {
          "name": "",
          "type": "bool",
          "internalType": "bool"
        }
      ],
      "stateMutability": "nonpayable"
    },
    {
      "type": "function",
      "name": "unpause",
      "inputs": [],
      "outputs": [],
      "stateMutability": "nonpayable"
    },
    {
      "type": "function",
      "name": "updatePurchaseStatus",
      "inputs": [
        {
          "name": "enabled",
          "type": "bool",
          "internalType": "bool"
        }
      ],
      "outputs": [],
      "stateMutability": "nonpayable"
    },
    {
      "type": "function",
      "name": "userRegistry",
      "inputs": [],
      "outputs": [
        {
          "name": "",
          "type": "address",
          "internalType": "address"
        }
      ],
      "stateMutability": "view"
    },
    {
      "type": "event",
      "name": "Approval",
      "inputs": [
        {
          "name": "owner",
          "type": "address",
          "indexed": true,
          "internalType": "address"
        },
        {
          "name": "spender",
          "type": "address",
          "indexed": true,
          "internalType": "address"
        },
        {
          "name": "value",
          "type": "uint256",
          "indexed": false,
          "internalType": "uint256"
        }
      ],
      "anonymous": false
    },
    {
      "type": "event",
      "name": "Paused",
      "inputs": [
        {
          "name": "account",
          "type": "address",
          "indexed": false,
          "internalType": "address"
        }
      ],
      "anonymous": false
    },
    {
      "type": "event",
      "name": "PurchaseStatsUpdated",
      "inputs": [
        {
          "name": "totalPurchased",
          "type": "uint256",
          "indexed": false,
          "internalType": "uint256"
        },
        {
          "name": "totalSupply",
          "type": "uint256",
          "indexed": false,
          "internalType": "uint256"
        },
        {
          "name": "purchaseRatio",
          "type": "uint256",
          "indexed": false,
          "internalType": "uint256"
        }
      ],
      "anonymous": false
    },
    {
      "type": "event",
      "name": "PurchaseStatusUpdated",
      "inputs": [
        {
          "name": "enabled",
          "type": "bool",
          "indexed": false,
          "internalType": "bool"
        }
      ],
      "anonymous": false
    },
    {
      "type": "event",
      "name": "RoleAdminChanged",
      "inputs": [
        {
          "name": "role",
          "type": "bytes32",
          "indexed": true,
          "internalType": "bytes32"
        },
        {
          "name": "previousAdminRole",
          "type": "bytes32",
          "indexed": true,
          "internalType": "bytes32"
        },
        {
          "name": "newAdminRole",
          "type": "bytes32",
          "indexed": true,
          "internalType": "bytes32"
        }
      ],
      "anonymous": false
    },
    {
      "type": "event",
      "name": "RoleGranted",
      "inputs": [
        {
          "name": "role",
          "type": "bytes32",
          "indexed": true,
          "internalType": "bytes32"
        },
        {
          "name": "account",
          "type": "address",
          "indexed": true,
          "internalType": "address"
        },
        {
          "name": "sender",
          "type": "address",
          "indexed": true,
          "internalType": "address"
        }
      ],
      "anonymous": false
    },
    {
      "type": "event",
      "name": "RoleRevoked",
      "inputs": [
        {
          "name": "role",
          "type": "bytes32",
          "indexed": true,
          "internalType": "bytes32"
        },
        {
          "name": "account",
          "type": "address",
          "indexed": true,
          "internalType": "address"
        },
        {
          "name": "sender",
          "type": "address",
          "indexed": true,
          "internalType": "address"
        }
      ],
      "anonymous": false
    },
    {
      "type": "event",
      "name": "TokensPurchased",
      "inputs": [
        {
          "name": "buyer",
          "type": "address",
          "indexed": true,
          "internalType": "address"
        },
        {
          "name": "tokenAddress",
          "type": "address",
          "indexed": true,
          "internalType": "address"
        },
        {
          "name": "tokenAmount",
          "type": "uint256",
          "indexed": false,
          "internalType": "uint256"
        },
        {
          "name": "paymentToken",
          "type": "address",
          "indexed": false,
          "internalType": "address"
        },
        {
          "name": "paymentAmount",
          "type": "uint256",
          "indexed": false,
          "internalType": "uint256"
        },
        {
          "name": "treasuryAmount",
          "type": "uint256",
          "indexed": false,
          "internalType": "uint256"
        },
        {
          "name": "ownerAmount",
          "type": "uint256",
          "indexed": false,
          "internalType": "uint256"
        },
        {
          "name": "purchaseTime",
          "type": "uint256",
          "indexed": false,
          "internalType": "uint256"
        }
      ],
      "anonymous": false
    },
    {
      "type": "event",
      "name": "Transfer",
      "inputs": [
        {
          "name": "from",
          "type": "address",
          "indexed": true,
          "internalType": "address"
        },
        {
          "name": "to",
          "type": "address",
          "indexed": true,
          "internalType": "address"
        },
        {
          "name": "value",
          "type": "uint256",
          "indexed": false,
          "internalType": "uint256"
        }
      ],
      "anonymous": false
    },
    {
      "type": "event",
      "name": "Unpaused",
      "inputs": [
        {
          "name": "account",
          "type": "address",
          "indexed": false,
          "internalType": "address"
        }
      ],
      "anonymous": false
    },
    {
      "type": "error",
      "name": "AlreadyInitialized",
      "inputs": []
    },
    {
      "type": "error",
      "name": "AmountMustBeGreaterThanZero",
      "inputs": []
    },
    {
      "type": "error",
      "name": "InsufficientContractBalance",
      "inputs": [
        {
          "name": "available",
          "type": "uint256",
          "internalType": "uint256"
        },
        {
          "name": "requested",
          "type": "uint256",
          "internalType": "uint256"
        }
      ]
    },
    {
      "type": "error",
      "name": "InsufficientPaymentTokenAllowance",
      "inputs": []
    },
    {
      "type": "error",
      "name": "InsufficientPaymentTokenBalance",
      "inputs": []
    },
    {
      "type": "error",
      "name": "InsufficientTokensAvailable",
      "inputs": []
    },
    {
      "type": "error",
      "name": "InvalidFactory",
      "inputs": []
    },
    {
      "type": "error",
      "name": "InvalidPaymentTokenAddress",
      "inputs": []
    },
    {
      "type": "error",
      "name": "InvalidPropertyOwner",
      "inputs": []
    },
    {
      "type": "error",
      "name": "InvalidTreasuryAddress",
      "inputs": []
    },
    {
      "type": "error",
      "name": "KYCNotApproved",
      "inputs": []
    },
    {
      "type": "error",
      "name": "OnlyFactoryCanCall",
      "inputs": []
    },
    {
      "type": "error",
      "name": "OnlyPropertyOwnerCanCall",
      "inputs": []
    },
    {
      "type": "error",
      "name": "PaymentAmountMustBeGreaterThanZero",
      "inputs": []
    },
    {
      "type": "error",
      "name": "PurchaseIsDisabled",
      "inputs": []
    }
  ],
  "bytecode": "0x608060405234620002e95762000014620002ee565b6200001e620002ee565b815190916001600160401b03808311620001e957600380546001948582811c9216948515620002de575b60209586841014620002c8578190601f9384811162000272575b5086908483116001146200020b57600092620001ff575b505060001982851b1c191690861b1782555b8551928311620001e95760049384548681811c91168015620001de575b82821014620001c9578281116200017e575b50809184116001146200011057508293949560009362000104575b505082851b92600019911b1c19161790555b60065560ff196007541660075560405161292a9081620003138239f35b015191503880620000d5565b9190601f198416968560005283600020936000905b89821062000166575050848798979697106200014b575b50505050811b019055620000e7565b01519060f884600019921b161c19169055388080806200013c565b80898597829496860151815501960193019062000125565b85600052816000208380870160051c820192848810620001bf575b0160051c019087905b828110620001b2575050620000ba565b60008155018790620001a2565b9250819262000199565b602286634e487b7160e01b6000525260246000fd5b90607f1690620000a8565b634e487b7160e01b600052604160045260246000fd5b01519050388062000079565b90889350601f1983169186600052886000209260005b8a8282106200025b575050841162000242575b505050811b0182556200008b565b015160001983871b60f8161c1916905538808062000234565b8385015186558c9790950194938401930162000221565b90915084600052866000208480850160051c820192898610620002be575b918a91869594930160051c01915b828110620002ae57505062000062565b600081558594508a91016200029e565b9250819262000290565b634e487b7160e01b600052602260045260246000fd5b91607f169162000048565b600080fd5b60405190602082016001600160401b03811183821017620001e9576040526000825256fe608080604052600436101561001357600080fd5b60003560e01c90816301ffc9a714611b7d5750806304a0fb1714611b4257806306fdde0314611aae578063095ea7b314611a885780630feafb4e146119f357806318160ddd146119d557806323b872dd14611917578063248a9ca3146118e8578063286e098f146118ad5780632f2ff15d1461180c578063313ce567146117f057806333d7e2bd146117c757806333f33eb3146117a057806336568abe1461170e57806339509351146116bd5780633f4ba83a1461160c578063504cceac1461122a5780635c2c20051461120c5780635c7460d6146111e35780635c975abb146111c05780635de5f3be1461114d5780636412173e146111245780636d4d2749146110fe57806370a08231146110bd5780638456cb591461100d5780638a2c8a5114610ff15780638ab43e9714610f6757806391d1485414610f1a57806395d89b4114610e5e578063a162f01914610e38578063a217fddf14610e1c578063a457c2d714610d75578063a9059cbb14610d44578063be079d7314610d10578063c45a015514610ce7578063d282c91b14610341578063d547741f14610300578063dd62ed3e146102af578063f446c38f146102865763f74b059e146101d757600080fd5b34610281576020366003190112610281576101f0611c18565b336000908152600080516020612895833981519152602052604090205460ff161561026f576001600160a01b0316801561025d57600f80546001600160a01b031916821790557f1e771517fc81dffcfb56e933898a569cc1fc731d8a0510c4bdf0ba9b4450ae81600080a2005b6040516337021e9960e11b8152600490fd5b60405163011a72f560e11b8152600490fd5b600080fd5b3461028157600036600319011261028157600b546040516001600160a01b039091168152602090f35b34610281576040366003190112610281576102c8611c18565b6102d0611c2e565b9060018060a01b038091166000526001602052604060002091166000526020526020604060002054604051908152f35b346102815760403660031901126102815761033f60043561031f611c2e565b9080600052600560205261033a600160406000200154611e36565b61216c565b005b34610281576101603660031901126102815760043567ffffffffffffffff811161028157610373903690600401611def565b60243567ffffffffffffffff811161028157610393903690600401611def565b604435916001600160a01b039081841684036102815760643567ffffffffffffffff8111610281576103c9903690600401611def565b9060a43567ffffffffffffffff8111610281576103ea903690600401611def565b9060c4359484861686036102815760e435938585168503610281576101043591868316830361028157610144359387851685036102815760405160035481600061043383611c44565b8083529260018116908115610cc85750600114610c67575b61045792500382611c7e565b51610c5657878a1615610c445787891615610c325780519067ffffffffffffffff821161094357819061048b601054611c44565b601f8111610bbe575b50602090601f8311600114610b4a57600092610b3f575b50508160011b916000199060031b1c1916176010555b80519067ffffffffffffffff82116109435781906104e0601154611c44565b601f8111610acb575b50602090601f8311600114610a5757600092610a4c575b50508160011b916000199060031b1c1916176011555b80519067ffffffffffffffff8211610943578190610535600854611c44565b601f81116109d8575b50602090601f831160011461096457600092610959575b50508160011b916000199060031b1c1916176008555b608435600955825167ffffffffffffffff811161094357859361058f600a54611c44565b601f81116108c7575b50602090601f831160011461084e578593929160009183610843575b50508160011b916000199060031b1c191617600a555b816bffffffffffffffffffffffff60a01b95818a1687600b541617600b5581891687600c541617600c551685600d541617600d551683600e541617600e551690600f541617600f556000805260059182602052604060002082821660005260205260ff6040600020541615610806575b7fdfbefbf47cfe66b701d8cfdbce1de81c821590819cb07e71cb01b6602fb0ee278060005283602052604060002083831660005260205260ff60406000205416156107c1575b50507ffeb983a7695463ef5b6eb7089f94f157c3c925417d08e4762b54797793ffd028918260005280602052604060002082851660005260205260ff604060002054161561077c575b50505050301561073757610124356106e3816002546121e2565b600255306000526000602052604060002081815401905560405190815260007fddf252ad1be2c89b69c2b068fc378daa952ba7f163c4a11628f55a4df523b3ef60203093a3600f805460ff60a01b19169055005b60405162461bcd60e51b815260206004820152601f60248201527f45524332303a206d696e7420746f20746865207a65726f2061646472657373006044820152606490fd5b8260005260205260406000208184166000526020526040600020600160ff1982541617905533921690600080516020612835833981519152600080a4808080806106c9565b806000528360205260406000208383166000526020526040600020600160ff198254161790558233921690600080516020612835833981519152600080a48380610680565b60008080526020848152604080832084861680855292528220805460ff1916600117905533916000805160206128358339815191528180a461063a565b015190508a806105b4565b90600a600052600080516020612855833981519152916000601f198516905b8181106108ac57509160019391858997969410610893575b505050811b01600a556105ca565b015160001960f88460031b161c191690558a8080610885565b8284015185558a98506001909401936020938401930161086d565b909192939450600a600052601f830160051c600080516020612855833981519152016020841061092e575b90601f889695949392910160051c60008051602061285583398151915201905b81811061091f5750610598565b60008155889650600101610912565b506000805160206128558339815191526108f2565b634e487b7160e01b600052604160045260246000fd5b015190508980610555565b600860009081526000805160206128b58339815191529350601f198516905b8181106109c057509084600195949392106109a7575b505050811b0160085561056b565b015160001960f88460031b161c19169055898080610999565b92936020600181928786015181550195019301610983565b9091506008600052601f830160051c6000805160206128b58339815191520160208410610a37575b908392915b601f820160051c6000805160206128b5833981519152018110610a28575061053e565b60008155849350600101610a05565b506000805160206128b5833981519152610a00565b015190508a80610500565b601160009081526000805160206128758339815191529350601f198516905b818110610ab35750908460019594939210610a9a575b505050811b01601155610516565b015160001960f88460031b161c191690558a8080610a8c565b92936020600181928786015181550195019301610a76565b9091506011600052601f830160051c6000805160206128758339815191520160208410610b2a575b908392915b601f820160051c600080516020612875833981519152018110610b1b57506104e9565b60008155849350600101610af8565b50600080516020612875833981519152610af3565b015190508b806104ab565b601060009081526000805160206128d58339815191529350601f198516905b818110610ba65750908460019594939210610b8d575b505050811b016010556104c1565b015160001960f88460031b161c191690558b8080610b7f565b92936020600181928786015181550195019301610b69565b9091506010600052601f830160051c6000805160206128d58339815191520160208410610c1d575b908392915b601f820160051c6000805160206128d5833981519152018110610c0e5750610494565b60008155849350600101610beb565b506000805160206128d5833981519152610be6565b604051637a44db9560e01b8152600490fd5b604051636e4d5d7360e11b8152600490fd5b60405162dc149f60e41b8152600490fd5b509060036000527fc2575a0e9e593c00f959f8c92f12db2869c3395a3b0502d05e2516446f71f85b906000915b818310610cac5750509060206104579282010161044b565b6020919350806001915483858801015201910190918392610c94565b6020925061045794915060ff191682840152151560051b82010161044b565b3461028157600036600319011261028157600c546040516001600160a01b039091168152602090f35b3461028157600036600319011261028157610d40610d2c611ca0565b604051918291602083526020830190611bf3565b0390f35b3461028157604036600319011261028157610d6a610d60611c18565b60243590336121ef565b602060405160018152f35b3461028157604036600319011261028157610d8e611c18565b60243590336000526001602052604060002060018060a01b03821660005260205260406000205491808310610dc957610d6a9203903361235d565b60405162461bcd60e51b815260206004820152602560248201527f45524332303a2064656372656173656420616c6c6f77616e63652062656c6f77604482015264207a65726f60d81b6064820152608490fd5b3461028157600036600319011261028157602060405160008152f35b3461028157600036600319011261028157602060ff600f5460a01c166040519015158152f35b34610281576000366003190112610281576040516000601154610e8081611c44565b80845290600190818116908115610ef35750600114610eaa575b610d4084610d2c81860382611c7e565b6011600090815292506000805160206128758339815191525b828410610edb575050508101602001610d2c82610e9a565b80546020858701810191909152909301928101610ec3565b60ff191660208087019190915292151560051b85019092019250610d2c9150839050610e9a565b3461028157604036600319011261028157610f33611c2e565b600435600052600560205260406000209060018060a01b0316600052602052602060ff604060002054166040519015158152f35b346102815760203660031901126102815760043580151580910361028157336000908152600080516020612895833981519152602052604090205460ff161561026f57600f805460ff60a01b191660a083901b60ff60a01b161790556040519081527fedffa4ddf1b5cc6ab889ab92401ec44a0db5b6cdd8b11ab64808336eac8268b590602090a1005b3461028157600036600319011261028157610d40610d2c611d4c565b3461028157600036600319011261028157336000908152600080516020612895833981519152602052604090205460ff161561026f5760075460ff81166110855760019060ff1916176007557f62e78cea01bee320cd4e420270b5ea74000d11b0c9f74754ebdbfc544b05a2586020604051338152a1005b60405162461bcd60e51b815260206004820152601060248201526f14185d5cd8589b194e881c185d5cd95960821b6044820152606490fd5b346102815760203660031901126102815760206110f66110db611c18565b6001600160a01b031660009081526020819052604090205490565b604051908152f35b346102815760403660031901126102815760206110f661111c611c2e565b6004356126d1565b3461028157600036600319011261028157600f546040516001600160a01b039091168152602090f35b3461028157600036600319011261028157600954600b5460025461119e92916001600160a01b0316906111b1611181611ca0565b9361118a611d4c565b60405196879660a0885260a0880190611bf3565b9160208701528582036040870152611bf3565b91606084015260808301520390f35b3461028157600036600319011261028157602060ff600754166040519015158152f35b3461028157600036600319011261028157600d546040516001600160a01b039091168152602090f35b34610281576000366003190112610281576020600954604051908152f35b3461028157604036600319011261028157600435611246611c2e565b6002600654146115c757600260065560ff600f5460a01c16156115b55781156115a3576001600160a01b0390808216801561025d5782600d54169160405180936373bed91960e11b825233600483015281602460209687935afa90811561147c57600091611576575b5015611564576112bf90856126d1565b9081156115525730600052600083528460406000205410611540576040516370a0823160e01b81523360048201528381602481855afa801561147c57839160009161150f575b50106114fd57604051636eb1769f60e11b81523360048201523060248201528381604481855afa801561147c5783916000916114cc575b50106114ba576205161582026205161419838204016114a457620f424090049261136684846124b1565b9461137186866121e2565b848110611488575b5060048282600e5416604051928380926379022a9f60e01b82525afa90811561147c57600091611446575b5081811615611434578580611422575b5050858061140c575b50506040519586528501526040840152606083015260808201524260a082015230907fa91f3c820d9f62038898f5315f0fef4275ddcf7b3d727ab14d026f432910ac2260c03392a36001600655005b61141b91600b541633856124be565b86856113bd565b61142d9133866124be565b87856113b4565b60405163cfe2ea6360e01b8152600490fd5b90508281813d8311611475575b61145d8183611c7e565b810103126102815751818116810361028157886113a4565b503d611453565b6040513d6000823e3d90fd5b9561149761149d9297866124b1565b906121e2565b9487611379565b634e487b7160e01b600052601160045260246000fd5b6040516379d550f560e01b8152600490fd5b809250858092503d83116114f6575b6114e58183611c7e565b81010312610281578290518761133c565b503d6114db565b6040516352ad5e8b60e01b8152600490fd5b809250858092503d8311611539575b6115288183611c7e565b810103126102815782905187611305565b503d61151e565b604051632783839d60e01b8152600490fd5b6040516324aedff360e11b8152600490fd5b60405163532fc80960e01b8152600490fd5b6115969150843d861161159c575b61158e8183611c7e565b810190612499565b866112af565b503d611584565b604051635e85ae7360e01b8152600490fd5b6040516313f9241360e21b8152600490fd5b60405162461bcd60e51b815260206004820152601f60248201527f5265656e7472616e637947756172643a207265656e7472616e742063616c6c006044820152606490fd5b3461028157600036600319011261028157336000908152600080516020612895833981519152602052604090205460ff161561026f5760075460ff8116156116815760ff19166007557f5db9ee0a495bf2e6ff9c91a7834c1ba4fdd244a5e8aa4e537bd38aeae4b073aa6020604051338152a1005b60405162461bcd60e51b815260206004820152601460248201527314185d5cd8589b194e881b9bdd081c185d5cd95960621b6044820152606490fd5b3461028157604036600319011261028157610d6a6116d9611c18565b336000526001602052604060002060018060a01b0382166000526020526117076024356040600020546121e2565b903361235d565b3461028157604036600319011261028157611727611c2e565b336001600160a01b038216036117435761033f9060043561216c565b60405162461bcd60e51b815260206004820152602f60248201527f416363657373436f6e74726f6c3a2063616e206f6e6c792072656e6f756e636560448201526e103937b632b9903337b91039b2b63360891b6064820152608490fd5b346102815760003660031901126102815730600090815260208181526040909120546110f6565b3461028157600036600319011261028157600e546040516001600160a01b039091168152602090f35b3461028157600036600319011261028157602060405160128152f35b3461028157604036600319011261028157600435611828611c2e565b816000526005602052611842600160406000200154611e36565b81600052600560205260406000209060018060a01b0316908160005260205260ff604060002054161561187157005b8160005260056020526040600020816000526020526040600020600160ff198254161790553391600080516020612835833981519152600080a4005b346102815760003660031901126102815760206040517ffeb983a7695463ef5b6eb7089f94f157c3c925417d08e4762b54797793ffd0288152f35b346102815760203660031901126102815760043560005260056020526020600160406000200154604051908152f35b3461028157606036600319011261028157611930611c18565b611938611c2e565b6044359060018060a01b0383166000526001602052604060002033600052602052604060002054926000198403611974575b610d6a93506121ef565b8284106119905761198b83610d6a9503338361235d565b61196a565b60405162461bcd60e51b815260206004820152601d60248201527f45524332303a20696e73756666696369656e7420616c6c6f77616e63650000006044820152606490fd5b34610281576000366003190112610281576020600254604051908152f35b3461028157604036600319011261028157611a0c611c18565b33600090815260008051602061289583398151915260205260409020546024359060ff161561026f576001600160a01b0382161561025d5780156115a357306000526000602052604060002054818110611a6b575061033f91306121ef565b6044916040519163b7ddd88b60e01b835260048301526024820152fd5b3461028157604036600319011261028157610d6a611aa4611c18565b602435903361235d565b34610281576000366003190112610281576040516000601054611ad081611c44565b80845290600190818116908115610ef35750600114611af957610d4084610d2c81860382611c7e565b6010600090815292506000805160206128d58339815191525b828410611b2a575050508101602001610d2c82610e9a565b80546020858701810191909152909301928101611b12565b346102815760003660031901126102815760206040517fdfbefbf47cfe66b701d8cfdbce1de81c821590819cb07e71cb01b6602fb0ee278152f35b34610281576020366003190112610281576004359063ffffffff60e01b821680920361028157602091637965db0b60e01b8114908115611bbf575b5015158152f35b6301ffc9a760e01b14905083611bb8565b60005b838110611be35750506000910152565b8181015183820152602001611bd3565b90602091611c0c81518092818552858086019101611bd0565b601f01601f1916010190565b600435906001600160a01b038216820361028157565b602435906001600160a01b038216820361028157565b90600182811c92168015611c74575b6020831014611c5e57565b634e487b7160e01b600052602260045260246000fd5b91607f1691611c53565b90601f8019910116810190811067ffffffffffffffff82111761094357604052565b6040519060008260085491611cb483611c44565b80835292600190818116908115611d2a5750600114611cdd575b50611cdb92500383611c7e565b565b6008600090815291506000805160206128b58339815191525b848310611d0f5750611cdb935050810160200138611cce565b81935090816020925483858a01015201910190918592611cf6565b905060209250611cdb94915060ff191682840152151560051b82010138611cce565b60405190600082600a5491611d6083611c44565b80835292600190818116908115611d2a5750600114611d865750611cdb92500383611c7e565b600a600090815291506000805160206128558339815191525b848310611db85750611cdb935050810160200138611cce565b81935090816020925483858a01015201910190918592611d9f565b67ffffffffffffffff811161094357601f01601f191660200190565b81601f8201121561028157803590611e0682611dd3565b92611e146040519485611c7e565b8284526020838301011161028157816000926020809301838601378301015290565b60009080825260209060058252604092838120338252835260ff848220541615611e605750505050565b83519167ffffffffffffffff90336060850183811186821017612158578752602a855285850191873684378551156121445760308353855191600192831015612130576078602188015360295b8381116120c6575061208457908751936080850190858210908211176120705788526042845286840194606036873784511561205c5760308653845182101561205c5790607860218601536041915b818311611fee57505050611fac57611fa8938693611f8c93611f7d604894611f549a519a8b957f416363657373436f6e74726f6c3a206163636f756e74200000000000000000008c8801525180926037880190611bd0565b8401917001034b99036b4b9b9b4b733903937b6329607d1b603784015251809386840190611bd0565b01036028810187520185611c7e565b5192839262461bcd60e51b845260048401526024830190611bf3565b0390fd5b60648587519062461bcd60e51b825280600483015260248201527f537472696e67733a20686578206c656e67746820696e73756666696369656e746044820152fd5b909192600f81166010811015612048576f181899199a1a9b1b9c1cb0b131b232b360811b901a61201e8588612472565b5360041c92801561203457600019019190611efc565b634e487b7160e01b82526011600452602482fd5b634e487b7160e01b83526032600452602483fd5b634e487b7160e01b81526032600452602490fd5b634e487b7160e01b86526041600452602486fd5b60648789519062461bcd60e51b825280600483015260248201527f537472696e67733a20686578206c656e67746820696e73756666696369656e746044820152fd5b90600f8116601081101561211c576f181899199a1a9b1b9c1cb0b131b232b360811b901a6120f4838a612472565b5360041c9080156121085760001901611ead565b634e487b7160e01b87526011600452602487fd5b634e487b7160e01b88526032600452602488fd5b634e487b7160e01b86526032600452602486fd5b634e487b7160e01b85526032600452602485fd5b634e487b7160e01b85526041600452602485fd5b906000918083526005602052604083209160018060a01b03169182845260205260ff60408420541661219d57505050565b8083526005602052604083208284526020526040832060ff1981541690557ff6391f5c32d9c69d2a47ea670b442974b53935d1edc7fd64eb21e047a839171b339380a4565b919082018092116114a457565b6001600160a01b0390811691821561230a57169182156122b95760008281528060205260408120549180831061226557604082827fddf252ad1be2c89b69c2b068fc378daa952ba7f163c4a11628f55a4df523b3ef958760209652828652038282205586815220818154019055604051908152a3565b60405162461bcd60e51b815260206004820152602660248201527f45524332303a207472616e7366657220616d6f756e7420657863656564732062604482015265616c616e636560d01b6064820152608490fd5b60405162461bcd60e51b815260206004820152602360248201527f45524332303a207472616e7366657220746f20746865207a65726f206164647260448201526265737360e81b6064820152608490fd5b60405162461bcd60e51b815260206004820152602560248201527f45524332303a207472616e736665722066726f6d20746865207a65726f206164604482015264647265737360d81b6064820152608490fd5b6001600160a01b0390811691821561240e57169182156123be5760207f8c5be1e5ebec7d5bd14f71427d1e84f3dd0314c0f7b2291e5b200ac8c7c3b925918360005260018252604060002085600052825280604060002055604051908152a3565b60405162461bcd60e51b815260206004820152602260248201527f45524332303a20617070726f766520746f20746865207a65726f206164647265604482015261737360f01b6064820152608490fd5b60405162461bcd60e51b8152602060048201526024808201527f45524332303a20617070726f76652066726f6d20746865207a65726f206164646044820152637265737360e01b6064820152608490fd5b818102929181159184041417156114a457565b908151811015612483570160200190565b634e487b7160e01b600052603260045260246000fd5b90816020910312610281575180151581036102815790565b919082039182116114a457565b6040516323b872dd60e01b60208083019182526001600160a01b039485166024840152948416604483015260648083019690965294815292939260a081019267ffffffffffffffff928385118386101761094357169160e0820190811184821017610943576040528483527f5361666545524332303a206c6f772d6c6576656c2063616c6c206661696c656460c08201525161258a93600091829182855af13d15612612573d9161256e83611dd3565b9261257c6040519485611c7e565b83523d60008785013e612616565b8051908282159283156125fa575b505050156125a35750565b6084906040519062461bcd60e51b82526004820152602a60248201527f5361666545524332303a204552433230206f7065726174696f6e20646964206e6044820152691bdd081cdd58d8d9595960b21b6064820152fd5b61260a9350820181019101612499565b388281612598565b6060915b91929015612678575081511561262a575090565b3b156126335790565b60405162461bcd60e51b815260206004820152601d60248201527f416464726573733a2063616c6c20746f206e6f6e2d636f6e74726163740000006044820152606490fd5b82519091501561268b5750805190602001fd5b60405162461bcd60e51b815260206004820152908190611fa8906024830190611bf3565b9060ff8091169116039060ff82116114a457565b604d81116114a457600a0a90565b600954908115612757578160001904811161279d576126ef836127af565b9160018060a01b03670de0b6b3a764000061271882600f541693612712856127af565b9561245f565b04941614801561278e575b6127895760ff811660ff83161060001461276d5761274661274c9260ff926126af565b166126c3565b908115612757570490565b634e487b7160e01b600052601260045260246000fd5b60ff6127466127809261278695946126af565b9061245f565b90565b505090565b5060ff811660ff831614612723565b604051636be580af60e11b8152600490fd5b6001600160a01b0316801561282e5760206004916040519283809263313ce56760e01b82525afa80916000916127ec575b50906127865750600690565b6020813d8211612826575b8161280460209383611c7e565b8101031261282257519060ff8216820361281f5750386127e0565b80fd5b5080fd5b3d91506127f7565b5060069056fe2f8788117e7eff1d82e926ec794901d17c78024a50270940304540a733656f0dc65a7bb8d6351c1cf70c95a316cc6a92839c986682d98bc35f958f4883f9d2a831ecc21a745e3968a04e9570e4425bc18fa8019c68028196b546d1669c200c68e95a9b683b92666d9d797e8627c0dc38b1c77c37da9fff26b230498928bc79f5f3f7a9fe364faab93b216da50a3214154f22a0a2b415b23a84c8169e8b636ee31b6847dc741a1b0cd08d278845f9d819d87b734759afb55fe2de5cb82a9ae672a2646970667358221220fbd3a70e94bbd63b24e706426f554fec45f954563f0428247c98cb49eb36048064736f6c63430008130033",
  "linkReferences": {},
  "deployedLinkReferences": {}
}